{
    "contractName": "LoanAsset",
    "abi": [
        {
            "inputs": [
                {
                    "components": [
                        {
                            "internalType": "bytes32",
                            "name": "name",
                            "type": "bytes32"
                        },
                        {
                            "internalType": "bytes32",
                            "name": "issuanceCountry",
                            "type": "bytes32"
                        },
                        {
                            "internalType": "bytes32",
                            "name": "currency",
                            "type": "bytes32"
                        },
                        {
                            "internalType": "enum LoanAssetLib.LoanType",
                            "name": "loanType",
                            "type": "uint8"
                        },
                        {
                            "internalType": "enum LoanAssetLib.InterestRateType",
                            "name": "interestRateType",
                            "type": "uint8"
                        },
                        {
                            "internalType": "uint256",
                            "name": "startDate",
                            "type": "uint256"
                        },
                        {
                            "internalType": "uint256",
                            "name": "maturityDate",
                            "type": "uint256"
                        }
                    ],
                    "internalType": "struct LoanAssetLib.LoanAnag",
                    "name": "_loanAnag",
                    "type": "tuple"
                },
                {
                    "components": [
                        {
                            "internalType": "uint256",
                            "name": "totalAmount",
                            "type": "uint256"
                        },
                        {
                            "internalType": "uint256",
                            "name": "interestRate",
                            "type": "uint256"
                        },
                        {
                            "internalType": "uint256[]",
                            "name": "couponPaymentDates",
                            "type": "uint256[]"
                        },
                        {
                            "internalType": "address[]",
                            "name": "borrowers",
                            "type": "address[]"
                        },
                        {
                            "internalType": "uint256[]",
                            "name": "borrowerShares",
                            "type": "uint256[]"
                        }
                    ],
                    "internalType": "struct LoanAssetLib.LoanInfo",
                    "name": "_loanInfo",
                    "type": "tuple"
                }
            ],
            "stateMutability": "nonpayable",
            "type": "constructor"
        },
        {
            "anonymous": false,
            "inputs": [
                {
                    "indexed": true,
                    "internalType": "address",
                    "name": "borrower",
                    "type": "address"
                },
                {
                    "indexed": false,
                    "internalType": "uint256",
                    "name": "couponAmount",
                    "type": "uint256"
                },
                {
                    "indexed": false,
                    "internalType": "uint256",
                    "name": "couponNumber",
                    "type": "uint256"
                }
            ],
            "name": "CouponPaid",
            "type": "event"
        },
        {
            "anonymous": false,
            "inputs": [
                {
                    "indexed": false,
                    "internalType": "bytes32",
                    "name": "name",
                    "type": "bytes32"
                },
                {
                    "indexed": true,
                    "internalType": "address",
                    "name": "lender",
                    "type": "address"
                },
                {
                    "indexed": false,
                    "internalType": "uint256",
                    "name": "totalAmount",
                    "type": "uint256"
                }
            ],
            "name": "LoanIssued",
            "type": "event"
        },
        {
            "anonymous": false,
            "inputs": [],
            "name": "LoanMatured",
            "type": "event"
        },
        {
            "anonymous": false,
            "inputs": [
                {
                    "indexed": true,
                    "internalType": "address",
                    "name": "borrower",
                    "type": "address"
                },
                {
                    "indexed": false,
                    "internalType": "uint256",
                    "name": "repaymentAmount",
                    "type": "uint256"
                }
            ],
            "name": "LoanRepaid",
            "type": "event"
        },
        {
            "anonymous": false,
            "inputs": [],
            "name": "LoanStarted",
            "type": "event"
        },
        {
            "anonymous": false,
            "inputs": [],
            "name": "Paused",
            "type": "event"
        },
        {
            "anonymous": false,
            "inputs": [],
            "name": "Unpaused",
            "type": "event"
        },
        {
            "anonymous": false,
            "inputs": [
                {
                    "indexed": false,
                    "internalType": "uint256",
                    "name": "interestRate",
                    "type": "uint256"
                }
            ],
            "name": "UpdateInterestRateAndCoupon",
            "type": "event"
        },
        {
            "inputs": [
                {
                    "internalType": "uint256",
                    "name": "",
                    "type": "uint256"
                }
            ],
            "name": "BORROWERS",
            "outputs": [
                {
                    "internalType": "address",
                    "name": "",
                    "type": "address"
                }
            ],
            "stateMutability": "view",
            "type": "function"
        },
        {
            "inputs": [
                {
                    "internalType": "address",
                    "name": "",
                    "type": "address"
                }
            ],
            "name": "BORROWERS_SHARE",
            "outputs": [
                {
                    "internalType": "uint256",
                    "name": "",
                    "type": "uint256"
                }
            ],
            "stateMutability": "view",
            "type": "function"
        },
        {
            "inputs": [
                {
                    "internalType": "address",
                    "name": "",
                    "type": "address"
                }
            ],
            "name": "BORROWERS_STATUS",
            "outputs": [
                {
                    "internalType": "enum LoanAssetLib.BorrowerStatus",
                    "name": "",
                    "type": "uint8"
                }
            ],
            "stateMutability": "view",
            "type": "function"
        },
        {
            "inputs": [
                {
                    "internalType": "uint256",
                    "name": "",
                    "type": "uint256"
                }
            ],
            "name": "COUPON_PAYMENT_DATES",
            "outputs": [
                {
                    "internalType": "uint256",
                    "name": "",
                    "type": "uint256"
                }
            ],
            "stateMutability": "view",
            "type": "function"
        },
        {
            "inputs": [],
            "name": "CURRENCY",
            "outputs": [
                {
                    "internalType": "bytes32",
                    "name": "",
                    "type": "bytes32"
                }
            ],
            "stateMutability": "view",
            "type": "function"
        },
        {
            "inputs": [],
            "name": "INTEREST_RATE_TYPE",
            "outputs": [
                {
                    "internalType": "enum LoanAssetLib.InterestRateType",
                    "name": "",
                    "type": "uint8"
                }
            ],
            "stateMutability": "view",
            "type": "function"
        },
        {
            "inputs": [],
            "name": "ISSUANCE_COUNTRY",
            "outputs": [
                {
                    "internalType": "bytes32",
                    "name": "",
                    "type": "bytes32"
                }
            ],
            "stateMutability": "view",
            "type": "function"
        },
        {
            "inputs": [],
            "name": "LENDER",
            "outputs": [
                {
                    "internalType": "address",
                    "name": "",
                    "type": "address"
                }
            ],
            "stateMutability": "view",
            "type": "function"
        },
        {
            "inputs": [],
            "name": "LOAN_TYPE",
            "outputs": [
                {
                    "internalType": "enum LoanAssetLib.LoanType",
                    "name": "",
                    "type": "uint8"
                }
            ],
            "stateMutability": "view",
            "type": "function"
        },
        {
            "inputs": [],
            "name": "MATURITY_DATE",
            "outputs": [
                {
                    "internalType": "uint256",
                    "name": "",
                    "type": "uint256"
                }
            ],
            "stateMutability": "view",
            "type": "function"
        },
        {
            "inputs": [],
            "name": "NAME",
            "outputs": [
                {
                    "internalType": "bytes32",
                    "name": "",
                    "type": "bytes32"
                }
            ],
            "stateMutability": "view",
            "type": "function"
        },
        {
            "inputs": [],
            "name": "START_DATE",
            "outputs": [
                {
                    "internalType": "uint256",
                    "name": "",
                    "type": "uint256"
                }
            ],
            "stateMutability": "view",
            "type": "function"
        },
        {
            "inputs": [],
            "name": "TOTAL_AMOUNT",
            "outputs": [
                {
                    "internalType": "uint256",
                    "name": "",
                    "type": "uint256"
                }
            ],
            "stateMutability": "view",
            "type": "function"
        },
        {
            "inputs": [],
            "name": "TOTAL_COUPON_NUMBER",
            "outputs": [
                {
                    "internalType": "uint256",
                    "name": "",
                    "type": "uint256"
                }
            ],
            "stateMutability": "view",
            "type": "function"
        },
        {
            "inputs": [],
            "name": "anticipatePayment",
            "outputs": [],
            "stateMutability": "payable",
            "type": "function"
        },
        {
            "inputs": [
                {
                    "internalType": "address",
                    "name": "",
                    "type": "address"
                },
                {
                    "internalType": "uint256",
                    "name": "",
                    "type": "uint256"
                }
            ],
            "name": "borrowersCoupons",
            "outputs": [
                {
                    "internalType": "uint256",
                    "name": "amount",
                    "type": "uint256"
                },
                {
                    "internalType": "uint256",
                    "name": "paymentDate",
                    "type": "uint256"
                },
                {
                    "internalType": "enum LoanAssetLib.CouponStatus",
                    "name": "couponStatus",
                    "type": "uint8"
                }
            ],
            "stateMutability": "view",
            "type": "function"
        },
        {
            "inputs": [
                {
                    "internalType": "address",
                    "name": "",
                    "type": "address"
                }
            ],
            "name": "borrowersOutstandingPrincipal",
            "outputs": [
                {
                    "internalType": "uint256",
                    "name": "outstandingPrincipalAmount",
                    "type": "uint256"
                },
                {
                    "internalType": "uint256",
                    "name": "couponNumberLeftToPay",
                    "type": "uint256"
                }
            ],
            "stateMutability": "view",
            "type": "function"
        },
        {
            "inputs": [],
            "name": "calculateNextCoupon",
            "outputs": [
                {
                    "internalType": "uint256",
                    "name": "",
                    "type": "uint256"
                }
            ],
            "stateMutability": "view",
            "type": "function"
        },
        {
            "inputs": [],
            "name": "currentLoanStatus",
            "outputs": [
                {
                    "internalType": "enum LoanAssetLib.LoanStatus",
                    "name": "",
                    "type": "uint8"
                }
            ],
            "stateMutability": "view",
            "type": "function"
        },
        {
            "inputs": [
                {
                    "internalType": "address",
                    "name": "borrower",
                    "type": "address"
                }
            ],
            "name": "disableAnticipatePayment",
            "outputs": [],
            "stateMutability": "nonpayable",
            "type": "function"
        },
        {
            "inputs": [
                {
                    "internalType": "address",
                    "name": "borrower",
                    "type": "address"
                }
            ],
            "name": "enableAnticipatePayment",
            "outputs": [],
            "stateMutability": "nonpayable",
            "type": "function"
        },
        {
            "inputs": [],
            "name": "interestRate",
            "outputs": [
                {
                    "internalType": "uint256",
                    "name": "",
                    "type": "uint256"
                }
            ],
            "stateMutability": "view",
            "type": "function"
        },
        {
            "inputs": [],
            "name": "pause",
            "outputs": [],
            "stateMutability": "nonpayable",
            "type": "function"
        },
        {
            "inputs": [
                {
                    "internalType": "uint256",
                    "name": "couponNumber",
                    "type": "uint256"
                }
            ],
            "name": "payCoupon",
            "outputs": [],
            "stateMutability": "payable",
            "type": "function"
        },
        {
            "inputs": [],
            "name": "payPrincipal",
            "outputs": [],
            "stateMutability": "payable",
            "type": "function"
        },
        {
            "inputs": [
                {
                    "internalType": "address",
                    "name": "borrower",
                    "type": "address"
                }
            ],
            "name": "setDefault",
            "outputs": [],
            "stateMutability": "nonpayable",
            "type": "function"
        },
        {
            "inputs": [],
            "name": "setLoanClosed",
            "outputs": [],
            "stateMutability": "nonpayable",
            "type": "function"
        },
        {
            "inputs": [],
            "name": "setLoanMatured",
            "outputs": [],
            "stateMutability": "nonpayable",
            "type": "function"
        },
        {
            "inputs": [],
            "name": "setLoanStart",
            "outputs": [],
            "stateMutability": "nonpayable",
            "type": "function"
        },
        {
            "inputs": [],
            "name": "unpause",
            "outputs": [],
            "stateMutability": "nonpayable",
            "type": "function"
        },
        {
            "inputs": [
                {
                    "internalType": "uint256",
                    "name": "_interestRate",
                    "type": "uint256"
                }
            ],
            "name": "updateInterestRateAndCoupon",
            "outputs": [],
            "stateMutability": "nonpayable",
            "type": "function"
        },
        {
            "inputs": [],
            "name": "withdrawFunds",
            "outputs": [],
            "stateMutability": "nonpayable",
            "type": "function"
        }
    ],
    "bytecode": "6101c0604052346200084257620026ba803803806200001e81620008ae565b92833981818101036101008112620008425760e01362000842576040519060e082016001600160401b03811183821017620006dd576040528251825260208301516020830152604083015160408301526060830151600281101562000842576060830152608083015160028110156200084257608083015260a0838101519083015260c0808401519083015260e0830151926001600160401b038411620008425760a084820183830103126200084257604051936001600160401b0360a0860190811190861117620006dd5760a085016040908152828201805187526020808201519088015201516001600160401b038111620008425762000128908484019083850101620008ec565b6040860152818101606001516001600160401b0381116200084257838301601f8284860101011215620008425780828401015190620001716200016b83620008d4565b620008ae565b91602083828152019186860160208360051b83888a01010101116200084257916020838688010101925b60208360051b82888a010101018410620008465750505050606086015281810160800151906001600160401b0382116200084257620001df938301920101620008ec565b6080830152815115620007ed57606082015151608083015151036200079e5760a081015160c08201511115620007485733608052805160a052602081015160c052604081015160e05281516101005260a08101516101205260c0810151610140526060810151620002508162000949565b610180526080810151620002648162000949565b6101a0526040820151516101605260208201515f55604082015151915f5b60408201518051821015620002b55790620002a08160019362000968565b51815f52600460205260405f20550162000282565b505091606083015151915f5b838110620003f45760ff196007541660075560a0517f5a3727ca57436d1d850413574b206ec449b098888ab84407f441b37963e0e5dd604060018060a01b0360805116926101005182519182526020820152a2604051611c06908162000ab482396080518181816102920152818161041501528181610c8901528181610d67015281816110fb0152818161117b015281816112040152818161133e015281816113de015281816114d3015261168c015260a05181610805015260c05181610753015260e051816102250152610100518161083f01526101205181611384015261014051818181610354015261124801526101605181818161038e0152818161049801526108f301526101805181818161096a0152818161107b015261194f01526101a05181818161045f01526107c20152f35b60608501516001600160a01b03906200040f90839062000968565b51166200042182608088015162000968565b51908115620006f15760015468010000000000000000811015620006dd57600181018060015581101562000687577fb10e2d527612073b26eecdfd717e6a320cf44b4afac2b0732d9fcbe2b7fa0cf60180546001600160a01b031916821790555f81815260026020908152604080832085905560039091529020805460ff19169055610100516064926001918491620004ba916200097d565b0491620004c66200086e565b92835260208301908782525f52600660205260405f2092518355519101556080830151620004f48162000949565b620004ff8162000949565b620005bc57505f5b8381106200051b57506001905b01620002c1565b60019062000552828060a01b03620005388560608b015162000968565b51166200054a8360408b015162000968565b5190620009a5565b828060a01b03620005688560608b015162000968565b51165f52600560205260405f20845f5260205260406002815f2083518155602084015186820155019101516200059e8162000949565b620005a98162000949565b60ff801983541691161790550162000507565b60016080840151620005ce8162000949565b620005d98162000949565b036200069b575060608501516001600160a01b0390620005fb90839062000968565b5116906040860151805115620006875760019260206200061e92015190620009a5565b828060a01b03620006348360608a015162000968565b51165f52600560205260405f20825f5260205260406002815f2083518155602084015186820155019101516200066a8162000949565b620006758162000949565b60ff8019835416911617905562000514565b634e487b7160e01b5f52603260045260245ffd5b60405162461bcd60e51b815260206004820152601b60248201527f496e76616c696420696e746572657374207261746520747970652e00000000006044820152fd5b634e487b7160e01b5f52604160045260245ffd5b60405162461bcd60e51b815260206004820152602960248201527f426f72726f776572207368617265206d757374206265206772656174657220746044820152683430b7103d32b9379760b91b6064820152608490fd5b60405162461bcd60e51b815260206004820152602860248201527f53746172742064617465206d757374206265206265666f7265206d61747572696044820152673a3c903230ba329760c11b6064820152608490fd5b60405162461bcd60e51b815260206004820152602160248201527f4d69736d6174636820696e20626f72726f7765727320616e64207368617265736044820152601760f91b6064820152608490fd5b60405162461bcd60e51b815260206004820152602760248201527f546f74616c20616d6f756e74206d75737420626520677265617465722074686160448201526637103d32b9379760c91b6064820152608490fd5b5f80fd5b8351916001600160a01b0383168303620008425760208181948293520194019391506200019b565b60408051919082016001600160401b03811183821017620006dd57604052565b60405190606082016001600160401b03811183821017620006dd57604052565b6040519190601f01601f191682016001600160401b03811183821017620006dd57604052565b6001600160401b038111620006dd5760051b60200190565b9080601f8301121562000842578151906200090b6200016b83620008d4565b9182938184526020808095019260051b82010192831162000842578301905b82821062000939575050505090565b815181529083019083016200092a565b600211156200095457565b634e487b7160e01b5f52602160045260245ffd5b8051821015620006875760209160051b010190565b818102929181159184041417156200099157565b634e487b7160e01b5f52601160045260245ffd5b620009c8905f6040620009b76200088e565b8281528260208201520152620009e4565b90620009d36200088e565b91825260208201525f604082015290565b6001600160a01b03165f908152600660205260409020606462000a2362000a0a6200086e565b926001815491828652015460208501525f54906200097d565b0490610180805162000a358162000949565b62000a408162000949565b60010362000a58575051908101809111620009915790565b90505162000a668162000949565b62000a718162000949565b62000a795790565b60405162461bcd60e51b815260206004820152601260248201527124b73b30b634b2103637b0b7103a3cb8329760711b6044820152606490fdfe60806040526004361015610011575f80fd5b5f3560e01c806301798e671461164b57806301ddea91146115395780631789e826146114a357806324600fc3146113a7578063372c65331461136d57806338a1046d146113295780633cfcca9d146111db5780633f4ba83a1461116557806360a2bef3146110a7578063616693d81461106757806367dad90714610ef15780637c3a00fd14610ed55780637f39434814610d11578063839cef2414610cee5780638456cb5914610c735780638509ac9514610c3157806390b1760e14610bf0578063932e2b8614610862578063a2d7f5e314610828578063a3f4df7e146107ee578063a50ff1bb146107ae578063b0f035f614610776578063b63949431461073c578063c124b421146106fc578063c2d0c406146103da578063c8395e8a146103b1578063d925793314610377578063e593bd741461033d578063e823d5cf14610248578063f53612191461020e578063f594aba4146101a75763f9d4d76914610179575f80fd5b346101a35760203660031901126101a3576004355f526004602052602060405f2054604051908152f35b5f80fd5b346101a35760403660031901126101a3576001600160a01b036101c8611802565b165f52600560205260405f206024355f52602052606060405f2080549060ff600260018301549201541690604051928352602083015261020781611818565b6040820152f35b346101a3575f3660031901126101a35760206040517f00000000000000000000000000000000000000000000000000000000000000008152f35b346101a35760203660031901126101a357610261611802565b6007549061027560ff8360081c1615611a05565b61ff0019918216610100176007556001600160a01b03906102b9337f0000000000000000000000000000000000000000000000000000000000000000841614611889565b16805f52600360205260ff60405f2054166102d38161187f565b6102f8575f52600360205260405f20600260ff19825416179055600754166007555f80f35b60405162461bcd60e51b815260206004820152601760248201527f426f72726f776572206973206e6f74206163746976652e0000000000000000006044820152606490fd5b346101a3575f3660031901126101a35760206040517f00000000000000000000000000000000000000000000000000000000000000008152f35b346101a3575f3660031901126101a35760206040517f00000000000000000000000000000000000000000000000000000000000000008152f35b346101a3575f3660031901126101a357602060ff60075416604051906103d68161187f565b8152f35b346101a35760203660031901126101a35761045360ff600754610402828260081c1615611a05565b61ff0019811661010017600755610443337f00000000000000000000000000000000000000000000000000000000000000006001600160a01b031614611889565b1661044d8161187f565b15611a51565b600435156106a65760017f000000000000000000000000000000000000000000000000000000000000000061048781611818565b03610655576004355f556001545f907f0000000000000000000000000000000000000000000000000000000000000000915b8181106104f9577f50284e95e206e68da09c6b7866342b019df13c62bb804fdf044d3a68d7e5277f60206040516004358152a16007805461ff0019169055005b61050281611836565b9190549160039260018060a01b0391841b1c165f526006602052610541602060405f20600161052f6118e6565b91805483520154918291015285611aa7565b9160018301831161064157846001840110156106385761057761056383611836565b905490831b1c6001600160a01b0316611906565b600184015f52600460205260405f20546040519081606081011067ffffffffffffffff606084011117610624576001956002936060840160405283526020830191825260408301945f86526105cb87611836565b898060a09493941b039254911b1c165f5260056020528660405f2091015f5260205260405f2091518255518582015501905161060681611818565b61060f81611818565b60ff8019835416911617905501905b906104b9565b634e487b7160e01b5f52604160045260245ffd5b5091905061061e565b634e487b7160e01b5f52601160045260245ffd5b60405162461bcd60e51b8152602060048201526024808201527f496e74657265737420726174652074797065206d75737420626520666c6f617460448201526334b7339760e11b6064820152608490fd5b60405162461bcd60e51b815260206004820152602860248201527f496e7465726573742072617465206d757374206265206772656174657220746860448201526730b7103d32b9379760c11b6064820152608490fd5b346101a35760203660031901126101a3576001600160a01b0361071d611802565b165f526003602052602060ff60405f205416604051906103d68161187f565b346101a3575f3660031901126101a35760206040517f00000000000000000000000000000000000000000000000000000000000000008152f35b346101a35760203660031901126101a3576001600160a01b03610797611802565b165f526002602052602060405f2054604051908152f35b346101a3575f3660031901126101a35760207f0000000000000000000000000000000000000000000000000000000000000000604051906103d681611818565b346101a3575f3660031901126101a35760206040517f00000000000000000000000000000000000000000000000000000000000000008152f35b346101a3575f3660031901126101a35760206040517f00000000000000000000000000000000000000000000000000000000000000008152f35b6020806003193601126101a357600435906007549161088760ff8460081c1615611a05565b600160ff61ff00199461010086821617600755335f52600385526108ba8260405f2054166108b48161187f565b15611889565b166108c48161187f565b03610bb757335f526006825260405f209160016108df6118e6565b9380548552015481840190808252610b7a577f0000000000000000000000000000000000000000000000000000000000000000831015610b3c57335f526005825260405f20835f52825260405f2090600282019182549060ff821661094381611818565b610af757600101544210610a9c5761095a33611906565b958615610a4557863403610a00577f000000000000000000000000000000000000000000000000000000000000000061099281611818565b6001146109ed575b508151918215610641576001925f1901905260ff19161790556040519283528201527f2b6bdaf5703b7660d288433bd5b9b5516285a695e3484740d9197d651a01a37c60403392a2600754166007555f80f35b6109f8878251611aa7565b90528761099a565b60405162461bcd60e51b815260048101869052601d60248201527f496e636f727265637420636f75706f6e20616d6f756e742073656e742e0000006044820152606490fd5b60405162461bcd60e51b815260048101869052602960248201527f436f75706f6e206d75737420626520646566696e6564206265666f726520626560448201526834b733903830b4b21760b91b6064820152608490fd5b60405162461bcd60e51b815260048101859052602d60248201527f436f75706f6e207061796d656e74206461746520686173206e6f74206265656e60448201526c103932b0b1b432b2103cb2ba1760991b6064820152608490fd5b60405162461bcd60e51b815260048101869052601d60248201527f436f75706f6e2068617320616c7265616479206265656e20706169642e0000006044820152606490fd5b60405162461bcd60e51b815260048101839052601660248201527524b73b30b634b21031b7bab837b710373ab6b132b91760511b6044820152606490fd5b60405162461bcd60e51b81526004810183905260156024820152744e6f20636f75706f6e206c65667420746f2070617960581b6044820152606490fd5b60405162461bcd60e51b81526004810183905260116024820152702637b0b71034b9903737ba103634bb329760791b6044820152606490fd5b346101a35760203660031901126101a3576001600160a01b03610c11611802565b165f5260066020526040805f206001815491015482519182526020820152f35b346101a35760203660031901126101a3576004356001548110156101a357610c5a602091611836565b905460405160039290921b1c6001600160a01b03168152f35b346101a3575f3660031901126101a357610cb7337f00000000000000000000000000000000000000000000000000000000000000006001600160a01b031614611889565b6201000062ff00001960075416176007557f9e87fac88ff661f02d44f95383c817fece4bce600a3dab7a54406878b965e7525f80a1005b346101a3575f3660031901126101a3576020610d0933611906565b604051908152f35b346101a3576020806003193601126101a357610d2b611802565b90600754610d3f60ff8260081c1615611a05565b61ff001981811661010017600755926001600160a01b0391610d9e9060019060ff90610d8e337f0000000000000000000000000000000000000000000000000000000000000000881614611889565b16610d988161187f565b14611b10565b16805f526003825260ff60405f205416610db78161187f565b610e7a575f52600681528060405f20610dce6118e6565b60018254928383520154928391015215159081610e70575b5015610e0d57600390335f525260405f20600360ff19825416179055600754166007555f80f35b6084906040519062461bcd60e51b82526004820152603660248201527f4e6f206f75747374616e64696e67207072696e636970616c20616d6f756e742060448201527537b91031b7bab837b7103632b33a103a37903830bc9760511b6064820152fd5b9050151583610de6565b60405162461bcd60e51b815260048101839052602d60248201527f426f72726f776572206973206e6f742061637469766520746f20616e7469636960448201526c3830ba32903830bcb6b2b73a1760991b6064820152608490fd5b346101a3575f3660031901126101a35760205f54604051908152f35b5f3660031901126101a357600754610f0f60ff8260081c1615611a05565b61ff00199061010082821617600755335f52600260ff60209260038452610f3f8260405f2054166108b48161187f565b16610f498161187f565b0361102c57610f61610f5a33611906565b1515611ab4565b335f526006815260405f20610f746118e6565b610f8f60018354938484520154928483019384521515611ab4565b80513403610fe957905f80925252335f526003815260405f20600160ff198254161790557fc200a1f31dd659e356e0f112c82558e25f49f7b0f84438691cd96f5cb3558823604051913483523392a2600754166007555f80f35b6064836040519062461bcd60e51b825280600483015260248201527f496e636f7272656374207072696e636970616c20616d6f756e742073656e742e6044820152fd5b6064906040519062461bcd60e51b8252600482015260146024820152732637b0b71034b9903737ba1036b0ba3ab932b21760611b6044820152fd5b346101a3575f3660031901126101a35760207f0000000000000000000000000000000000000000000000000000000000000000604051906103d681611818565b346101a35760203660031901126101a3576110c0611802565b6007546110d360ff8260081c1615611a05565b61ff001981811661010017600755916001600160a01b03916111229060019060ff90610d8e337f0000000000000000000000000000000000000000000000000000000000000000881614611889565b165f526003602052611146600360ff60405f2054166111408161187f565b14611b6d565b335f52600360205260405f2060ff198154169055600754166007555f80f35b346101a3575f3660031901126101a3576111a9337f00000000000000000000000000000000000000000000000000000000000000006001600160a01b031614611889565b62ff000019600754166007557fa45f47fdea8a1efdd9029a5691c7f759c32b7c698632b563573e155625d169335f80a1005b346101a3575f3660031901126101a3576007546111fe60ff8260081c1615611a05565b611232337f00000000000000000000000000000000000000000000000000000000000000006001600160a01b031614611889565b600160ff82166112418161187f565b036112e4577f0000000000000000000000000000000000000000000000000000000000000000421061129f576002907f344367e984e414c35840b952af5f2f7a99d2a4225a382b26d62087f4191204bd5f80a161ffff191617600755005b60405162461bcd60e51b815260206004820152601960248201527f4c6f616e20686173206e6f74206d617475726564207965742e000000000000006044820152606490fd5b60405162461bcd60e51b815260206004820152601e60248201527f4c6f616e206d757374206265206c69766520746f20636c6f73652069742e00006044820152606490fd5b346101a3575f3660031901126101a3576040517f00000000000000000000000000000000000000000000000000000000000000006001600160a01b03168152602090f35b346101a3575f3660031901126101a35760206040517f00000000000000000000000000000000000000000000000000000000000000008152f35b346101a3575f3660031901126101a3576007546113ca60ff8260081c1615611a05565b61ff00199081166101001760075561140c337f00000000000000000000000000000000000000000000000000000000000000006001600160a01b031614611889565b5f80808047335af13d1561149e5767ffffffffffffffff3d8181116106245760405191601f8201601f19908116603f01168301908111838210176106245760405281525f60203d92013e5b1561146757600754166007555f80f35b60405162461bcd60e51b815260206004820152600f60248201526e151c985b9cd9995c8819985a5b1959608a1b6044820152606490fd5b611457565b346101a3575f3660031901126101a35760016007546114c860ff8260081c1615611a05565b6114fa828060a01b037f0000000000000000000000000000000000000000000000000000000000000000163314611889565b61150a60ff821661044d8161187f565b7f577d3ffbd54bf4a32b4bf769a1a9bd4f4caed7897b3f74ac0540139d357d22df5f80a161ffff191617600755005b5f3660031901126101a357611558600160ff60075416610d988161187f565b335f52602060038152611577600360ff60405f2054166111408161187f565b335f526006815260405f2090600161158d6118e6565b928054845201548183019081526115a333611906565b928334106115f4577fc200a1f31dd659e356e0f112c82558e25f49f7b0f84438691cd96f5cb355882392915f80925252335f526003815260405f20600160ff198254161790556040519283523392a2005b60405162461bcd60e51b815260048101849052602960248201527f496e73756666696369656e742066756e647320746f20616e7469636970617465604482015268103830bcb6b2b73a1760b91b6064820152608490fd5b346101a3575f3660031901126101a35760075460ff90611670828260081c1615611a05565b61ff00198116610100176007556001600160a01b03916116b3337f0000000000000000000000000000000000000000000000000000000000000000851614611889565b808216906116c08261187f565b60028092036117b1576001938454925f5b8481106116e65761ffff198616600317600755005b826116f082611836565b919054600392831b1c165f528360209180835289858860405f2054166117158161187f565b146117a5575061172484611836565b9054911b1c165f52600681528760405f20015461174657508601935b936116d1565b6084906040519062461bcd60e51b82526004820152603260248201527f416c6c20626f72726f77657273206d7573742070617920616c6c20636f75706f6044820152713739903132b337b9329031b637b9b4b7339760711b6064820152fd5b93925050500193611740565b60405162461bcd60e51b8152602060048201526024808201527f4c6f616e206d757374206265206d617475726564206265666f726520636c6f7360448201526334b7339760e11b6064820152608490fd5b600435906001600160a01b03821682036101a357565b6002111561182257565b634e487b7160e01b5f52602160045260245ffd5b60015481101561186b5760015f527fb10e2d527612073b26eecdfd717e6a320cf44b4afac2b0732d9fcbe2b7fa0cf601905f90565b634e487b7160e01b5f52603260045260245ffd5b6004111561182257565b1561189057565b60405162461bcd60e51b815260206004820152602860248201527f4f6e6c7920746865206c656e6465722063616e20706572666f726d20746869736044820152671030b1ba34b7b71760c11b6064820152608490fd5b604051906040820182811067ffffffffffffffff82111761062457604052565b6001600160a01b03165f908152600660205260408120906119256118e6565b916001815491828552015460208401528154908181029181830414901517156119f15760649004917f000000000000000000000000000000000000000000000000000000000000000061197781611818565b600181036119a357505191820180921161198f575090565b634e487b7160e01b81526011600452602490fd5b8092506119b09150611818565b6119b75790565b60405162461bcd60e51b815260206004820152601260248201527124b73b30b634b2103637b0b7103a3cb8329760711b6044820152606490fd5b634e487b7160e01b82526011600452602482fd5b15611a0c57565b60405162461bcd60e51b815260206004820152601f60248201527f5265656e7472616e637947756172643a207265656e7472616e742063616c6c006044820152606490fd5b15611a5857565b60405162461bcd60e51b815260206004820152602160248201527f4c6f616e206973206e6f7420696e207072656c696d696e6172792073746174656044820152602160f81b6064820152608490fd5b9190820391821161064157565b15611abb57565b60405162461bcd60e51b815260206004820152602760248201527f4e6f206f75747374616e64696e67207072696e636970616c20616d6f756e74206044820152663a37903830bc9760c91b6064820152608490fd5b15611b1757565b60405162461bcd60e51b815260206004820152602860248201527f4c6f616e206d757374206265206c69766520746f20616e7469636970617465206044820152673830bcb6b2b73a1760c11b6064820152608490fd5b15611b7457565b60405162461bcd60e51b815260206004820152602e60248201527f426f72726f776572206973206e6f7420656e61626c656420746f20616e74696360448201526d34b830ba32903830bcb6b2b73a1760911b6064820152608490fdfea2646970667358221220857886e6dd17cdef7d2b6b56e3bf90c9d381a7ac29d1d4ae4667bb5270653b0364736f6c63430008140033",
    "sourcePath": "d:/IntesaSanpaolo/Projects/Avalanche/avalanche-sc-hardhat/contracts/security/Draft/LoanAsset.sol",
    "compiler": {
        "name": "solc",
        "version": "0.8.20+commit.a1b79de6"
    },
    "functionHashes": {
        "BORROWERS(uint256)": "8509ac95",
        "BORROWERS_SHARE(address)": "b0f035f6",
        "BORROWERS_STATUS(address)": "c124b421",
        "COUPON_PAYMENT_DATES(uint256)": "f9d4d769",
        "CURRENCY()": "f5361219",
        "INTEREST_RATE_TYPE()": "a50ff1bb",
        "ISSUANCE_COUNTRY()": "b6394943",
        "LENDER()": "38a1046d",
        "LOAN_TYPE()": "616693d8",
        "MATURITY_DATE()": "e593bd74",
        "NAME()": "a3f4df7e",
        "START_DATE()": "372c6533",
        "TOTAL_AMOUNT()": "a2d7f5e3",
        "TOTAL_COUPON_NUMBER()": "d9257933",
        "anticipatePayment()": "01ddea91",
        "borrowersCoupons(address,uint256)": "f594aba4",
        "borrowersOutstandingPrincipal(address)": "90b1760e",
        "calculateNextCoupon()": "839cef24",
        "currentLoanStatus()": "c8395e8a",
        "disableAnticipatePayment(address)": "60a2bef3",
        "enableAnticipatePayment(address)": "7f394348",
        "interestRate()": "7c3a00fd",
        "pause()": "8456cb59",
        "payCoupon(uint256)": "932e2b86",
        "payPrincipal()": "67dad907",
        "setDefault(address)": "e823d5cf",
        "setLoanClosed()": "01798e67",
        "setLoanMatured()": "3cfcca9d",
        "setLoanStart()": "1789e826",
        "unpause()": "3f4ba83a",
        "updateInterestRateAndCoupon(uint256)": "c2d0c406",
        "withdrawFunds()": "24600fc3"
    },
    "gasEstimates": {
        "creation": {
            "codeDepositCost": "1434800",
            "executionCost": "infinite",
            "totalCost": "infinite"
        },
        "external": {
            "BORROWERS(uint256)": "6917",
            "BORROWERS_SHARE(address)": "2860",
            "BORROWERS_STATUS(address)": "2967",
            "COUPON_PAYMENT_DATES(uint256)": "2992",
            "CURRENCY()": "infinite",
            "INTEREST_RATE_TYPE()": "infinite",
            "ISSUANCE_COUNTRY()": "infinite",
            "LENDER()": "infinite",
            "LOAN_TYPE()": "infinite",
            "MATURITY_DATE()": "infinite",
            "NAME()": "infinite",
            "START_DATE()": "infinite",
            "TOTAL_AMOUNT()": "infinite",
            "TOTAL_COUPON_NUMBER()": "infinite",
            "anticipatePayment()": "infinite",
            "borrowersCoupons(address,uint256)": "7439",
            "borrowersOutstandingPrincipal(address)": "4877",
            "calculateNextCoupon()": "infinite",
            "currentLoanStatus()": "2861",
            "disableAnticipatePayment(address)": "infinite",
            "enableAnticipatePayment(address)": "infinite",
            "interestRate()": "2489",
            "pause()": "infinite",
            "payCoupon(uint256)": "infinite",
            "payPrincipal()": "infinite",
            "setDefault(address)": "infinite",
            "setLoanClosed()": "infinite",
            "setLoanMatured()": "infinite",
            "setLoanStart()": "infinite",
            "unpause()": "infinite",
            "updateInterestRateAndCoupon(uint256)": "infinite",
            "withdrawFunds()": "infinite"
        },
        "internal": {
            "_calculateNextAmountByBorrower(address)": "infinite",
            "_createNextCoupon(address,uint256)": "infinite"
        }
    }
}