{
    "contractName": "LoanAsset",
    "abi": [
        {
            "inputs": [
                {
                    "components": [
                        {
                            "internalType": "bytes32",
                            "name": "name",
                            "type": "bytes32"
                        },
                        {
                            "internalType": "bytes32",
                            "name": "issuanceCountry",
                            "type": "bytes32"
                        },
                        {
                            "internalType": "bytes32",
                            "name": "currency",
                            "type": "bytes32"
                        },
                        {
                            "internalType": "enum LoanAssetLib.LoanTypeEnum",
                            "name": "loanType",
                            "type": "uint8"
                        },
                        {
                            "internalType": "enum LoanAssetLib.InterestRateTypeEnum",
                            "name": "interestRateType",
                            "type": "uint8"
                        },
                        {
                            "internalType": "uint256",
                            "name": "startDate",
                            "type": "uint256"
                        },
                        {
                            "internalType": "uint256",
                            "name": "maturityDate",
                            "type": "uint256"
                        }
                    ],
                    "internalType": "struct LoanAssetLib.LoanAnagInfo",
                    "name": "_loanAnagInfo",
                    "type": "tuple"
                },
                {
                    "components": [
                        {
                            "internalType": "address[]",
                            "name": "lenders",
                            "type": "address[]"
                        },
                        {
                            "internalType": "uint256[]",
                            "name": "lendersShares",
                            "type": "uint256[]"
                        },
                        {
                            "internalType": "address[]",
                            "name": "borrowers",
                            "type": "address[]"
                        },
                        {
                            "internalType": "uint256[]",
                            "name": "borrowersShares",
                            "type": "uint256[]"
                        }
                    ],
                    "internalType": "struct LoanAssetLib.LoanParticipantInfo",
                    "name": "_loanParticipantInfo",
                    "type": "tuple"
                },
                {
                    "components": [
                        {
                            "internalType": "uint256",
                            "name": "totalAmount",
                            "type": "uint256"
                        },
                        {
                            "internalType": "uint256",
                            "name": "minimumDenomination",
                            "type": "uint256"
                        },
                        {
                            "internalType": "uint256[]",
                            "name": "spreadForBorrower",
                            "type": "uint256[]"
                        },
                        {
                            "internalType": "uint256[]",
                            "name": "interestRates",
                            "type": "uint256[]"
                        },
                        {
                            "internalType": "uint256[]",
                            "name": "repaymentsDates",
                            "type": "uint256[]"
                        }
                    ],
                    "internalType": "struct LoanAssetLib.LoanPaymentInfo",
                    "name": "_loanPaymentInfo",
                    "type": "tuple"
                }
            ],
            "stateMutability": "nonpayable",
            "type": "constructor"
        },
        {
            "inputs": [
                {
                    "internalType": "string",
                    "name": "err",
                    "type": "string"
                }
            ],
            "name": "InsufficientFunds",
            "type": "error"
        },
        {
            "inputs": [
                {
                    "internalType": "string",
                    "name": "err",
                    "type": "string"
                },
                {
                    "internalType": "address",
                    "name": "caller",
                    "type": "address"
                }
            ],
            "name": "InvalidACLBorrowerError",
            "type": "error"
        },
        {
            "inputs": [
                {
                    "internalType": "string",
                    "name": "err",
                    "type": "string"
                },
                {
                    "internalType": "address",
                    "name": "lender",
                    "type": "address"
                }
            ],
            "name": "InvalidACLLenderError",
            "type": "error"
        },
        {
            "inputs": [
                {
                    "internalType": "string",
                    "name": "err",
                    "type": "string"
                },
                {
                    "internalType": "address",
                    "name": "caller",
                    "type": "address"
                }
            ],
            "name": "InvalidACLOwnerError",
            "type": "error"
        },
        {
            "inputs": [
                {
                    "internalType": "string",
                    "name": "err",
                    "type": "string"
                },
                {
                    "internalType": "address",
                    "name": "borrower",
                    "type": "address"
                },
                {
                    "internalType": "uint256",
                    "name": "currentBorrowerStatus",
                    "type": "uint256"
                },
                {
                    "internalType": "uint256",
                    "name": "expectedBorrowerStatus",
                    "type": "uint256"
                }
            ],
            "name": "InvalidAmountRepayFromAllBorrowers",
            "type": "error"
        },
        {
            "inputs": [
                {
                    "internalType": "string",
                    "name": "err",
                    "type": "string"
                },
                {
                    "internalType": "uint256",
                    "name": "amountToFund",
                    "type": "uint256"
                }
            ],
            "name": "InvalidAmountToFund",
            "type": "error"
        },
        {
            "inputs": [
                {
                    "internalType": "string",
                    "name": "err",
                    "type": "string"
                }
            ],
            "name": "InvalidEmptyValueError",
            "type": "error"
        },
        {
            "inputs": [
                {
                    "internalType": "string",
                    "name": "err",
                    "type": "string"
                },
                {
                    "internalType": "uint256",
                    "name": "interestRate",
                    "type": "uint256"
                },
                {
                    "internalType": "uint256",
                    "name": "borrowers",
                    "type": "uint256"
                }
            ],
            "name": "InvalidLenghtInterestRateForBorrower",
            "type": "error"
        },
        {
            "inputs": [
                {
                    "internalType": "string",
                    "name": "err",
                    "type": "string"
                },
                {
                    "internalType": "uint256",
                    "name": "interestRate",
                    "type": "uint256"
                },
                {
                    "internalType": "uint256",
                    "name": "borrowers",
                    "type": "uint256"
                }
            ],
            "name": "InvalidLengthInterestRateForBorrowerError",
            "type": "error"
        },
        {
            "inputs": [
                {
                    "internalType": "string",
                    "name": "err",
                    "type": "string"
                },
                {
                    "internalType": "uint256",
                    "name": "shares",
                    "type": "uint256"
                },
                {
                    "internalType": "uint256",
                    "name": "borrowers",
                    "type": "uint256"
                }
            ],
            "name": "InvalidLengthSharesForBorrowerError",
            "type": "error"
        },
        {
            "inputs": [
                {
                    "internalType": "string",
                    "name": "err",
                    "type": "string"
                },
                {
                    "internalType": "uint256",
                    "name": "shares",
                    "type": "uint256"
                },
                {
                    "internalType": "uint256",
                    "name": "lenders",
                    "type": "uint256"
                }
            ],
            "name": "InvalidLengthSharesForLenderError",
            "type": "error"
        },
        {
            "inputs": [
                {
                    "internalType": "string",
                    "name": "err",
                    "type": "string"
                },
                {
                    "internalType": "uint256",
                    "name": "shares",
                    "type": "uint256"
                },
                {
                    "internalType": "uint256",
                    "name": "totalShares",
                    "type": "uint256"
                }
            ],
            "name": "InvalidMathRestrictionSharesBorrower",
            "type": "error"
        },
        {
            "inputs": [
                {
                    "internalType": "string",
                    "name": "err",
                    "type": "string"
                },
                {
                    "internalType": "uint256",
                    "name": "shares",
                    "type": "uint256"
                },
                {
                    "internalType": "uint256",
                    "name": "totalShares",
                    "type": "uint256"
                }
            ],
            "name": "InvalidMathRestrictionSharesLender",
            "type": "error"
        },
        {
            "inputs": [
                {
                    "internalType": "string",
                    "name": "err",
                    "type": "string"
                },
                {
                    "internalType": "uint256",
                    "name": "startDate",
                    "type": "uint256"
                },
                {
                    "internalType": "uint256",
                    "name": "maturityDate",
                    "type": "uint256"
                }
            ],
            "name": "InvalidMathRestrictionStartMaturityDateError",
            "type": "error"
        },
        {
            "inputs": [
                {
                    "internalType": "string",
                    "name": "err",
                    "type": "string"
                },
                {
                    "internalType": "address",
                    "name": "borrower",
                    "type": "address"
                },
                {
                    "internalType": "enum LoanAssetLib.RepaymentStatusEnum",
                    "name": "currentBorrowerStatus",
                    "type": "uint8"
                },
                {
                    "internalType": "enum LoanAssetLib.RepaymentStatusEnum",
                    "name": "expectedBorrowerStatus",
                    "type": "uint8"
                }
            ],
            "name": "InvalidStatusRepayFromAllBorrowers",
            "type": "error"
        },
        {
            "inputs": [
                {
                    "internalType": "string",
                    "name": "err",
                    "type": "string"
                },
                {
                    "internalType": "enum LoanAssetLib.BorrowerStatusEnum",
                    "name": "currentBorrowerStatus",
                    "type": "uint8"
                },
                {
                    "internalType": "enum LoanAssetLib.BorrowerStatusEnum",
                    "name": "expectedBorrowerStatus",
                    "type": "uint8"
                }
            ],
            "name": "InvalidValueBorrowerStatus",
            "type": "error"
        },
        {
            "inputs": [
                {
                    "internalType": "string",
                    "name": "err",
                    "type": "string"
                }
            ],
            "name": "InvalidValueError",
            "type": "error"
        },
        {
            "inputs": [
                {
                    "internalType": "string",
                    "name": "err",
                    "type": "string"
                },
                {
                    "internalType": "enum LoanAssetLib.InterestRateTypeEnum",
                    "name": "currentInterestRateType",
                    "type": "uint8"
                },
                {
                    "internalType": "enum LoanAssetLib.InterestRateTypeEnum",
                    "name": "expectedInterestRateType",
                    "type": "uint8"
                }
            ],
            "name": "InvalidValueInterestRateType",
            "type": "error"
        },
        {
            "inputs": [
                {
                    "internalType": "string",
                    "name": "err",
                    "type": "string"
                },
                {
                    "internalType": "enum LoanAssetLib.LenderStatusEnum",
                    "name": "currentLenderStatus",
                    "type": "uint8"
                },
                {
                    "internalType": "enum LoanAssetLib.LenderStatusEnum",
                    "name": "expectedLenderStatus",
                    "type": "uint8"
                }
            ],
            "name": "InvalidValueLenderStatus",
            "type": "error"
        },
        {
            "inputs": [
                {
                    "internalType": "string",
                    "name": "err",
                    "type": "string"
                },
                {
                    "internalType": "enum LoanAssetLib.LoanStatusEnum",
                    "name": "currentLoanStatus",
                    "type": "uint8"
                },
                {
                    "internalType": "enum LoanAssetLib.LoanStatusEnum",
                    "name": "expectedLoanStatus",
                    "type": "uint8"
                }
            ],
            "name": "InvalidValueLoanStatus",
            "type": "error"
        },
        {
            "inputs": [
                {
                    "internalType": "string",
                    "name": "err",
                    "type": "string"
                },
                {
                    "internalType": "enum LoanAssetLib.LoanTypeEnum",
                    "name": "loanType",
                    "type": "uint8"
                }
            ],
            "name": "InvalidValueLoanType",
            "type": "error"
        },
        {
            "inputs": [
                {
                    "internalType": "string",
                    "name": "err",
                    "type": "string"
                },
                {
                    "internalType": "uint256",
                    "name": "expectedRepaymentIndex",
                    "type": "uint256"
                },
                {
                    "internalType": "uint256",
                    "name": "repaymentIndex",
                    "type": "uint256"
                }
            ],
            "name": "InvalidValueRepaymentIndex",
            "type": "error"
        },
        {
            "inputs": [
                {
                    "internalType": "string",
                    "name": "err",
                    "type": "string"
                }
            ],
            "name": "InvalidZeroLenghtError",
            "type": "error"
        },
        {
            "inputs": [
                {
                    "internalType": "string",
                    "name": "err",
                    "type": "string"
                }
            ],
            "name": "InvalidZeroValueError",
            "type": "error"
        },
        {
            "inputs": [
                {
                    "internalType": "string",
                    "name": "err",
                    "type": "string"
                }
            ],
            "name": "PausedError",
            "type": "error"
        },
        {
            "inputs": [
                {
                    "internalType": "string",
                    "name": "err",
                    "type": "string"
                }
            ],
            "name": "ReentrancyGuardError",
            "type": "error"
        },
        {
            "inputs": [
                {
                    "internalType": "string",
                    "name": "err",
                    "type": "string"
                },
                {
                    "internalType": "enum LoanAssetLib.InterestRateTypeEnum",
                    "name": "interestRateType",
                    "type": "uint8"
                }
            ],
            "name": "UnknownValueInterestRateType",
            "type": "error"
        },
        {
            "anonymous": false,
            "inputs": [
                {
                    "indexed": true,
                    "internalType": "address",
                    "name": "sender",
                    "type": "address"
                },
                {
                    "indexed": false,
                    "internalType": "uint256",
                    "name": "amount",
                    "type": "uint256"
                }
            ],
            "name": "FundsDepositedEvent",
            "type": "event"
        },
        {
            "anonymous": false,
            "inputs": [
                {
                    "indexed": true,
                    "internalType": "address",
                    "name": "lender",
                    "type": "address"
                },
                {
                    "indexed": false,
                    "internalType": "uint256",
                    "name": "amount",
                    "type": "uint256"
                },
                {
                    "indexed": false,
                    "internalType": "uint256",
                    "name": "totalAmount",
                    "type": "uint256"
                }
            ],
            "name": "LoanFundedEvent",
            "type": "event"
        },
        {
            "anonymous": false,
            "inputs": [
                {
                    "indexed": false,
                    "internalType": "bytes32",
                    "name": "name",
                    "type": "bytes32"
                },
                {
                    "indexed": true,
                    "internalType": "address",
                    "name": "lender",
                    "type": "address"
                },
                {
                    "indexed": false,
                    "internalType": "uint256",
                    "name": "totalAmount",
                    "type": "uint256"
                }
            ],
            "name": "LoanIssuedEvent",
            "type": "event"
        },
        {
            "anonymous": false,
            "inputs": [],
            "name": "LoanMaturedEvent",
            "type": "event"
        },
        {
            "anonymous": false,
            "inputs": [
                {
                    "indexed": true,
                    "internalType": "address",
                    "name": "borrower",
                    "type": "address"
                },
                {
                    "indexed": false,
                    "internalType": "uint256",
                    "name": "repaymentAmount",
                    "type": "uint256"
                }
            ],
            "name": "LoanRepaidEvent",
            "type": "event"
        },
        {
            "anonymous": false,
            "inputs": [],
            "name": "LoanStartedEvent",
            "type": "event"
        },
        {
            "anonymous": false,
            "inputs": [],
            "name": "Paused",
            "type": "event"
        },
        {
            "anonymous": false,
            "inputs": [
                {
                    "indexed": true,
                    "internalType": "address",
                    "name": "borrower",
                    "type": "address"
                },
                {
                    "indexed": false,
                    "internalType": "uint256",
                    "name": "repaymentAmount",
                    "type": "uint256"
                },
                {
                    "indexed": false,
                    "internalType": "uint256",
                    "name": "repaymentNumber",
                    "type": "uint256"
                }
            ],
            "name": "RepaymentPaidEvent",
            "type": "event"
        },
        {
            "anonymous": false,
            "inputs": [],
            "name": "Unpaused",
            "type": "event"
        },
        {
            "anonymous": false,
            "inputs": [
                {
                    "indexed": false,
                    "internalType": "uint256[]",
                    "name": "interestRates",
                    "type": "uint256[]"
                }
            ],
            "name": "UpdateInterestRateAndRepaymentsEvent",
            "type": "event"
        },
        {
            "inputs": [],
            "name": "CURRENCY",
            "outputs": [
                {
                    "internalType": "bytes32",
                    "name": "",
                    "type": "bytes32"
                }
            ],
            "stateMutability": "view",
            "type": "function"
        },
        {
            "inputs": [],
            "name": "INTEREST_RATE_TYPE",
            "outputs": [
                {
                    "internalType": "enum LoanAssetLib.InterestRateTypeEnum",
                    "name": "",
                    "type": "uint8"
                }
            ],
            "stateMutability": "view",
            "type": "function"
        },
        {
            "inputs": [],
            "name": "ISSUANCE_COUNTRY",
            "outputs": [
                {
                    "internalType": "bytes32",
                    "name": "",
                    "type": "bytes32"
                }
            ],
            "stateMutability": "view",
            "type": "function"
        },
        {
            "inputs": [],
            "name": "ISSUER",
            "outputs": [
                {
                    "internalType": "address",
                    "name": "",
                    "type": "address"
                }
            ],
            "stateMutability": "view",
            "type": "function"
        },
        {
            "inputs": [],
            "name": "LOAN_TYPE",
            "outputs": [
                {
                    "internalType": "enum LoanAssetLib.LoanTypeEnum",
                    "name": "",
                    "type": "uint8"
                }
            ],
            "stateMutability": "view",
            "type": "function"
        },
        {
            "inputs": [],
            "name": "MATURITY_DATE",
            "outputs": [
                {
                    "internalType": "uint256",
                    "name": "",
                    "type": "uint256"
                }
            ],
            "stateMutability": "view",
            "type": "function"
        },
        {
            "inputs": [],
            "name": "MINIMUM_DENOMINATION_PER_SHARE",
            "outputs": [
                {
                    "internalType": "uint256",
                    "name": "",
                    "type": "uint256"
                }
            ],
            "stateMutability": "view",
            "type": "function"
        },
        {
            "inputs": [],
            "name": "NAME",
            "outputs": [
                {
                    "internalType": "bytes32",
                    "name": "",
                    "type": "bytes32"
                }
            ],
            "stateMutability": "view",
            "type": "function"
        },
        {
            "inputs": [
                {
                    "internalType": "uint256",
                    "name": "",
                    "type": "uint256"
                }
            ],
            "name": "REPAYMENTS_DATES",
            "outputs": [
                {
                    "internalType": "uint256",
                    "name": "",
                    "type": "uint256"
                }
            ],
            "stateMutability": "view",
            "type": "function"
        },
        {
            "inputs": [],
            "name": "START_DATE",
            "outputs": [
                {
                    "internalType": "uint256",
                    "name": "",
                    "type": "uint256"
                }
            ],
            "stateMutability": "view",
            "type": "function"
        },
        {
            "inputs": [],
            "name": "TOTAL_AMOUNT",
            "outputs": [
                {
                    "internalType": "uint256",
                    "name": "",
                    "type": "uint256"
                }
            ],
            "stateMutability": "view",
            "type": "function"
        },
        {
            "inputs": [],
            "name": "TOTAL_REPAYMENT_NUMBER",
            "outputs": [
                {
                    "internalType": "uint256",
                    "name": "",
                    "type": "uint256"
                }
            ],
            "stateMutability": "view",
            "type": "function"
        },
        {
            "inputs": [],
            "name": "anticipatePayment",
            "outputs": [],
            "stateMutability": "payable",
            "type": "function"
        },
        {
            "inputs": [
                {
                    "internalType": "uint256",
                    "name": "",
                    "type": "uint256"
                }
            ],
            "name": "borrowers",
            "outputs": [
                {
                    "internalType": "address",
                    "name": "",
                    "type": "address"
                }
            ],
            "stateMutability": "view",
            "type": "function"
        },
        {
            "inputs": [
                {
                    "internalType": "address",
                    "name": "",
                    "type": "address"
                }
            ],
            "name": "borrowersInfo",
            "outputs": [
                {
                    "internalType": "enum LoanAssetLib.BorrowerStatusEnum",
                    "name": "status",
                    "type": "uint8"
                },
                {
                    "internalType": "uint256",
                    "name": "shares",
                    "type": "uint256"
                },
                {
                    "internalType": "uint256",
                    "name": "spread",
                    "type": "uint256"
                }
            ],
            "stateMutability": "view",
            "type": "function"
        },
        {
            "inputs": [
                {
                    "internalType": "address",
                    "name": "",
                    "type": "address"
                }
            ],
            "name": "borrowersOutstandingPrincipals",
            "outputs": [
                {
                    "internalType": "uint256",
                    "name": "outstandingPrincipalAmount",
                    "type": "uint256"
                },
                {
                    "internalType": "uint256",
                    "name": "nextRepaymentIndex",
                    "type": "uint256"
                },
                {
                    "internalType": "uint256",
                    "name": "anticipatedRepaymentAmount",
                    "type": "uint256"
                }
            ],
            "stateMutability": "view",
            "type": "function"
        },
        {
            "inputs": [
                {
                    "internalType": "address",
                    "name": "",
                    "type": "address"
                },
                {
                    "internalType": "uint256",
                    "name": "",
                    "type": "uint256"
                }
            ],
            "name": "borrowersRepayments",
            "outputs": [
                {
                    "internalType": "uint256",
                    "name": "paymentDate",
                    "type": "uint256"
                },
                {
                    "internalType": "uint256",
                    "name": "interestRate",
                    "type": "uint256"
                },
                {
                    "internalType": "enum LoanAssetLib.RepaymentStatusEnum",
                    "name": "status",
                    "type": "uint8"
                }
            ],
            "stateMutability": "view",
            "type": "function"
        },
        {
            "inputs": [],
            "name": "calculateNextRepaymentAmount",
            "outputs": [
                {
                    "internalType": "uint256",
                    "name": "",
                    "type": "uint256"
                }
            ],
            "stateMutability": "view",
            "type": "function"
        },
        {
            "inputs": [],
            "name": "calculatePrincipalAmount",
            "outputs": [
                {
                    "internalType": "uint256",
                    "name": "",
                    "type": "uint256"
                }
            ],
            "stateMutability": "view",
            "type": "function"
        },
        {
            "inputs": [],
            "name": "currentLoanStatus",
            "outputs": [
                {
                    "internalType": "enum LoanAssetLib.LoanStatusEnum",
                    "name": "",
                    "type": "uint8"
                }
            ],
            "stateMutability": "view",
            "type": "function"
        },
        {
            "inputs": [],
            "name": "depositFunds",
            "outputs": [],
            "stateMutability": "payable",
            "type": "function"
        },
        {
            "inputs": [
                {
                    "internalType": "address",
                    "name": "borrower",
                    "type": "address"
                }
            ],
            "name": "disableAnticipatePayment",
            "outputs": [],
            "stateMutability": "nonpayable",
            "type": "function"
        },
        {
            "inputs": [
                {
                    "internalType": "address",
                    "name": "_borrower",
                    "type": "address"
                },
                {
                    "internalType": "uint256",
                    "name": "_totalAmountToAnticipate",
                    "type": "uint256"
                }
            ],
            "name": "enableAnticipatePayment",
            "outputs": [],
            "stateMutability": "nonpayable",
            "type": "function"
        },
        {
            "inputs": [
                {
                    "internalType": "uint256",
                    "name": "",
                    "type": "uint256"
                }
            ],
            "name": "lenders",
            "outputs": [
                {
                    "internalType": "address",
                    "name": "",
                    "type": "address"
                }
            ],
            "stateMutability": "view",
            "type": "function"
        },
        {
            "inputs": [
                {
                    "internalType": "address",
                    "name": "",
                    "type": "address"
                }
            ],
            "name": "lendersInfo",
            "outputs": [
                {
                    "internalType": "enum LoanAssetLib.LenderStatusEnum",
                    "name": "status",
                    "type": "uint8"
                },
                {
                    "internalType": "uint256",
                    "name": "shares",
                    "type": "uint256"
                }
            ],
            "stateMutability": "view",
            "type": "function"
        },
        {
            "inputs": [],
            "name": "pause",
            "outputs": [],
            "stateMutability": "nonpayable",
            "type": "function"
        },
        {
            "inputs": [],
            "name": "payPrincipal",
            "outputs": [],
            "stateMutability": "payable",
            "type": "function"
        },
        {
            "inputs": [
                {
                    "internalType": "uint256",
                    "name": "repaymentIndex",
                    "type": "uint256"
                }
            ],
            "name": "payRepayment",
            "outputs": [],
            "stateMutability": "payable",
            "type": "function"
        },
        {
            "inputs": [
                {
                    "internalType": "address",
                    "name": "borrower",
                    "type": "address"
                }
            ],
            "name": "setDefault",
            "outputs": [],
            "stateMutability": "nonpayable",
            "type": "function"
        },
        {
            "inputs": [],
            "name": "setLoanClosed",
            "outputs": [],
            "stateMutability": "nonpayable",
            "type": "function"
        },
        {
            "inputs": [],
            "name": "setLoanMatured",
            "outputs": [],
            "stateMutability": "nonpayable",
            "type": "function"
        },
        {
            "inputs": [],
            "name": "setLoanStart",
            "outputs": [],
            "stateMutability": "nonpayable",
            "type": "function"
        },
        {
            "inputs": [],
            "name": "unpause",
            "outputs": [],
            "stateMutability": "nonpayable",
            "type": "function"
        },
        {
            "inputs": [
                {
                    "internalType": "uint256[]",
                    "name": "_interestRates",
                    "type": "uint256[]"
                }
            ],
            "name": "updateInterestRateAndRepayments",
            "outputs": [],
            "stateMutability": "nonpayable",
            "type": "function"
        },
        {
            "inputs": [],
            "name": "withdrawFunds",
            "outputs": [],
            "stateMutability": "nonpayable",
            "type": "function"
        }
    ],
    "bytecode": "6101e060405234620010d9576200347380380390816200001f81620010fd565b91823980828101036101208112620010d95760e013620010d9576040519160e083016001600160401b03811184821017620008cf5760405281518352602082015160208401526040820151604084015260608201516002811015620010d957606084015260808201516002811015620010d957608084015260a0828101519084015260c0808301519084015260e0820151906001600160401b038211620010d95760808284018285010312620010d95760405191608083016001600160401b03811184821017620008cf57604052838101516001600160401b038111620010d957620001139083860190838701016200113b565b8352838101602001516001600160401b038111620010d9576200013e908386019083870101620011af565b6020840152838101604001516001600160401b038111620010d9576200016c9083860190838701016200113b565b604084015283810160600151906001600160401b038211620010d9576200019a9183860191860101620011af565b6060830152610100830151926001600160401b038411620010d95760a08482018383010312620010d957604051936001600160401b0360a0860190811190861117620008cf5760a085016040908152828201805187526020808201519088015201516001600160401b038111620010d9576200021e908484019083850101620011af565b6040860152818101606001516001600160401b038111620010d9576200024c908484019083850101620011af565b606086015281810160800151906001600160401b038211620010d95762000278938301920101620011af565b60808301528251156200108157602083015115620010155760408301511562000fb95760a08301514281111562000f5d575060c08301514281111562000efe575060a083015160c08401518082101562000e9b57505081511562000e455760208201511562000de757620002f382516020840151906200120c565b62000d7b576040810151511562000d29576040810151516060820151519081810362000ccd5750508051511562000c7c578051516020820151519081810362000c2a57505060408201515160408201515180820362000bce57505060608201515160408201515180820362000b6a5750506080820151511562000b115733608052825160a052602083015160c052604083015160e05281516101005260a08301516101205260c0830151610140526060830151620003b1816200122b565b610160526080830151620003c5816200122b565b61018052608082018051516101c05260208301516101a0525151915f5b83811062000ae957508151515f5b818110620009a7575050604082015151935f5b858110620005535760ff195f54165f5560a0517f49acfc68157e7387cc4ecb6a56cfeb67c008a572e05217836e6015874960b02f604060018060a01b0360805116926101005182519182526020820152a26040516121dc90816200129782396080518181816101c40152818161043a015281816106d701528181610de20152818161110c0152818161120001528181611241015281816112b20152818161187d0152611abb015260a05181610cdf015260c05181610bdc015260e051816103a40152610100518181816105770152610d190152610120518161172b0152610140518181816104ff01526112fa0152610160518181816110bc015281816114ad0152611fa20152610180518181816107390152610c9c01526101a051818181610d5301526118ca01526101c05181818161082b01528181610851015281816111c8015281816114310152611fdb0152f35b60408401516001600160a01b03906200056e90839062001236565b51166200058082606087015162001236565b519081156200094f57620005a66200059a8387516200124b565b6020870151906200120c565b620008e35760035468010000000000000000811015620008cf576001810180600355811015620008415760035f527fc2575a0e9e593c00f959f8c92f12db2869c3395a3b0502d05e2516446f71f85b0180546001600160a01b0319168217905560408501516200061890849062001236565b5162000623620010dd565b90600282528360208301526040820152815f52600460205260405f209080516006811015620007805760029160409160ff801986541691161784556020810151600185015501519101556101a0519082828102048203620008bb576002916200068b620010dd565b93028352602083016001815260408401915f83525f52600760205260405f2093518455516001840155519101556080820151620006c8816200122b565b620006d3816200122b565b62000794575f5b858110620006ee57506001905b0162000403565b6200071b6200070282608087015162001236565b516200071384606088015162001236565b519062001261565b9060018060a01b036200073384604089015162001236565b51165f52600660205260405f20815f526020526040805f209280518455602081015160018501550151600381101562000780576002600193019060ff8019835416911617905501620006da565b634e487b7160e01b5f52602160045260245ffd5b60016080830151620007a6816200122b565b620007b1816200122b565b036200085557608083015180511562000841576020620007dd9101516200071383606087015162001236565b9060018060a01b03620007f582604088015162001236565b51165f52600660205260405f205f805260205260406002815f20845181556020850151600182015501920151916003831015620007805760019260ff80198354169116179055620006e7565b634e487b7160e01b5f52603260045260245ffd5b6084608083015162000867816200122b565b6040519063023953af60e51b825260406004830152601b60448301527f556e6b6e6f776e20696e746572657374207261746520747970652e00000000006064830152620008b4816200122b565b6024820152fd5b634e487b7160e01b5f52601160045260245ffd5b634e487b7160e01b5f52604160045260245ffd5b60405163fb9d993560e01b815260206004820152603660248201527f536861726573206d7573742062652061206d756c7469706c65206f662074686560448201527f206d696e696d756d2064656e6f6d696e6174696f6e2e000000000000000000006064820152608490fd5b60405163099b6f8d60e11b815260206004820152602960248201527f426f72726f776572207368617265206d757374206265206772656174657220746044820152683430b7103d32b9379760b91b6064820152608490fd5b83516001600160a01b0390620009bf90839062001236565b511690620009d281602087015162001236565b51801562000a9357620009eb6200059a8287516200124b565b620008e357600192835468010000000000000000811015620008cf5784810180865581101562000841575f858152602090200180546001600160a01b031916821790556040805192908301916001600160401b03831184841017620008cf578592604052828452602084019182525f52600260205260405f20925162000a718162001256565b62000a7c8162001256565b60ff801985541691161783555191015501620003f0565b60405163099b6f8d60e11b815260206004820152602760248201527f4c656e646572207368617265206d75737420626520677265617465722074686160448201526637103d32b9379760c91b6064820152608490fd5b8062000afc600192608085015162001236565b51815f52600560205260405f205501620003e2565b6040516306cfa14d60e01b815260206004820152602a60248201527f52657061796d656e74206461746573206d7573742062652067726561746572206044820152693a3430b7103d32b9379760b11b6064820152608490fd5b60c4925060405191639dbdf7d760e01b835260606004840152602960648401527f4d69736d6174636820696e20626f72726f7765727320616e6420696e7465726560848401526839ba103930ba32b99760b91b60a484015260248301526044820152fd5b60c492506040519163cb8c6ef960e01b835260606004840152602160648401527f4d69736d6174636820696e20626f72726f7765727320616e64207370726561646084840152601760f91b60a484015260248301526044820152fd5b60a4925060405191636763dda560e01b835260606004840152601f60648401527f4d69736d6174636820696e206c656e6465727320616e64207368617265732e00608484015260248301526044820152fd5b6040516306cfa14d60e01b815260206004820152602260248201527f4c656e64657273206d7573742062652067726561746572207468616e207a6572604482015261379760f11b6064820152608490fd5b60c49250604051916327eb433760e01b835260606004840152602160648401527f4d69736d6174636820696e20626f72726f7765727320616e64207368617265736084840152601760f91b60a484015260248301526044820152fd5b6040516306cfa14d60e01b8152602060048201526024808201527f426f72726f77657273206d7573742062652067726561746572207468616e207a60448201526332b9379760e11b6064820152608490fd5b60405163fb9d993560e01b815260206004820152603c60248201527f546f74616c20616d6f756e74206d7573742062652061206d756c7469706c652060448201527f6f6620746865206d696e696d756d2064656e6f6d696e6174696f6e2e000000006064820152608490fd5b60405163099b6f8d60e11b815260206004820152602f60248201527f4d696e696d756d2064656e6f6d696e6174696f6e206d7573742062652067726560448201526e30ba32b9103a3430b7103d32b9379760891b6064820152608490fd5b60405163099b6f8d60e11b815260206004820152602760248201527f546f74616c20616d6f756e74206d75737420626520677265617465722074686160448201526637103d32b9379760c91b6064820152608490fd5b60c4925060405191635058917d60e01b835260606004840152602860648401527f53746172742064617465206d757374206265206265666f7265206d61747572696084840152673a3c903230ba329760c11b60a484015260248301526044820152fd5b60c49060405190635058917d60e01b825260606004830152602460648301527f4d617475726974792064617465206d75737420626520696e20746865206675746084830152633ab9329760e11b60a48301526024820152426044820152fd5b60c49060405190635058917d60e01b825260606004830152602160648301527f53746172742064617465206d75737420626520696e20746865206675747572656084830152601760f91b60a48301526024820152426044820152fd5b604051634ef7d6ed60e01b815260206004820152602d60248201527f43757272656e6379206d75737420626520646966666572656e742066726f6d2060448201526c32b6b83a3c9039ba3934b7339760991b6064820152608490fd5b604051634ef7d6ed60e01b815260206004820152603560248201527f49737375616e636520636f756e747279206d757374206265206469666665726560448201527f6e742066726f6d20656d70747920737472696e672e00000000000000000000006064820152608490fd5b604051634ef7d6ed60e01b815260206004820152602960248201527f4e616d65206d75737420626520646966666572656e742066726f6d20656d70746044820152683c9039ba3934b7339760b91b6064820152608490fd5b5f80fd5b60405190606082016001600160401b03811183821017620008cf57604052565b6040519190601f01601f191682016001600160401b03811183821017620008cf57604052565b6001600160401b038111620008cf5760051b60200190565b9080601f83011215620010d957815190620011606200115a8362001123565b620010fd565b9182938184526020808095019260051b820101928311620010d9578301905b8282106200118e575050505090565b81516001600160a01b0381168103620010d95781529083019083016200117f565b9080601f83011215620010d957815190620011ce6200115a8362001123565b9182938184526020808095019260051b820101928311620010d9578301905b828210620011fc575050505090565b81518152908301908301620011ed565b811562001217570690565b634e487b7160e01b5f52601260045260245ffd5b600211156200078057565b8051821015620008415760209160051b010190565b811562001217570490565b600411156200078057565b905f60406200126f620010dd565b828152826020820152015262001284620010dd565b9182526020820152600160408201529056fe6080806040526004361015610012575f80fd5b5f3560e01c90816301798e6714611aa05750806301ddea91146119815780631789e8261461186357806324600fc31461174e578063372c65331461171457806337837f47146113da57806339889be3146113bf5780633cfcca9d146112a05780633f4ba83a1461122f5780634339b421146111eb578063525fec19146111b157806360a2bef3146110e8578063616693d8146110a857806367dad90714610e875780637924d93f14610e455780638456cb5914610dd0578063929eea2114610d7657806395714fd614610d3c578063a2d7f5e314610d02578063a3f4df7e14610cc8578063a50ff1bb14610c88578063a74c7b7214610c65578063ab94290214610bff578063b639494314610bc5578063c56e4a8914610b6a578063c781197914610b1d578063c8395e8a14610af5578063cdd27fac14610acb578063cf9ae0c314610682578063e2c41dbc14610522578063e593bd74146104e8578063e823d5cf14610416578063f069e44d146103c7578063f53612191461038d5763fe93eb041461019d575f80fd5b34610389576040366003190112610389576101b6611c53565b602435906001600160a01b037f00000000000000000000000000000000000000000000000000000000000000008116330361036e5760ff5f54166101f981611cb5565b600181036103515750811690815f52600460205260ff60405f205416600681101561033d5760020361031c575081156102b8575f52600760205260405f2080541561025d5760020155335f908152600460205260409020805460ff19166005179055005b60405163099b6f8d60e11b815260206004820152602c60248201527f4e6f206f75747374616e64696e67207072696e636970616c20616d6f756e742060448201526b3632b33a103a37903830bc9760a11b6064820152608490fd5b60405163099b6f8d60e11b815260206004820152603560248201527f546f74616c20616d6f756e7420746f20616e7469636970617465206d7573742060448201527431329033b932b0ba32b9103a3430b7103d32b9379760591b6064820152608490fd5b6040516305ee3fdf60e41b81529081906103399060048301611e22565b0390fd5b634e487b7160e01b5f52602160045260245ffd5b6040516318b4c7e760e11b81529081906103399060048301611dca565b604051632862fafd60e11b8152806103393360048301611d00565b5f80fd5b34610389575f3660031901126103895760206040517f00000000000000000000000000000000000000000000000000000000000000008152f35b34610389576020366003190112610389576001600160a01b036103e8611c53565b165f526007602052606060405f20805490600260018201549101549060405192835260208301526040820152f35b346103895760203660031901126103895761042f611c53565b6001600160a01b03907f00000000000000000000000000000000000000000000000000000000000000008216330361036e5716805f52600460205260ff60405f205416600681101561033d5760020361049c575f52600460205260405f20600460ff198254161790555f80f35b608490604051906305ee3fdf60e41b825260406004830152601860448301527f426f72726f776572206973206e6f7420656e61626c65642e000000000000000060648301526024820152fd5b34610389575f3660031901126103895760206040517f00000000000000000000000000000000000000000000000000000000000000008152f35b5f36600319011261038957335f526002602052600160ff60405f20541661054881611cb5565b036106625760ff5f541661055b81611cb5565b8061064557335f526002602052606461059c600160405f2001547f000000000000000000000000000000000000000000000000000000000000000090611d7e565b0434036105e857335f52600260205260405f20600260ff198254161790556040513481527f9fd1f086169d30d7daab8b193610aa292d1f19446760212b4d8a32c99c6721cd60203392a2005b60a460405163cf1452b560e01b815260406004820152602960448201527f4465706f73697420616d6f756e74206d757374206265206772656174657220746064820152683430b7103d32b9379760b91b6084820152346024820152fd5b6040516318b4c7e760e11b81529081906103399060048301611d25565b60405162461bcd60e51b8152602060048201528061033960248201611cbf565b346103895760203660031901126103895767ffffffffffffffff806004351161038957366023600435011215610389576004356004013511610389573660246004356004013560051b600435010111610389577f00000000000000000000000000000000000000000000000000000000000000006001600160a01b0316330361036e5760ff5f541661071381611cb5565b60018103610a74576004356004013515610a18576003548060043560040135036109af577f000000000000000000000000000000000000000000000000000000000000000061076181611c69565b6001810361092057505f5b8181106107e05760405160208082526004803501359082018190526001600160fb1b0310610389577f6360badf65e02a0d459c3b753b21e899621f3854fb6089d0044d24d2cfa6839e906004356004013560051b60246004350160408301376040816004356004013560051b8101030190a1005b6107e981611c73565b60018060a01b0391549060031b1c1690815f52600760205261084f60405f20610810611d91565b815481526040600260018401549384602085015201549101527f0000000000000000000000000000000000000000000000000000000000000000611db1565b7f000000000000000000000000000000000000000000000000000000000000000081101561091457805f52600560205260405f2054600435600401358310156109005760029161089d611d91565b918252602082019060248560051b60043501013582526040830195600187525f52600660205260405f20905f5260205260405f209151825551600182015501915191600383101561033d5760019260ff8019835416911617905501905b9061076c565b634e487b7160e01b5f52603260045260245ffd5b506001915001906108fa565b6040516333d4c68760e21b815260606004820152604560648201527f496e74657265737420726174652074797065206d75737420626520666c6f617460848201527f696e6720696e206f7264657220746f2075706461746520696e7465726573742060a4820152643930ba329760d91b60c482015260e4916109a181611c69565b602482015260016044820152fd5b60c4906040519063cb8c6ef960e01b825260606004830152602860648301527f4d69736d6174636820696e20696e746572657374207261746520616e6420626f608483015267393937bbb2b9399760c11b60a48301526004356004013560248301526044820152fd5b6040516306cfa14d60e01b815260206004820152602d60248201527f496e746572657374206c656e677468204952206d75737420626520677265617460448201526c32b9103a3430b7103d32b9379760991b6064820152608490fd5b6040516318b4c7e760e11b815260606004820152602160648201527f4c6f616e206973206e6f7420696e207072656c696d696e6172792073746174656084820152602160f81b60a482015260c4916109a181611cb5565b34610389576020366003190112610389576004355f526005602052602060405f2054604051908152f35b34610389575f36600319011261038957602060ff5f541660405190610b1981611cb5565b8152f35b34610389576020366003190112610389576001600160a01b03610b3e611c53565b165f5260026020526040805f20600160ff825416910154825191610b6181611cb5565b82526020820152f35b34610389576020366003190112610389576001600160a01b03610b8b611c53565b165f52600460205260405f2060ff815416906002600182015491015460405191600684101561033d57606093835260208301526040820152f35b34610389575f3660031901126103895760206040517f00000000000000000000000000000000000000000000000000000000000000008152f35b34610389576040366003190112610389576001600160a01b03610c20611c53565b165f52600660205260405f206024355f52602052606060405f20610c6381549160ff60026001830154920154169060405193845260208401526040830190611ca8565bf35b34610389575f366003190112610389576020610c80336120bf565b604051908152f35b34610389575f3660031901126103895760207f000000000000000000000000000000000000000000000000000000000000000060405190610b1981611c69565b34610389575f3660031901126103895760206040517f00000000000000000000000000000000000000000000000000000000000000008152f35b34610389575f3660031901126103895760206040517f00000000000000000000000000000000000000000000000000000000000000008152f35b34610389575f3660031901126103895760206040517f00000000000000000000000000000000000000000000000000000000000000008152f35b34610389576020366003190112610389576004356001548110156103895760015f527fb10e2d527612073b26eecdfd717e6a320cf44b4afac2b0732d9fcbe2b7fa0cf601546040516001600160a01b039091168152602090f35b34610389575f366003190112610389577f00000000000000000000000000000000000000000000000000000000000000006001600160a01b0316330361036e5761010061ff001960085416176008557f9e87fac88ff661f02d44f95383c817fece4bce600a3dab7a54406878b965e7525f80a1005b346103895760203660031901126103895760043560035481101561038957610e6e602091611c73565b905460405160039290921b1c6001600160a01b03168152f35b5f3660031901126103895760085460ff811661106257600160ff1980921617600855335f5260206004815260ff60405f205416600681101561033d576002036110475760ff5f5416610ed881611cb5565b60028103610ff55750610eea336120bf565b15610f9f57335f526007815260405f2080548015610f9f573403610f5b576001815f8093550155335f526004815260405f206003838254161790557fe1c095a926435ee6d7886d9bcfb375c1378aba1311e21f624834c84c2bccfb90604051913483523392a2600854166008555f80f35b6064826040519063fb9d993560e01b825280600483015260248201527f496e636f7272656374207072696e636970616c20616d6f756e742073656e742e6044820152fd5b60405163099b6f8d60e11b815260206004820152602760248201527f4e6f206f75747374616e64696e67207072696e636970616c20616d6f756e74206044820152663a37903830bc9760c91b6064820152608490fd5b6040516318b4c7e760e11b81526060600482015260146064820152732637b0b71034b9903737ba1036b0ba3ab932b21760611b608482015260a49161103981611cb5565b602482015260026044820152fd5b6040516305ee3fdf60e41b8152806103393360048301611d00565b604051632bb29e1d60e21b815260206004820152601f60248201527f5265656e7472616e637947756172643a207265656e7472616e742063616c6c006044820152606490fd5b34610389575f3660031901126103895760207f000000000000000000000000000000000000000000000000000000000000000060405190610b1981611c69565b3461038957602036600319011261038957611101611c53565b6001600160a01b03907f00000000000000000000000000000000000000000000000000000000000000008216330361036e5760ff5f541661114181611cb5565b600181036103515750335f52600460205260ff60405f205416600681101561033d5760050361119657165f5260076020525f6002604082200155335f52600460205260405f20600260ff198254161790555f80f35b6040516305ee3fdf60e41b8152806103393360048301611e22565b34610389575f3660031901126103895760206040517f00000000000000000000000000000000000000000000000000000000000000008152f35b34610389575f366003190112610389576040517f00000000000000000000000000000000000000000000000000000000000000006001600160a01b03168152602090f35b34610389575f366003190112610389577f00000000000000000000000000000000000000000000000000000000000000006001600160a01b0316330361036e5761ff0019600854166008557fa45f47fdea8a1efdd9029a5691c7f759c32b7c698632b563573e155625d169335f80a1005b34610389575f366003190112610389577f00000000000000000000000000000000000000000000000000000000000000006001600160a01b0316330361036e575f5460ff81166112ef81611cb5565b600181036113a257507f00000000000000000000000000000000000000000000000000000000000000008042106113505760028260ff1916175f557fb1db5bcbc9a43371cacff81873d6d36def2657648483dcc6e9c54bb17e5a98a45f80a1005b60a49060405190635058917d60e01b825260606004830152601960648301527f4c6f616e20686173206e6f74206d617475726564207965742e0000000000000060848301524260248301526044820152fd5b6040516318b4c7e760e11b81529081906103399060048301611e80565b34610389575f366003190112610389576020610c8033611ed4565b602080600319360112610389576008549060043560ff8316611062576001918260ff1980951617600855335f526004815260ff60405f205416600681101561033d5760020361104757335f526007815260405f20927f0000000000000000000000000000000000000000000000000000000000000000808410156116c25750335f526006825260405f20835f52825260405f2090600282019160ff835416600381101561033d578281036116565750544281116115f3575061149b33611ed4565b948515611598578534036115545781907f00000000000000000000000000000000000000000000000000000000000000006114d581611c69565b8214611542575b019081545f19811461152e570190556002858254161790556040519283528201527f400023aee8932395c7b86208735ec638dd940bb9d900452ad3875686e8e92d7860403392a2600854166008555f80f35b634e487b7160e01b5f52601160045260245ffd5b61154d878254611db1565b81556114dc565b6064846040519063fb9d993560e01b825280600483015260248201527f496e636f72726563742072657061796d656e7420616d6f756e742073656e742e6044820152fd5b60405163099b6f8d60e11b815260048101859052602c60248201527f52657061796d656e74206d75737420626520646566696e6564206265666f726560448201526b103132b4b733903830b4b21760a11b6064820152608490fd5b60c49060405190635058917d60e01b825260606004830152602860648301527f52657061796d656e74206461746520686173206e6f74206265656e20726561636084830152673432b2103cb2ba1760c11b60a48301526024820152426044820152fd5b604051630b4b77dd60e21b815260806004820152602260848201527f52657061796d656e74206973206e6f7420696e2073746174757320756e70616960a482015261321760f11b60c482015233602482015260e49184906116bb906044840190611ca8565b6064820152fd5b60a4908460405191632407ea4d60e11b835260606004840152601960648401527f496e76616c69642072657061796d656e74206e756d6265722e00000000000000608484015260248301526044820152fd5b34610389575f3660031901126103895760206040517f00000000000000000000000000000000000000000000000000000000000000008152f35b34610389575f3660031901126103895760085460ff811661106257600160ff1980921617600855335f526002602052600160ff60405f20541661179081611cb5565b03610662575f80808060646117b5473384526002602052600160408520015490611d7e565b04335af13d1561185e5767ffffffffffffffff3d81811161184a5760405191601f8201601f19908116603f011683019081118382101761184a5760405281525f60203d92013e5b1561180c57600854166008555f80f35b60846040516305ee3fdf60e41b815260406004820152601060448201526f2a3930b739b332b9103330b4b632b21760811b6064820152336024820152fd5b634e487b7160e01b5f52604160045260245ffd5b6117fc565b34610389575f366003190112610389576001600160a01b037f00000000000000000000000000000000000000000000000000000000000000008116330361036e575f549060ff82166118b481611cb5565b8061064557506001809260ff1916175f555f90827f0000000000000000000000000000000000000000000000000000000000000000905b611916575b7fcc8e63a11a79470a56cd347a85d37fa00cf3da532e3a309b2ceb10d4f377d6255f80a1005b6003805484101561197b575f808085819461193089611c73565b9054911b1c16808252600460205261194e868a604085200154611d7e565b90828215611972575bf1156119675783809301926118eb565b6040513d5f823e3d90fd5b506108fc611957565b506118f0565b5f3660031901126103895760085460ff81166110625760ff199081166001176008555f5460ff166119b181611cb5565b600181036113a25750335f52600460205260ff60405f205416600681101561033d5760050361119657335f52600760205260405f20600281015490813410611a48576001815f8093550155335f52600460205260405f206003838254161790556040519081527fe1c095a926435ee6d7886d9bcfb375c1378aba1311e21f624834c84c2bccfb9060203392a2600854166008555f80f35b604051633e49f6c360e21b815260206004820152602960248201527f496e73756666696369656e742066756e647320746f20616e7469636970617465604482015268103830bcb6b2b73a1760b91b6064820152608490fd5b34610389575f366003190112610389576001600160a01b03907f000000000000000000000000000000000000000000000000000000000000000082163303611c3b57505f5460ff8116611af281611cb5565b60028103611be157506003918254905f5b828110611b165750505060ff1916175f55005b81611b2082611c73565b905490871b1c165f526007602081815260405f2054611b43575050600101611b03565b8387611b6160e496611b5487611c73565b905490841b1c1695611c73565b9054911b1c165f525260405f20546040519163b75c4d4b60e01b835260806004840152603560848401527f416c6c20626f72726f77657273206d7573742070617920616c6c20726570617960a48401527436b2b73a39903132b337b9329031b637b9b4b7339760591b60c4840152602483015260448201525f6064820152fd5b6040516318b4c7e760e11b815260606004820152602460648201527f4c6f616e206d757374206265206d617475726564206265666f726520636c6f7360848201526334b7339760e11b60a482015260c49161103981611cb5565b632862fafd60e11b8152806103393360048301611d00565b600435906001600160a01b038216820361038957565b6002111561033d57565b6003548110156109005760035f527fc2575a0e9e593c00f959f8c92f12db2869c3395a3b0502d05e2516446f71f85b01905f90565b90600382101561033d5752565b6004111561033d57565b602881527f4f6e6c7920746865206c656e6465722063616e20706572666f726d20746869736020820152671030b1ba34b7b71760c11b604082015260600190565b919091604081526020611d1560408301611cbf565b6001600160a01b03909416910152565b60405f9193929360608152602160608201527f4c6f616e206973206e6f7420696e207072656c696d696e6172792073746174656080820152602160f81b60a082015260c0810194611d7581611cb5565b60208201520152565b8181029291811591840414171561152e57565b604051906060820182811067ffffffffffffffff82111761184a57604052565b9190820391821161152e57565b600382101561033d5752565b604060019193929360608152602860608201527f4c6f616e206d757374206265206c69766520746f20616e7469636970617465206080820152673830bcb6b2b73a1760c11b60a082015260c0810194611d7581611cb5565b6040808252602e908201527f426f72726f776572206973206e6f7420656e61626c656420746f20616e74696360608201526d34b830ba32903830bcb6b2b73a1760911b60808201526001600160a01b03909116602082015260a00190565b604060019193929360608152601e60608201527f4c6f616e206d757374206265206c69766520746f20636c6f73652069742e0000608082015260a0810194611d7581611cb5565b9190820180921161152e57565b6001600160a01b03165f818152600760209081526040808320929493909290611efb611d91565b928254845260026001840154938286019485520154858501528187526006815284872083518852815284872091611f52611f33611d91565b845481528760ff60026001880154978785019889520154169101611dbe565b875260048152848720611f63611d91565b9160ff82541660068110156120ab5783526001820154908301526002015490850181905283519151611f9f9291611f9991611ec7565b90611d7e565b927f0000000000000000000000000000000000000000000000000000000000000000611fca81611c69565b60018103612049575050611fff90517f0000000000000000000000000000000000000000000000000000000000000000611db1565b9060018201809211612035575181156120215761201e93945004611ec7565b90565b634e487b7160e01b85526012600452602485fd5b634e487b7160e01b85526011600452602485fd5b9250929394505061205981611c69565b8061206357505090565b608492508151916329f8e8c960e21b83526004830152601260448301527124b73b30b634b2103637b0b7103a3cb8329760711b60648301526120a481611c69565b6024820152fd5b634e487b7160e01b8a52602160045260248afd5b6001600160a01b03165f818152600760209081526040808320939290916120e4611d91565b94805486526002600182015491838801928352015484870152848352600682528383209051835281528282209361213b61211c611d91565b865481528560ff600260018a0154998785019a8b520154169101611dbe565b8252600481528282209061214d611d91565b9260ff8354169060068210156121925750926002611f999361218b969361201e99989684526001820154908401520154918291015284519251611ec7565b9051611ec7565b634e487b7160e01b81526021600452602490fdfea2646970667358221220ea6f1b0c773c20b20287bc66afc625d53ac69e0b72f149222550e90e16a605ee64736f6c63430008140033",
    "sourcePath": "d:/IntesaSanpaolo/Projects/Avalanche/avalanche-sc-hardhat/contracts/security/Draft/LoanAsset.sol",
    "compiler": {
        "name": "solc",
        "version": "0.8.20+commit.a1b79de6"
    },
    "functionHashes": {
        "CURRENCY()": "f5361219",
        "INTEREST_RATE_TYPE()": "a50ff1bb",
        "ISSUANCE_COUNTRY()": "b6394943",
        "ISSUER()": "4339b421",
        "LOAN_TYPE()": "616693d8",
        "MATURITY_DATE()": "e593bd74",
        "MINIMUM_DENOMINATION_PER_SHARE()": "95714fd6",
        "NAME()": "a3f4df7e",
        "REPAYMENTS_DATES(uint256)": "cdd27fac",
        "START_DATE()": "372c6533",
        "TOTAL_AMOUNT()": "a2d7f5e3",
        "TOTAL_REPAYMENT_NUMBER()": "525fec19",
        "anticipatePayment()": "01ddea91",
        "borrowers(uint256)": "7924d93f",
        "borrowersInfo(address)": "c56e4a89",
        "borrowersOutstandingPrincipals(address)": "f069e44d",
        "borrowersRepayments(address,uint256)": "ab942902",
        "calculateNextRepaymentAmount()": "39889be3",
        "calculatePrincipalAmount()": "a74c7b72",
        "currentLoanStatus()": "c8395e8a",
        "depositFunds()": "e2c41dbc",
        "disableAnticipatePayment(address)": "60a2bef3",
        "enableAnticipatePayment(address,uint256)": "fe93eb04",
        "lenders(uint256)": "929eea21",
        "lendersInfo(address)": "c7811979",
        "pause()": "8456cb59",
        "payPrincipal()": "67dad907",
        "payRepayment(uint256)": "37837f47",
        "setDefault(address)": "e823d5cf",
        "setLoanClosed()": "01798e67",
        "setLoanMatured()": "3cfcca9d",
        "setLoanStart()": "1789e826",
        "unpause()": "3f4ba83a",
        "updateInterestRateAndRepayments(uint256[])": "cf9ae0c3",
        "withdrawFunds()": "24600fc3"
    },
    "gasEstimates": {
        "creation": {
            "codeDepositCost": "1733600",
            "executionCost": "infinite",
            "totalCost": "infinite"
        },
        "external": {
            "CURRENCY()": "infinite",
            "INTEREST_RATE_TYPE()": "infinite",
            "ISSUANCE_COUNTRY()": "infinite",
            "ISSUER()": "infinite",
            "LOAN_TYPE()": "infinite",
            "MATURITY_DATE()": "infinite",
            "MINIMUM_DENOMINATION_PER_SHARE()": "infinite",
            "NAME()": "infinite",
            "REPAYMENTS_DATES(uint256)": "2915",
            "START_DATE()": "infinite",
            "TOTAL_AMOUNT()": "infinite",
            "TOTAL_REPAYMENT_NUMBER()": "infinite",
            "anticipatePayment()": "infinite",
            "borrowers(uint256)": "6903",
            "borrowersInfo(address)": "7222",
            "borrowersOutstandingPrincipals(address)": "7367",
            "borrowersRepayments(address,uint256)": "7286",
            "calculateNextRepaymentAmount()": "infinite",
            "calculatePrincipalAmount()": "infinite",
            "currentLoanStatus()": "2890",
            "depositFunds()": "infinite",
            "disableAnticipatePayment(address)": "infinite",
            "enableAnticipatePayment(address,uint256)": "infinite",
            "lenders(uint256)": "4775",
            "lendersInfo(address)": "5138",
            "pause()": "infinite",
            "payPrincipal()": "infinite",
            "payRepayment(uint256)": "infinite",
            "setDefault(address)": "infinite",
            "setLoanClosed()": "infinite",
            "setLoanMatured()": "infinite",
            "setLoanStart()": "infinite",
            "unpause()": "infinite",
            "updateInterestRateAndRepayments(uint256[])": "infinite",
            "withdrawFunds()": "infinite"
        },
        "internal": {
            "_calculateNextRepaymentAmountByBorrower(address)": "infinite",
            "_calculatePrincipalAmountByBorrower(address)": "infinite",
            "_createNextRepayment(uint256,uint256)": "infinite"
        }
    }
}