{
    "contractName": "LoanAsset",
    "abi": [
        {
            "inputs": [
                {
                    "components": [
                        {
                            "internalType": "bytes32",
                            "name": "name",
                            "type": "bytes32"
                        },
                        {
                            "internalType": "bytes32",
                            "name": "issuanceCountry",
                            "type": "bytes32"
                        },
                        {
                            "internalType": "bytes32",
                            "name": "currency",
                            "type": "bytes32"
                        },
                        {
                            "internalType": "enum LoanAssetLib.LoanTypeEnum",
                            "name": "loanType",
                            "type": "uint8"
                        },
                        {
                            "internalType": "enum LoanAssetLib.InterestRateTypeEnum",
                            "name": "interestRateType",
                            "type": "uint8"
                        },
                        {
                            "internalType": "uint256",
                            "name": "startDate",
                            "type": "uint256"
                        },
                        {
                            "internalType": "uint256",
                            "name": "maturityDate",
                            "type": "uint256"
                        }
                    ],
                    "internalType": "struct LoanAssetLib.LoanAnagInfo",
                    "name": "_loanAnagInfo",
                    "type": "tuple"
                },
                {
                    "components": [
                        {
                            "internalType": "address[]",
                            "name": "lenders",
                            "type": "address[]"
                        },
                        {
                            "internalType": "uint256[]",
                            "name": "lendersShares",
                            "type": "uint256[]"
                        },
                        {
                            "internalType": "address[]",
                            "name": "borrowers",
                            "type": "address[]"
                        },
                        {
                            "internalType": "uint256[]",
                            "name": "borrowersShares",
                            "type": "uint256[]"
                        }
                    ],
                    "internalType": "struct LoanAssetLib.LoanParticipantInfo",
                    "name": "_loanParticipantInfo",
                    "type": "tuple"
                },
                {
                    "components": [
                        {
                            "internalType": "uint256",
                            "name": "totalAmount",
                            "type": "uint256"
                        },
                        {
                            "internalType": "uint256",
                            "name": "minimumDenomination",
                            "type": "uint256"
                        },
                        {
                            "internalType": "uint256[]",
                            "name": "spreadForBorrower",
                            "type": "uint256[]"
                        },
                        {
                            "internalType": "uint256[]",
                            "name": "interestRates",
                            "type": "uint256[]"
                        },
                        {
                            "internalType": "uint256[]",
                            "name": "repaymentsDates",
                            "type": "uint256[]"
                        }
                    ],
                    "internalType": "struct LoanAssetLib.LoanPaymentInfo",
                    "name": "_loanPaymentInfo",
                    "type": "tuple"
                },
                {
                    "internalType": "string",
                    "name": "_ipfsDocumentationLink",
                    "type": "string"
                }
            ],
            "stateMutability": "nonpayable",
            "type": "constructor"
        },
        {
            "inputs": [
                {
                    "internalType": "string",
                    "name": "err",
                    "type": "string"
                }
            ],
            "name": "InsufficientFunds",
            "type": "error"
        },
        {
            "inputs": [
                {
                    "internalType": "string",
                    "name": "err",
                    "type": "string"
                },
                {
                    "internalType": "address",
                    "name": "caller",
                    "type": "address"
                }
            ],
            "name": "InvalidACLBorrowerError",
            "type": "error"
        },
        {
            "inputs": [
                {
                    "internalType": "string",
                    "name": "err",
                    "type": "string"
                },
                {
                    "internalType": "address",
                    "name": "lender",
                    "type": "address"
                }
            ],
            "name": "InvalidACLLenderError",
            "type": "error"
        },
        {
            "inputs": [
                {
                    "internalType": "string",
                    "name": "err",
                    "type": "string"
                },
                {
                    "internalType": "address",
                    "name": "caller",
                    "type": "address"
                }
            ],
            "name": "InvalidACLOwnerError",
            "type": "error"
        },
        {
            "inputs": [
                {
                    "internalType": "string",
                    "name": "err",
                    "type": "string"
                },
                {
                    "internalType": "address",
                    "name": "borrower",
                    "type": "address"
                },
                {
                    "internalType": "uint256",
                    "name": "currentBorrowerStatus",
                    "type": "uint256"
                },
                {
                    "internalType": "uint256",
                    "name": "expectedBorrowerStatus",
                    "type": "uint256"
                }
            ],
            "name": "InvalidAmountRepayFromAllBorrowers",
            "type": "error"
        },
        {
            "inputs": [
                {
                    "internalType": "string",
                    "name": "err",
                    "type": "string"
                },
                {
                    "internalType": "uint256",
                    "name": "amountToFund",
                    "type": "uint256"
                },
                {
                    "internalType": "uint256",
                    "name": "amountSent",
                    "type": "uint256"
                }
            ],
            "name": "InvalidAmountToFund",
            "type": "error"
        },
        {
            "inputs": [
                {
                    "internalType": "string",
                    "name": "err",
                    "type": "string"
                }
            ],
            "name": "InvalidEmptyValueError",
            "type": "error"
        },
        {
            "inputs": [
                {
                    "internalType": "string",
                    "name": "err",
                    "type": "string"
                },
                {
                    "internalType": "uint256",
                    "name": "interestRate",
                    "type": "uint256"
                },
                {
                    "internalType": "uint256",
                    "name": "borrowers",
                    "type": "uint256"
                }
            ],
            "name": "InvalidLenghtInterestRateForBorrower",
            "type": "error"
        },
        {
            "inputs": [
                {
                    "internalType": "string",
                    "name": "err",
                    "type": "string"
                },
                {
                    "internalType": "uint256",
                    "name": "interestRate",
                    "type": "uint256"
                },
                {
                    "internalType": "uint256",
                    "name": "borrowers",
                    "type": "uint256"
                }
            ],
            "name": "InvalidLengthInterestRateForBorrowerError",
            "type": "error"
        },
        {
            "inputs": [
                {
                    "internalType": "string",
                    "name": "err",
                    "type": "string"
                },
                {
                    "internalType": "uint256",
                    "name": "shares",
                    "type": "uint256"
                },
                {
                    "internalType": "uint256",
                    "name": "borrowers",
                    "type": "uint256"
                }
            ],
            "name": "InvalidLengthSharesForBorrowerError",
            "type": "error"
        },
        {
            "inputs": [
                {
                    "internalType": "string",
                    "name": "err",
                    "type": "string"
                },
                {
                    "internalType": "uint256",
                    "name": "shares",
                    "type": "uint256"
                },
                {
                    "internalType": "uint256",
                    "name": "lenders",
                    "type": "uint256"
                }
            ],
            "name": "InvalidLengthSharesForLenderError",
            "type": "error"
        },
        {
            "inputs": [
                {
                    "internalType": "string",
                    "name": "err",
                    "type": "string"
                },
                {
                    "internalType": "uint256",
                    "name": "shares",
                    "type": "uint256"
                },
                {
                    "internalType": "uint256",
                    "name": "totalShares",
                    "type": "uint256"
                }
            ],
            "name": "InvalidMathRestrictionSharesBorrower",
            "type": "error"
        },
        {
            "inputs": [
                {
                    "internalType": "string",
                    "name": "err",
                    "type": "string"
                },
                {
                    "internalType": "uint256",
                    "name": "shares",
                    "type": "uint256"
                },
                {
                    "internalType": "uint256",
                    "name": "totalShares",
                    "type": "uint256"
                }
            ],
            "name": "InvalidMathRestrictionSharesLender",
            "type": "error"
        },
        {
            "inputs": [
                {
                    "internalType": "string",
                    "name": "err",
                    "type": "string"
                },
                {
                    "internalType": "uint256",
                    "name": "startDate",
                    "type": "uint256"
                },
                {
                    "internalType": "uint256",
                    "name": "maturityDate",
                    "type": "uint256"
                }
            ],
            "name": "InvalidMathRestrictionStartMaturityDateError",
            "type": "error"
        },
        {
            "inputs": [
                {
                    "internalType": "string",
                    "name": "err",
                    "type": "string"
                },
                {
                    "internalType": "address",
                    "name": "borrower",
                    "type": "address"
                },
                {
                    "internalType": "enum LoanAssetLib.RepaymentStatusEnum",
                    "name": "currentBorrowerStatus",
                    "type": "uint8"
                },
                {
                    "internalType": "enum LoanAssetLib.RepaymentStatusEnum",
                    "name": "expectedBorrowerStatus",
                    "type": "uint8"
                }
            ],
            "name": "InvalidStatusRepayFromAllBorrowers",
            "type": "error"
        },
        {
            "inputs": [
                {
                    "internalType": "string",
                    "name": "err",
                    "type": "string"
                },
                {
                    "internalType": "enum LoanAssetLib.BorrowerStatusEnum",
                    "name": "currentBorrowerStatus",
                    "type": "uint8"
                },
                {
                    "internalType": "enum LoanAssetLib.BorrowerStatusEnum",
                    "name": "expectedBorrowerStatus",
                    "type": "uint8"
                }
            ],
            "name": "InvalidValueBorrowerStatus",
            "type": "error"
        },
        {
            "inputs": [
                {
                    "internalType": "string",
                    "name": "err",
                    "type": "string"
                }
            ],
            "name": "InvalidValueError",
            "type": "error"
        },
        {
            "inputs": [
                {
                    "internalType": "string",
                    "name": "err",
                    "type": "string"
                },
                {
                    "internalType": "enum LoanAssetLib.InterestRateTypeEnum",
                    "name": "currentInterestRateType",
                    "type": "uint8"
                },
                {
                    "internalType": "enum LoanAssetLib.InterestRateTypeEnum",
                    "name": "expectedInterestRateType",
                    "type": "uint8"
                }
            ],
            "name": "InvalidValueInterestRateType",
            "type": "error"
        },
        {
            "inputs": [
                {
                    "internalType": "string",
                    "name": "err",
                    "type": "string"
                },
                {
                    "internalType": "enum LoanAssetLib.LenderStatusEnum",
                    "name": "currentLenderStatus",
                    "type": "uint8"
                },
                {
                    "internalType": "enum LoanAssetLib.LenderStatusEnum",
                    "name": "expectedLenderStatus",
                    "type": "uint8"
                }
            ],
            "name": "InvalidValueLenderStatus",
            "type": "error"
        },
        {
            "inputs": [
                {
                    "internalType": "string",
                    "name": "err",
                    "type": "string"
                },
                {
                    "internalType": "enum LoanAssetLib.LoanStatusEnum",
                    "name": "currentLoanStatus",
                    "type": "uint8"
                },
                {
                    "internalType": "enum LoanAssetLib.LoanStatusEnum",
                    "name": "expectedLoanStatus",
                    "type": "uint8"
                }
            ],
            "name": "InvalidValueLoanStatus",
            "type": "error"
        },
        {
            "inputs": [
                {
                    "internalType": "string",
                    "name": "err",
                    "type": "string"
                },
                {
                    "internalType": "enum LoanAssetLib.LoanTypeEnum",
                    "name": "loanType",
                    "type": "uint8"
                }
            ],
            "name": "InvalidValueLoanType",
            "type": "error"
        },
        {
            "inputs": [
                {
                    "internalType": "string",
                    "name": "err",
                    "type": "string"
                },
                {
                    "internalType": "uint256",
                    "name": "expectedRepaymentIndex",
                    "type": "uint256"
                },
                {
                    "internalType": "uint256",
                    "name": "repaymentIndex",
                    "type": "uint256"
                }
            ],
            "name": "InvalidValueRepaymentIndex",
            "type": "error"
        },
        {
            "inputs": [
                {
                    "internalType": "string",
                    "name": "err",
                    "type": "string"
                }
            ],
            "name": "InvalidZeroLenghtError",
            "type": "error"
        },
        {
            "inputs": [
                {
                    "internalType": "string",
                    "name": "err",
                    "type": "string"
                }
            ],
            "name": "InvalidZeroValueError",
            "type": "error"
        },
        {
            "inputs": [
                {
                    "internalType": "string",
                    "name": "err",
                    "type": "string"
                }
            ],
            "name": "PausedError",
            "type": "error"
        },
        {
            "inputs": [
                {
                    "internalType": "string",
                    "name": "err",
                    "type": "string"
                }
            ],
            "name": "ReentrancyGuardError",
            "type": "error"
        },
        {
            "inputs": [
                {
                    "internalType": "string",
                    "name": "err",
                    "type": "string"
                },
                {
                    "internalType": "enum LoanAssetLib.InterestRateTypeEnum",
                    "name": "interestRateType",
                    "type": "uint8"
                }
            ],
            "name": "UnknownValueInterestRateType",
            "type": "error"
        },
        {
            "anonymous": false,
            "inputs": [
                {
                    "indexed": true,
                    "internalType": "address",
                    "name": "sender",
                    "type": "address"
                },
                {
                    "indexed": false,
                    "internalType": "uint256",
                    "name": "amount",
                    "type": "uint256"
                }
            ],
            "name": "FundsDepositedEvent",
            "type": "event"
        },
        {
            "anonymous": false,
            "inputs": [
                {
                    "indexed": true,
                    "internalType": "address",
                    "name": "lender",
                    "type": "address"
                },
                {
                    "indexed": false,
                    "internalType": "uint256",
                    "name": "amount",
                    "type": "uint256"
                },
                {
                    "indexed": false,
                    "internalType": "uint256",
                    "name": "totalAmount",
                    "type": "uint256"
                }
            ],
            "name": "LoanFundedEvent",
            "type": "event"
        },
        {
            "anonymous": false,
            "inputs": [
                {
                    "indexed": false,
                    "internalType": "bytes32",
                    "name": "name",
                    "type": "bytes32"
                },
                {
                    "indexed": true,
                    "internalType": "address",
                    "name": "lender",
                    "type": "address"
                },
                {
                    "indexed": false,
                    "internalType": "uint256",
                    "name": "totalAmount",
                    "type": "uint256"
                }
            ],
            "name": "LoanIssuedEvent",
            "type": "event"
        },
        {
            "anonymous": false,
            "inputs": [],
            "name": "LoanMaturedEvent",
            "type": "event"
        },
        {
            "anonymous": false,
            "inputs": [
                {
                    "indexed": true,
                    "internalType": "address",
                    "name": "borrower",
                    "type": "address"
                },
                {
                    "indexed": false,
                    "internalType": "uint256",
                    "name": "repaymentAmount",
                    "type": "uint256"
                }
            ],
            "name": "LoanRepaidEvent",
            "type": "event"
        },
        {
            "anonymous": false,
            "inputs": [],
            "name": "LoanStartedEvent",
            "type": "event"
        },
        {
            "anonymous": false,
            "inputs": [],
            "name": "Paused",
            "type": "event"
        },
        {
            "anonymous": false,
            "inputs": [
                {
                    "indexed": true,
                    "internalType": "address",
                    "name": "borrower",
                    "type": "address"
                },
                {
                    "indexed": false,
                    "internalType": "uint256",
                    "name": "repaymentAmount",
                    "type": "uint256"
                },
                {
                    "indexed": false,
                    "internalType": "uint256",
                    "name": "repaymentNumber",
                    "type": "uint256"
                }
            ],
            "name": "RepaymentPaidEvent",
            "type": "event"
        },
        {
            "anonymous": false,
            "inputs": [],
            "name": "Unpaused",
            "type": "event"
        },
        {
            "anonymous": false,
            "inputs": [
                {
                    "indexed": false,
                    "internalType": "uint256[]",
                    "name": "interestRates",
                    "type": "uint256[]"
                }
            ],
            "name": "UpdateInterestRateAndRepaymentsEvent",
            "type": "event"
        },
        {
            "inputs": [],
            "name": "CURRENCY",
            "outputs": [
                {
                    "internalType": "bytes32",
                    "name": "",
                    "type": "bytes32"
                }
            ],
            "stateMutability": "view",
            "type": "function"
        },
        {
            "inputs": [],
            "name": "INTEREST_RATE_TYPE",
            "outputs": [
                {
                    "internalType": "enum LoanAssetLib.InterestRateTypeEnum",
                    "name": "",
                    "type": "uint8"
                }
            ],
            "stateMutability": "view",
            "type": "function"
        },
        {
            "inputs": [],
            "name": "IPFS_DOCUMENTATION_LINK",
            "outputs": [
                {
                    "internalType": "string",
                    "name": "",
                    "type": "string"
                }
            ],
            "stateMutability": "view",
            "type": "function"
        },
        {
            "inputs": [],
            "name": "ISSUANCE_COUNTRY",
            "outputs": [
                {
                    "internalType": "bytes32",
                    "name": "",
                    "type": "bytes32"
                }
            ],
            "stateMutability": "view",
            "type": "function"
        },
        {
            "inputs": [],
            "name": "ISSUER",
            "outputs": [
                {
                    "internalType": "address",
                    "name": "",
                    "type": "address"
                }
            ],
            "stateMutability": "view",
            "type": "function"
        },
        {
            "inputs": [],
            "name": "LOAN_TYPE",
            "outputs": [
                {
                    "internalType": "enum LoanAssetLib.LoanTypeEnum",
                    "name": "",
                    "type": "uint8"
                }
            ],
            "stateMutability": "view",
            "type": "function"
        },
        {
            "inputs": [],
            "name": "MATURITY_DATE",
            "outputs": [
                {
                    "internalType": "uint256",
                    "name": "",
                    "type": "uint256"
                }
            ],
            "stateMutability": "view",
            "type": "function"
        },
        {
            "inputs": [],
            "name": "MINIMUM_DENOMINATION_PER_SHARE",
            "outputs": [
                {
                    "internalType": "uint256",
                    "name": "",
                    "type": "uint256"
                }
            ],
            "stateMutability": "view",
            "type": "function"
        },
        {
            "inputs": [],
            "name": "NAME",
            "outputs": [
                {
                    "internalType": "bytes32",
                    "name": "",
                    "type": "bytes32"
                }
            ],
            "stateMutability": "view",
            "type": "function"
        },
        {
            "inputs": [
                {
                    "internalType": "uint256",
                    "name": "",
                    "type": "uint256"
                }
            ],
            "name": "REPAYMENTS_DATES",
            "outputs": [
                {
                    "internalType": "uint256",
                    "name": "",
                    "type": "uint256"
                }
            ],
            "stateMutability": "view",
            "type": "function"
        },
        {
            "inputs": [],
            "name": "START_DATE",
            "outputs": [
                {
                    "internalType": "uint256",
                    "name": "",
                    "type": "uint256"
                }
            ],
            "stateMutability": "view",
            "type": "function"
        },
        {
            "inputs": [],
            "name": "TOTAL_AMOUNT",
            "outputs": [
                {
                    "internalType": "uint256",
                    "name": "",
                    "type": "uint256"
                }
            ],
            "stateMutability": "view",
            "type": "function"
        },
        {
            "inputs": [],
            "name": "TOTAL_REPAYMENT_NUMBER",
            "outputs": [
                {
                    "internalType": "uint256",
                    "name": "",
                    "type": "uint256"
                }
            ],
            "stateMutability": "view",
            "type": "function"
        },
        {
            "inputs": [],
            "name": "anticipatePayment",
            "outputs": [],
            "stateMutability": "payable",
            "type": "function"
        },
        {
            "inputs": [
                {
                    "internalType": "uint256",
                    "name": "",
                    "type": "uint256"
                }
            ],
            "name": "borrowers",
            "outputs": [
                {
                    "internalType": "address",
                    "name": "",
                    "type": "address"
                }
            ],
            "stateMutability": "view",
            "type": "function"
        },
        {
            "inputs": [
                {
                    "internalType": "address",
                    "name": "",
                    "type": "address"
                }
            ],
            "name": "borrowersInfo",
            "outputs": [
                {
                    "internalType": "enum LoanAssetLib.BorrowerStatusEnum",
                    "name": "status",
                    "type": "uint8"
                },
                {
                    "internalType": "uint256",
                    "name": "shares",
                    "type": "uint256"
                },
                {
                    "internalType": "uint256",
                    "name": "spread",
                    "type": "uint256"
                }
            ],
            "stateMutability": "view",
            "type": "function"
        },
        {
            "inputs": [
                {
                    "internalType": "address",
                    "name": "",
                    "type": "address"
                }
            ],
            "name": "borrowersOutstandingPrincipals",
            "outputs": [
                {
                    "internalType": "uint256",
                    "name": "outstandingPrincipalAmount",
                    "type": "uint256"
                },
                {
                    "internalType": "uint256",
                    "name": "nextRepaymentIndex",
                    "type": "uint256"
                },
                {
                    "internalType": "uint256",
                    "name": "anticipatedRepaymentAmount",
                    "type": "uint256"
                }
            ],
            "stateMutability": "view",
            "type": "function"
        },
        {
            "inputs": [
                {
                    "internalType": "address",
                    "name": "",
                    "type": "address"
                },
                {
                    "internalType": "uint256",
                    "name": "",
                    "type": "uint256"
                }
            ],
            "name": "borrowersRepayments",
            "outputs": [
                {
                    "internalType": "uint256",
                    "name": "paymentDate",
                    "type": "uint256"
                },
                {
                    "internalType": "uint256",
                    "name": "interestRate",
                    "type": "uint256"
                },
                {
                    "internalType": "enum LoanAssetLib.RepaymentStatusEnum",
                    "name": "status",
                    "type": "uint8"
                }
            ],
            "stateMutability": "view",
            "type": "function"
        },
        {
            "inputs": [],
            "name": "calculateNextRepaymentAmount",
            "outputs": [
                {
                    "internalType": "uint256",
                    "name": "",
                    "type": "uint256"
                }
            ],
            "stateMutability": "view",
            "type": "function"
        },
        {
            "inputs": [],
            "name": "calculatePrincipalAmount",
            "outputs": [
                {
                    "internalType": "uint256",
                    "name": "",
                    "type": "uint256"
                }
            ],
            "stateMutability": "view",
            "type": "function"
        },
        {
            "inputs": [],
            "name": "currentLoanStatus",
            "outputs": [
                {
                    "internalType": "enum LoanAssetLib.LoanStatusEnum",
                    "name": "",
                    "type": "uint8"
                }
            ],
            "stateMutability": "view",
            "type": "function"
        },
        {
            "inputs": [],
            "name": "depositFunds",
            "outputs": [],
            "stateMutability": "payable",
            "type": "function"
        },
        {
            "inputs": [
                {
                    "internalType": "address",
                    "name": "borrower",
                    "type": "address"
                }
            ],
            "name": "disableAnticipatePayment",
            "outputs": [],
            "stateMutability": "nonpayable",
            "type": "function"
        },
        {
            "inputs": [
                {
                    "internalType": "address",
                    "name": "_borrower",
                    "type": "address"
                },
                {
                    "internalType": "uint256",
                    "name": "_totalAmountToAnticipate",
                    "type": "uint256"
                }
            ],
            "name": "enableAnticipatePayment",
            "outputs": [],
            "stateMutability": "nonpayable",
            "type": "function"
        },
        {
            "inputs": [
                {
                    "internalType": "uint256",
                    "name": "",
                    "type": "uint256"
                }
            ],
            "name": "lenders",
            "outputs": [
                {
                    "internalType": "address",
                    "name": "",
                    "type": "address"
                }
            ],
            "stateMutability": "view",
            "type": "function"
        },
        {
            "inputs": [
                {
                    "internalType": "address",
                    "name": "",
                    "type": "address"
                }
            ],
            "name": "lendersInfo",
            "outputs": [
                {
                    "internalType": "enum LoanAssetLib.LenderStatusEnum",
                    "name": "status",
                    "type": "uint8"
                },
                {
                    "internalType": "uint256",
                    "name": "shares",
                    "type": "uint256"
                }
            ],
            "stateMutability": "view",
            "type": "function"
        },
        {
            "inputs": [],
            "name": "pause",
            "outputs": [],
            "stateMutability": "nonpayable",
            "type": "function"
        },
        {
            "inputs": [],
            "name": "payPrincipal",
            "outputs": [],
            "stateMutability": "payable",
            "type": "function"
        },
        {
            "inputs": [
                {
                    "internalType": "uint256",
                    "name": "repaymentIndex",
                    "type": "uint256"
                }
            ],
            "name": "payRepayment",
            "outputs": [],
            "stateMutability": "payable",
            "type": "function"
        },
        {
            "inputs": [
                {
                    "internalType": "address",
                    "name": "borrower",
                    "type": "address"
                }
            ],
            "name": "setDefault",
            "outputs": [],
            "stateMutability": "nonpayable",
            "type": "function"
        },
        {
            "inputs": [],
            "name": "setLoanClosed",
            "outputs": [],
            "stateMutability": "nonpayable",
            "type": "function"
        },
        {
            "inputs": [],
            "name": "setLoanMatured",
            "outputs": [],
            "stateMutability": "nonpayable",
            "type": "function"
        },
        {
            "inputs": [],
            "name": "setLoanStart",
            "outputs": [],
            "stateMutability": "nonpayable",
            "type": "function"
        },
        {
            "inputs": [],
            "name": "unpause",
            "outputs": [],
            "stateMutability": "nonpayable",
            "type": "function"
        },
        {
            "inputs": [
                {
                    "internalType": "address[]",
                    "name": "_borrowers",
                    "type": "address[]"
                },
                {
                    "internalType": "uint256[]",
                    "name": "_interestRates",
                    "type": "uint256[]"
                }
            ],
            "name": "updateInterestRateAndRepayments",
            "outputs": [],
            "stateMutability": "nonpayable",
            "type": "function"
        },
        {
            "inputs": [
                {
                    "internalType": "address",
                    "name": "_borrowerAddress",
                    "type": "address"
                },
                {
                    "internalType": "uint256",
                    "name": "_interestRate",
                    "type": "uint256"
                }
            ],
            "name": "updateInterestRateByBorrower",
            "outputs": [],
            "stateMutability": "nonpayable",
            "type": "function"
        },
        {
            "inputs": [],
            "name": "withdrawFunds",
            "outputs": [],
            "stateMutability": "nonpayable",
            "type": "function"
        }
    ],
    "bytecode": "6101e060405234620013185762003ac480380390816200001f816200133c565b91823980828101036101408112620013185760e01362001318576040519060e082016001600160401b03811183821017620009db576040528051825260208101516020830152604081015160408301526060810151600281101562001318576060830152608081015160028110156200131857608083015260a0818101519083015260c0808201519083015260e08101516001600160401b0381116200131857608081830185840103126200131857604051906001600160401b036080830190811190831117620009db5760808201604052828101516001600160401b0381116200131857620001179086850190838601016200137a565b8252828101602001516001600160401b038111620013185762000142908685019083860101620013ee565b6020830152828101604001516001600160401b0381116200131857620001709086850190838601016200137a565b604083015282810160600151906001600160401b03821162001318576200019e9186850191850101620013ee565b6060820152610100820151916001600160401b038311620013185760a083820186830103126200131857604051926001600160401b0360a0850190811190851117620009db5760a084016040908152828201805186526020808201519087015201516001600160401b038111620013185762000222908784019083850101620013ee565b6040850152818101606001516001600160401b038111620013185762000250908784019083850101620013ee565b606085015281810160800151906001600160401b03821162001318576200027e9187840191840101620013ee565b6080840152610120810151906001600160401b0382116200131857858101601f838301011215620013185780820151916001600160401b038311620009db57620002d2601f8401601f19166020016200133c565b96838852820160208483850101011162001318575f5b838110620013005750505060205f9186010152825115620012a8576020830151156200123c57604083015115620011e05760a08301514281111562001184575060c08301514281111562001125575060a083015160c084015180821015620010c25750508151156200106c576020820151156200100e576200037182516020840151906200144b565b62000fa2576040810151511562000f50576040810151516060820151519081810362000ef45750508051511562000ea3578051516020820151519081810362000e5157505060408201515160408201515180820362000df557505060608201515160408201515180820362000d915750506080820151511562000d385733608052825160a052602083015160c052604083015160e05281516101005260a08301516101205260c08301516101405260608301516200042f816200146a565b61016052608083015162000443816200146a565b610180526080820151516101c05260208201516101a05283516001600160401b038111620009db57600154600181811c9116801562000d2d575b602082101462000d1957601f811162000cb5575b506020601f821160011462000c495781929394955f9262000c3d575b50508160011b915f199060031b1c1916176001555b608082015151915f5b83811062000c1557508151515f5b81811062000ab3575050604082015151935f5b8581106200065f5760ff195f54165f5560a0517f49acfc68157e7387cc4ecb6a56cfeb67c008a572e05217836e6015874960b02f604060018060a01b0360805116926101005182519182526020820152a26040516125ee9081620014d682396080518181816101da015281816103f40152818161054c015281816108bb01528181610c8701528181610fd30152818161131c0152818161141001528181611451015281816114c201528181611c3c0152611e79015260a05181610ed0015260c05181610c41015260e0518161082501526101005181610f0a01526101205181611934015261014051818181610980015261150a0152610160518181816112cc015281816116b601526123ab01526101805181818161043e015281816104660152818161049c01528181610596015281816107e601528181610cca0152610e8d01526101a0518181816109f601528181610f440152611c8901526101c0518181816113d80152818161163a01526123e40152f35b60408401516001600160a01b03906200067a90839062001475565b51166200068c82606087015162001475565b5190811562000a5b57620006b2620006a68387516200148a565b6020870151906200144b565b620009ef5760045468010000000000000000811015620009db5760018101806004558110156200094d5760045f527f8a35acfbc15ff81a39ae7d344fd709f28e8600b4aa8c65c6b64bfe7fe36bd19b0180546001600160a01b0319168217905560408501516200072490849062001475565b516200072f6200131c565b90600282528360208301526040820152815f52600560205260405f2090805160068110156200088c5760029160409160ff801986541691161784556020810151600185015501519101556101a0519082828102048203620009c757600291620007976200131c565b93028352602083016001815260408401915f83525f52600860205260405f2093518455516001840155519101556080820151620007d4816200146a565b620007df816200146a565b620008a0575f5b858110620007fa57506001905b01620004ec565b620008276200080e82608087015162001475565b516200081f84606088015162001475565b5190620014a0565b9060018060a01b036200083f84604089015162001475565b51165f52600760205260405f20815f526020526040805f20928051845560208101516001850155015160038110156200088c576002600193019060ff8019835416911617905501620007e6565b634e487b7160e01b5f52602160045260245ffd5b60016080830151620008b2816200146a565b620008bd816200146a565b03620009615760808301518051156200094d576020620008e99101516200081f83606087015162001475565b9060018060a01b036200090182604088015162001475565b51165f52600760205260405f205f80526020526040805f20928051845560208101516001850155015160038110156200088c576002600193019060ff80198354169116179055620007f3565b634e487b7160e01b5f52603260045260245ffd5b6084608083015162000973816200146a565b6040519063023953af60e51b825260406004830152601b60448301527f556e6b6e6f776e20696e746572657374207261746520747970652e00000000006064830152620009c0816200146a565b6024820152fd5b634e487b7160e01b5f52601160045260245ffd5b634e487b7160e01b5f52604160045260245ffd5b60405163fb9d993560e01b815260206004820152603660248201527f536861726573206d7573742062652061206d756c7469706c65206f662074686560448201527f206d696e696d756d2064656e6f6d696e6174696f6e2e000000000000000000006064820152608490fd5b60405163099b6f8d60e11b815260206004820152602960248201527f426f72726f776572207368617265206d757374206265206772656174657220746044820152683430b7103d32b9379760b91b6064820152608490fd5b83516001600160a01b039062000acb90839062001475565b51169062000ade81602087015162001475565b51801562000bbf5762000af7620006a68287516200148a565b620009ef5760025468010000000000000000811015620009db5760018101806002558110156200094d5760025f527f405787fa12a823e0f2b7631cc41b3ba8828b3321ca811111fa75cd3aa3bb5ace0180546001600160a01b031916841790556040805191908201906001600160401b03821183831017620009db576001948592604052828452602084019182525f52600360205260405f20925162000b9d8162001495565b62000ba88162001495565b60ff801985541691161783555191015501620004d9565b60405163099b6f8d60e11b815260206004820152602760248201527f4c656e646572207368617265206d75737420626520677265617465722074686160448201526637103d32b9379760c91b6064820152608490fd5b8062000c28600192608085015162001475565b51815f52600660205260405f205501620004cb565b015190505f80620004ad565b60015f5260205f20905f5b601f198416811062000c9c575060019394959683601f1981161062000c83575b505050811b01600155620004c2565b01515f1960f88460031b161c191690555f808062000c74565b9091602060018192858b01518155019301910162000c54565b60015f527fb10e2d527612073b26eecdfd717e6a320cf44b4afac2b0732d9fcbe2b7fa0cf6601f830160051c81016020841062000d11575b601f830160051c8201811062000d0557505062000491565b5f815560010162000ced565b508062000ced565b634e487b7160e01b5f52602260045260245ffd5b90607f16906200047d565b6040516306cfa14d60e01b815260206004820152602a60248201527f52657061796d656e74206461746573206d7573742062652067726561746572206044820152693a3430b7103d32b9379760b11b6064820152608490fd5b60c4925060405191639dbdf7d760e01b835260606004840152602960648401527f4d69736d6174636820696e20626f72726f7765727320616e6420696e7465726560848401526839ba103930ba32b99760b91b60a484015260248301526044820152fd5b60c492506040519163cb8c6ef960e01b835260606004840152602160648401527f4d69736d6174636820696e20626f72726f7765727320616e64207370726561646084840152601760f91b60a484015260248301526044820152fd5b60a4925060405191636763dda560e01b835260606004840152601f60648401527f4d69736d6174636820696e206c656e6465727320616e64207368617265732e00608484015260248301526044820152fd5b6040516306cfa14d60e01b815260206004820152602260248201527f4c656e64657273206d7573742062652067726561746572207468616e207a6572604482015261379760f11b6064820152608490fd5b60c49250604051916327eb433760e01b835260606004840152602160648401527f4d69736d6174636820696e20626f72726f7765727320616e64207368617265736084840152601760f91b60a484015260248301526044820152fd5b6040516306cfa14d60e01b8152602060048201526024808201527f426f72726f77657273206d7573742062652067726561746572207468616e207a60448201526332b9379760e11b6064820152608490fd5b60405163fb9d993560e01b815260206004820152603c60248201527f546f74616c20616d6f756e74206d7573742062652061206d756c7469706c652060448201527f6f6620746865206d696e696d756d2064656e6f6d696e6174696f6e2e000000006064820152608490fd5b60405163099b6f8d60e11b815260206004820152602f60248201527f4d696e696d756d2064656e6f6d696e6174696f6e206d7573742062652067726560448201526e30ba32b9103a3430b7103d32b9379760891b6064820152608490fd5b60405163099b6f8d60e11b815260206004820152602760248201527f546f74616c20616d6f756e74206d75737420626520677265617465722074686160448201526637103d32b9379760c91b6064820152608490fd5b60c4925060405191635058917d60e01b835260606004840152602860648401527f53746172742064617465206d757374206265206265666f7265206d61747572696084840152673a3c903230ba329760c11b60a484015260248301526044820152fd5b60c49060405190635058917d60e01b825260606004830152602460648301527f4d617475726974792064617465206d75737420626520696e20746865206675746084830152633ab9329760e11b60a48301526024820152426044820152fd5b60c49060405190635058917d60e01b825260606004830152602160648301527f53746172742064617465206d75737420626520696e20746865206675747572656084830152601760f91b60a48301526024820152426044820152fd5b604051634ef7d6ed60e01b815260206004820152602d60248201527f43757272656e6379206d75737420626520646966666572656e742066726f6d2060448201526c32b6b83a3c9039ba3934b7339760991b6064820152608490fd5b604051634ef7d6ed60e01b815260206004820152603560248201527f49737375616e636520636f756e747279206d757374206265206469666665726560448201527f6e742066726f6d20656d70747920737472696e672e00000000000000000000006064820152608490fd5b604051634ef7d6ed60e01b815260206004820152602960248201527f4e616d65206d75737420626520646966666572656e742066726f6d20656d70746044820152683c9039ba3934b7339760b91b6064820152608490fd5b806020809284860101015182828b01015201620002e8565b5f80fd5b60405190606082016001600160401b03811183821017620009db57604052565b6040519190601f01601f191682016001600160401b03811183821017620009db57604052565b6001600160401b038111620009db5760051b60200190565b9080601f8301121562001318578151906200139f620013998362001362565b6200133c565b9182938184526020808095019260051b82010192831162001318578301905b828210620013cd575050505090565b81516001600160a01b038116810362001318578152908301908301620013be565b9080601f8301121562001318578151906200140d620013998362001362565b9182938184526020808095019260051b82010192831162001318578301905b8282106200143b575050505090565b815181529083019083016200142c565b811562001456570690565b634e487b7160e01b5f52601260045260245ffd5b600211156200088c57565b80518210156200094d5760209160051b010190565b811562001456570490565b600411156200088c57565b905f6040620014ae6200131c565b8281528260208201520152620014c36200131c565b9182526020820152600160408201529056fe6080806040526004361015610012575f80fd5b5f3560e01c90816301798e6714611e5e5750806301ddea9114611d3f5780631789e82614611c2257806324600fc314611a945780632c1dc3ad14611957578063372c65331461191d57806337837f47146115cd57806339889be3146115b25780633cfcca9d146114b05780633f4ba83a1461143f5780634339b421146113fb578063525fec19146113c157806360a2bef3146112f8578063616693d8146112b857806367dad907146110785780637924d93f146110365780638456cb5914610fc1578063929eea2114610f6757806395714fd614610f2d578063a2d7f5e314610ef3578063a3f4df7e14610eb9578063a50ff1bb14610e79578063a74c7b7214610e56578063ab94290214610df0578063b42f0e9e14610c64578063b639494314610c2a578063c56e4a8914610bd1578063c781197914610b84578063c8395e8a14610b5c578063cdd27fac14610b32578063e2c41dbc146109a3578063e593bd7414610969578063e823d5cf14610897578063f069e44d14610848578063f53612191461080e578063fda0a6b9146103a35763fe93eb04146101b3575f80fd5b3461039f57604036600319011261039f576101cc611ffa565b602435906001600160a01b037f0000000000000000000000000000000000000000000000000000000000000000811633036103845760ff5f541661020f8161207d565b600181036103675750811690815f52600560205260ff60405f205416600681101561035357600203610332575081156102ce575f52600860205260405f208054156102735760020155335f52600560205260405f20600560ff198254161790555f80f35b60405163099b6f8d60e11b815260206004820152602c60248201527f4e6f206f75747374616e64696e67207072696e636970616c20616d6f756e742060448201526b3632b33a103a37903830bc9760a11b6064820152608490fd5b60405163099b6f8d60e11b815260206004820152603560248201527f546f74616c20616d6f756e7420746f20616e7469636970617465206d7573742060448201527431329033b932b0ba32b9103a3430b7103d32b9379760591b6064820152608490fd5b6040516305ee3fdf60e41b815290819061034f906004830161226d565b0390fd5b634e487b7160e01b5f52602160045260245ffd5b6040516318b4c7e760e11b815290819061034f9060048301612157565b604051632862fafd60e11b81528061034f33600483016120b8565b5f80fd5b3461039f57604036600319011261039f5767ffffffffffffffff60043581811161039f576103d5903690600401612087565b909160243590811161039f576103ef903690600401612087565b9290917f00000000000000000000000000000000000000000000000000000000000000006001600160a01b031633036103845760ff5f54166104308161207d565b6001810361036757506104627f0000000000000000000000000000000000000000000000000000000000000000612010565b60017f0000000000000000000000000000000000000000000000000000000000000000036107d357831561077757808403610714576104c07f0000000000000000000000000000000000000000000000000000000000000000612010565b5f5b818110610520575050604051602080825281018490529190506001600160fb1b03831161039f57816040917f6360badf65e02a0d459c3b753b21e899621f3854fb6089d0044d24d2cfa6839e9460051b8091848401378101030190a1005b61052b81838561222c565b35906001600160a01b038216820361039f5761054881878761222c565b35917f00000000000000000000000000000000000000000000000000000000000000006001600160a01b031633036103845760ff5f54166105888161207d565b6001810361036757506105ba7f0000000000000000000000000000000000000000000000000000000000000000612010565b60018060a01b0381165f52600560205260405f206040516105da81611fbc565b60ff825416916006831015610353576002604091848452600181015460208501520154910152600281036106b9575060018060a01b0381165f52600860205260405f209260405161062a81611fbc565b8454815260018501549060406002602083019784895201549101525f52600660205260405f2054936040519461065f86611fbc565b85526020850191825260408501926001845260018060a01b03165f52600760205260405f2090515f5260205260405f2093518455516001840155519160038310156103535760019260026106b39201612248565b016104c2565b604051631c3e2e8d60e31b815260606004820152601960648201527f426f72726f776572206d75737420626520656e61626c65642e00000000000000608482015260a49161070b906024830190612070565b60026044820152fd5b8360c4916040519163cb8c6ef960e01b835260606004840152602860648401527f4d69736d6174636820696e20696e746572657374207261746520616e6420626f608484015267393937bbb2b9399760c11b60a484015260248301526044820152fd5b6040516306cfa14d60e01b815260206004820152602d60248201527f496e746572657374206c656e677468204952206d75737420626520677265617460448201526c32b9103a3430b7103d32b9379760991b6064820152608490fd5b6040516333d4c68760e21b81528061034f7f0000000000000000000000000000000000000000000000000000000000000000600483016121e5565b3461039f575f36600319011261039f5760206040517f00000000000000000000000000000000000000000000000000000000000000008152f35b3461039f57602036600319011261039f576001600160a01b03610869611ffa565b165f526008602052606060405f20805490600260018201549101549060405192835260208301526040820152f35b3461039f57602036600319011261039f576108b0611ffa565b6001600160a01b03907f0000000000000000000000000000000000000000000000000000000000000000821633036103845716805f52600560205260ff60405f20541660068110156103535760020361091d575f908152600560205260409020805460ff19166004179055005b608490604051906305ee3fdf60e41b825260406004830152601860448301527f426f72726f776572206973206e6f7420656e61626c65642e000000000000000060648301526024820152fd5b3461039f575f36600319011261039f5760206040517f00000000000000000000000000000000000000000000000000000000000000008152f35b5f36600319011261039f57335f526003602052600160ff60405f2054166109c98161207d565b03610ad65760ff5f54166109dc8161207d565b80610ab957335f526003602052610a1b600160405f2001547f0000000000000000000000000000000000000000000000000000000000000000906121d2565b803403610a6757335f52600360205260405f20600260ff198254161790556040513481527f9fd1f086169d30d7daab8b193610aa292d1f19446760212b4d8a32c99c6721cd60203392a2005b60a49060405190633e3b348d60e21b825260606004830152601760648301527f496e76616c6964204465706f73697420616d6f756e742e00000000000000000060848301526024820152346044820152fd5b6040516318b4c7e760e11b815290819061034f9060048301612195565b60405162461bcd60e51b815260206004820152602e60248201527f4f6e6c79206120656e61626c6564206c656e6465722063616e20706572666f7260448201526d36903a3434b99030b1ba34b7b71760911b6064820152608490fd5b3461039f57602036600319011261039f576004355f526006602052602060405f2054604051908152f35b3461039f575f36600319011261039f57602060ff5f541660405190610b808161207d565b8152f35b3461039f57602036600319011261039f576001600160a01b03610ba5611ffa565b165f5260036020526040805f20600160ff825416910154825191610bc88161207d565b82526020820152f35b3461039f57602036600319011261039f576001600160a01b03610bf2611ffa565b165f526005602052606060405f2060ff815416906002600182015491015490610c1e6040518094612070565b60208301526040820152f35b3461039f575f36600319011261039f5760206040517f00000000000000000000000000000000000000000000000000000000000000008152f35b3461039f57604036600319011261039f57610c7d611ffa565b6001600160a01b037f0000000000000000000000000000000000000000000000000000000000000000811633036103845760ff5f541691610cbd8361207d565b60019283810361036757507f0000000000000000000000000000000000000000000000000000000000000000610cf281612010565b838103610dd3575016805f526020916005835260405f20604051610d1581611fbc565b60ff82541691600683101561035357600260409184845285810154888501520154910152600281036106b95750815f526008835260405f2092604051610d5a81611fbc565b845481528285015490604060028483019784895201549101525f526006815260405f20549360405194610d8c86611fbc565b855281850191602435835260408601948486525f526007815260405f2091515f525260405f20935184555190830155516003811015610353576002610dd19201612248565b005b6040516333d4c68760e21b815290819061034f90600483016121e5565b3461039f57604036600319011261039f576001600160a01b03610e11611ffa565b165f52600760205260405f206024355f52602052606060405f20610e5481549160ff60026001830154920154169060405193845260208401526040830190612063565bf35b3461039f575f36600319011261039f576020610e71336124c8565b604051908152f35b3461039f575f36600319011261039f5760207f000000000000000000000000000000000000000000000000000000000000000060405190610b8081612010565b3461039f575f36600319011261039f5760206040517f00000000000000000000000000000000000000000000000000000000000000008152f35b3461039f575f36600319011261039f5760206040517f00000000000000000000000000000000000000000000000000000000000000008152f35b3461039f575f36600319011261039f5760206040517f00000000000000000000000000000000000000000000000000000000000000008152f35b3461039f57602036600319011261039f5760043560025481101561039f5760025f527f405787fa12a823e0f2b7631cc41b3ba8828b3321ca811111fa75cd3aa3bb5ace01546040516001600160a01b039091168152602090f35b3461039f575f36600319011261039f577f00000000000000000000000000000000000000000000000000000000000000006001600160a01b031633036103845761010061ff001960095416176009557f9e87fac88ff661f02d44f95383c817fece4bce600a3dab7a54406878b965e7525f80a1005b3461039f57602036600319011261039f5760043560045481101561039f5761105f60209161201a565b905460405160039290921b1c6001600160a01b03168152f35b5f36600319011261039f5760095460ff811661127257600160ff1980921617600955335f5260206005815260ff60405f20541660068110156103535760020361120b5760ff5f54166110c98161207d565b600281036111ee576110da9061207d565b6110e3336124c8565b1561119857335f526008815260405f2080548015611198573403611154576001815f8093550155335f526005815260405f206003838254161790557fe1c095a926435ee6d7886d9bcfb375c1378aba1311e21f624834c84c2bccfb90604051913483523392a2600954166009555f80f35b6064826040519063fb9d993560e01b825280600483015260248201527f496e636f7272656374207072696e636970616c20616d6f756e742073656e742e6044820152fd5b60405163099b6f8d60e11b815260206004820152602760248201527f4e6f206f75747374616e64696e67207072696e636970616c20616d6f756e74206044820152663a37903830bc9760c91b6064820152608490fd5b6040516318b4c7e760e11b815290819061034f9060048301612110565b604080516305ee3fdf60e41b81526004810191909152603060448201527f4f6e6c79206120656e61626c656420626f72726f7765722063616e207065726660648201526f37b936903a3434b99030b1ba34b7b71760811b608482015233602482015260a490fd5b604051632bb29e1d60e21b815260206004820152601f60248201527f5265656e7472616e637947756172643a207265656e7472616e742063616c6c006044820152606490fd5b3461039f575f36600319011261039f5760207f000000000000000000000000000000000000000000000000000000000000000060405190610b8081612010565b3461039f57602036600319011261039f57611311611ffa565b6001600160a01b03907f0000000000000000000000000000000000000000000000000000000000000000821633036103845760ff5f54166113518161207d565b600181036103675750335f52600560205260ff60405f2054166006811015610353576005036113a657165f5260086020525f6002604082200155335f52600560205260405f20600260ff198254161790555f80f35b6040516305ee3fdf60e41b81528061034f336004830161226d565b3461039f575f36600319011261039f5760206040517f00000000000000000000000000000000000000000000000000000000000000008152f35b3461039f575f36600319011261039f576040517f00000000000000000000000000000000000000000000000000000000000000006001600160a01b03168152602090f35b3461039f575f36600319011261039f577f00000000000000000000000000000000000000000000000000000000000000006001600160a01b031633036103845761ff0019600954166009557fa45f47fdea8a1efdd9029a5691c7f759c32b7c698632b563573e155625d169335f80a1005b3461039f575f36600319011261039f577f00000000000000000000000000000000000000000000000000000000000000006001600160a01b03163303610384575f5460ff81166114ff8161207d565b6001810361036757507f00000000000000000000000000000000000000000000000000000000000000008042106115605760028260ff1916175f557fb1db5bcbc9a43371cacff81873d6d36def2657648483dcc6e9c54bb17e5a98a45f80a1005b60a49060405190635058917d60e01b825260606004830152601960648301527f4c6f616e20686173206e6f74206d617475726564207965742e0000000000000060848301524260248301526044820152fd5b3461039f575f36600319011261039f576020610e71336122d8565b60208060031936011261039f576009549060043560ff8316611272576001918260ff1980951617600955335f526005815260ff60405f20541660068110156103535760020361120b5760ff5f54166116248161207d565b8381036103675750335f526008815260405f20927f0000000000000000000000000000000000000000000000000000000000000000808410156118cb5750335f526007825260405f20835f52825260405f2090600282019160ff83541660038110156103535782810361185f5750544281116117fc57506116a4336122d8565b9485156117a15785340361175d5781907f00000000000000000000000000000000000000000000000000000000000000006116de81612010565b821461174b575b019081545f198114611737570190556002858254161790556040519283528201527f400023aee8932395c7b86208735ec638dd940bb9d900452ad3875686e8e92d7860403392a2600954166009555f80f35b634e487b7160e01b5f52601160045260245ffd5b611756878254612260565b81556116e5565b6064846040519063fb9d993560e01b825280600483015260248201527f496e636f72726563742072657061796d656e7420616d6f756e742073656e742e6044820152fd5b60405163099b6f8d60e11b815260048101859052602c60248201527f52657061796d656e74206d75737420626520646566696e6564206265666f726560448201526b103132b4b733903830b4b21760a11b6064820152608490fd5b60c49060405190635058917d60e01b825260606004830152602860648301527f52657061796d656e74206461746520686173206e6f74206265656e20726561636084830152673432b2103cb2ba1760c11b60a48301526024820152426044820152fd5b604051630b4b77dd60e21b815260806004820152602260848201527f52657061796d656e74206973206e6f7420696e2073746174757320756e70616960a482015261321760f11b60c482015233602482015260e49184906118c4906044840190612063565b6064820152fd5b60a4908460405191632407ea4d60e11b835260606004840152601960648401527f496e76616c69642072657061796d656e74206e756d6265722e00000000000000608484015260248301526044820152fd5b3461039f575f36600319011261039f5760206040517f00000000000000000000000000000000000000000000000000000000000000008152f35b3461039f575f36600319011261039f576040515f9060019182549283811c90808516908115611a8a575b6020958684108314611a765785879385825291825f14611a56575050600114611a02575b505050816119b4910382611fd8565b604051828193825282519081818401525f935b8285106119e9575050604092505f838284010152601f80199101168101030190f35b84810182015186860160400152938101938593506119c7565b80929193505f527fb10e2d527612073b26eecdfd717e6a320cf44b4afac2b0732d9fcbe2b7fa0cf6915f925b828410611a43575050508201018183856119a5565b8054868501860152928401928101611a2e565b60ff19168482015293151560051b840190920193508591508690506119a5565b634e487b7160e01b5f52602260045260245ffd5b91607f1691611981565b3461039f575f36600319011261039f5760095460ff811661127257600160ff1980921617600955335f526003602052600160ff60405f205416611ad68161207d565b03610ad65760ff5f5416611ae98161207d565b60038103611bd057506064611b0e47335f526003602052600160405f200154906121d2565b04670de0b6b3a764000090818102918183041490151715611737575f80808093335af13d15611bcb573d67ffffffffffffffff8111611bb75760405190611b5f601f8201601f191660200183611fd8565b81525f60203d92013e5b15611b7957600954166009555f80f35b60846040516305ee3fdf60e41b815260406004820152601060448201526f2a3930b739b332b9103330b4b632b21760811b6064820152336024820152fd5b634e487b7160e01b5f52604160045260245ffd5b611b69565b6040516318b4c7e760e11b815260606004820152601460648201527324b73b30b634b2103637b0b71039ba30ba3ab99760611b608482015260a491611c148161207d565b602482015260036044820152fd5b3461039f575f36600319011261039f576001600160a01b037f000000000000000000000000000000000000000000000000000000000000000081163303610384575f549060ff8216611c738161207d565b80610ab957506001809260ff1916175f55815f917f0000000000000000000000000000000000000000000000000000000000000000915b611cd5575b7fcc8e63a11a79470a56cd347a85d37fa00cf3da532e3a309b2ceb10d4f377d6255f80a1005b600454831015611d3a575f80808084611ced8861201a565b90549060031b1c168082526005602052611d0d878a6040852001546121d2565b90828215611d31575bf115611d26578380930192611caa565b6040513d5f823e3d90fd5b506108fc611d16565b611caf565b5f36600319011261039f5760095460ff81166112725760ff199081166001176009555f5460ff16611d6f8161207d565b600181036103675750335f52600560205260ff60405f2054166006811015610353576005036113a657335f52600860205260405f20600281015490813410611e06576001815f8093550155335f52600560205260405f206003838254161790556040519081527fe1c095a926435ee6d7886d9bcfb375c1378aba1311e21f624834c84c2bccfb9060203392a2600954166009555f80f35b604051633e49f6c360e21b815260206004820152602960248201527f496e73756666696369656e742066756e647320746f20616e7469636970617465604482015268103830bcb6b2b73a1760b91b6064820152608490fd5b3461039f575f36600319011261039f576001600160a01b03907f000000000000000000000000000000000000000000000000000000000000000082163303611fa457505f5460ff8116611eb08161207d565b600281036111ee57506004545f5b818110611ed15760ff1983166003175f55005b83611edb8261201a565b919054600392831b1c165f5260089060209082825260405f2054611f0457505050600101611ebe565b60e494508690611f2482611f178761201a565b905490841b1c169561201a565b9054911b1c165f525260405f20546040519163b75c4d4b60e01b835260806004840152603560848401527f416c6c20626f72726f77657273206d7573742070617920616c6c20726570617960a48401527436b2b73a39903132b337b9329031b637b9b4b7339760591b60c4840152602483015260448201525f6064820152fd5b632862fafd60e11b81528061034f33600483016120b8565b6060810190811067ffffffffffffffff821117611bb757604052565b90601f8019910116810190811067ffffffffffffffff821117611bb757604052565b600435906001600160a01b038216820361039f57565b6002111561035357565b60045481101561204f5760045f527f8a35acfbc15ff81a39ae7d344fd709f28e8600b4aa8c65c6b64bfe7fe36bd19b01905f90565b634e487b7160e01b5f52603260045260245ffd5b9060038210156103535752565b9060068210156103535752565b6004111561035357565b9181601f8401121561039f5782359167ffffffffffffffff831161039f576020808501948460051b01011161039f57565b60408082526028908201527f4f6e6c7920746865206973737565722063616e20706572666f726d20746869736060820152671030b1ba34b7b71760c11b60808201526001600160a01b03909116602082015260a00190565b604060029193929360608152601460608201527324b73b30b634b2103637b0b71039ba30ba3ab99760611b608082015260a081019461214e8161207d565b60208201520152565b604060019193929360608152601460608201527324b73b30b634b2103637b0b71039ba30ba3ab99760611b608082015260a081019461214e8161207d565b60405f9193929360608152601460608201527324b73b30b634b2103637b0b71039ba30ba3ab99760611b608082015260a081019461214e8161207d565b8181029291811591840414171561173757565b604060019193929360608152601b60608201527f496e76616c696420696e746572657374207261746520747970652e0000000000608082015260a081019461214e81612010565b919081101561204f5760051b0190565b60038210156103535752565b9060038110156103535760ff80198354169116179055565b9190820391821161173757565b6040808252602e908201527f426f72726f776572206973206e6f7420656e61626c656420746f20616e74696360608201526d34b830ba32903830bcb6b2b73a1760911b60808201526001600160a01b03909116602082015260a00190565b9190820180921161173757565b60018060a01b0316905f91808352602060088152604091828520908351926122ff84611fbc565b8254845260026001840154938286019485520154858501528187526007815284872083518852815284872091612358865161233981611fbc565b845481528760ff6002600188015497878501988952015416910161223c565b87526005815284872085519161236d83611fbc565b60ff82541660068110156124b457835260018201549083015260020154908501819052835191516123a892916123a2916122cb565b906121d2565b927f00000000000000000000000000000000000000000000000000000000000000006123d381612010565b6001810361245257505061240890517f0000000000000000000000000000000000000000000000000000000000000000612260565b906001820180921161243e5751811561242a57612427939450046122cb565b90565b634e487b7160e01b85526012600452602485fd5b634e487b7160e01b85526011600452602485fd5b9250929394505061246281612010565b8061246c57505090565b608492508151916329f8e8c960e21b83526004830152601260448301527124b73b30b634b2103637b0b7103a3cb8329760711b60648301526124ad81612010565b6024820152fd5b634e487b7160e01b8a52602160045260248afd5b6001600160a01b03165f818152600860209081526040808320815194939192906124f186611fbc565b805486526002600182015491838801928352015484870152848352600782528383209051835281528282209361254a845161252b81611fbc565b865481528560ff600260018a0154998785019a8b52015416910161223c565b8252600581528282209083519261256084611fbc565b60ff8354169060068210156125a457509260026123a29361259d9693612427999896845260018201549084015201549182910152845192516122cb565b90516122cb565b634e487b7160e01b81526021600452602490fdfea26469706673582212209c72b80cfdb25078d8a289a7106bb0422a899c1a0a08b2565d545b0cf277ba4664736f6c63430008140033",
    "sourcePath": "d:/IntesaSanpaolo/Projects/Avalanche/avalanche-sc-hardhat/contracts/security/Draft/LoanAsset.sol",
    "compiler": {
        "name": "solc",
        "version": "0.8.20+commit.a1b79de6"
    },
    "functionHashes": {
        "CURRENCY()": "f5361219",
        "INTEREST_RATE_TYPE()": "a50ff1bb",
        "IPFS_DOCUMENTATION_LINK()": "2c1dc3ad",
        "ISSUANCE_COUNTRY()": "b6394943",
        "ISSUER()": "4339b421",
        "LOAN_TYPE()": "616693d8",
        "MATURITY_DATE()": "e593bd74",
        "MINIMUM_DENOMINATION_PER_SHARE()": "95714fd6",
        "NAME()": "a3f4df7e",
        "REPAYMENTS_DATES(uint256)": "cdd27fac",
        "START_DATE()": "372c6533",
        "TOTAL_AMOUNT()": "a2d7f5e3",
        "TOTAL_REPAYMENT_NUMBER()": "525fec19",
        "anticipatePayment()": "01ddea91",
        "borrowers(uint256)": "7924d93f",
        "borrowersInfo(address)": "c56e4a89",
        "borrowersOutstandingPrincipals(address)": "f069e44d",
        "borrowersRepayments(address,uint256)": "ab942902",
        "calculateNextRepaymentAmount()": "39889be3",
        "calculatePrincipalAmount()": "a74c7b72",
        "currentLoanStatus()": "c8395e8a",
        "depositFunds()": "e2c41dbc",
        "disableAnticipatePayment(address)": "60a2bef3",
        "enableAnticipatePayment(address,uint256)": "fe93eb04",
        "lenders(uint256)": "929eea21",
        "lendersInfo(address)": "c7811979",
        "pause()": "8456cb59",
        "payPrincipal()": "67dad907",
        "payRepayment(uint256)": "37837f47",
        "setDefault(address)": "e823d5cf",
        "setLoanClosed()": "01798e67",
        "setLoanMatured()": "3cfcca9d",
        "setLoanStart()": "1789e826",
        "unpause()": "3f4ba83a",
        "updateInterestRateAndRepayments(address[],uint256[])": "fda0a6b9",
        "updateInterestRateByBorrower(address,uint256)": "b42f0e9e",
        "withdrawFunds()": "24600fc3"
    },
    "gasEstimates": {
        "creation": {
            "codeDepositCost": "1942000",
            "executionCost": "infinite",
            "totalCost": "infinite"
        },
        "external": {
            "CURRENCY()": "infinite",
            "INTEREST_RATE_TYPE()": "infinite",
            "IPFS_DOCUMENTATION_LINK()": "infinite",
            "ISSUANCE_COUNTRY()": "infinite",
            "ISSUER()": "infinite",
            "LOAN_TYPE()": "infinite",
            "MATURITY_DATE()": "infinite",
            "MINIMUM_DENOMINATION_PER_SHARE()": "infinite",
            "NAME()": "infinite",
            "REPAYMENTS_DATES(uint256)": "2959",
            "START_DATE()": "infinite",
            "TOTAL_AMOUNT()": "infinite",
            "TOTAL_REPAYMENT_NUMBER()": "infinite",
            "anticipatePayment()": "infinite",
            "borrowers(uint256)": "6925",
            "borrowersInfo(address)": "7293",
            "borrowersOutstandingPrincipals(address)": "7389",
            "borrowersRepayments(address,uint256)": "7308",
            "calculateNextRepaymentAmount()": "infinite",
            "calculatePrincipalAmount()": "infinite",
            "currentLoanStatus()": "2934",
            "depositFunds()": "infinite",
            "disableAnticipatePayment(address)": "infinite",
            "enableAnticipatePayment(address,uint256)": "infinite",
            "lenders(uint256)": "4797",
            "lendersInfo(address)": "5182",
            "pause()": "infinite",
            "payPrincipal()": "infinite",
            "payRepayment(uint256)": "infinite",
            "setDefault(address)": "infinite",
            "setLoanClosed()": "infinite",
            "setLoanMatured()": "infinite",
            "setLoanStart()": "infinite",
            "unpause()": "infinite",
            "updateInterestRateAndRepayments(address[],uint256[])": "infinite",
            "updateInterestRateByBorrower(address,uint256)": "infinite",
            "withdrawFunds()": "infinite"
        },
        "internal": {
            "_calculateNextRepaymentAmountByBorrower(address)": "infinite",
            "_calculatePrincipalAmountByBorrower(address)": "infinite",
            "_createNextRepayment(uint256,uint256)": "infinite"
        }
    }
}