{
    "contractName": "LoanAsset",
    "abi": [
        {
            "inputs": [
                {
                    "components": [
                        {
                            "internalType": "bytes32",
                            "name": "name",
                            "type": "bytes32"
                        },
                        {
                            "internalType": "bytes32",
                            "name": "issuanceCountry",
                            "type": "bytes32"
                        },
                        {
                            "internalType": "bytes32",
                            "name": "currency",
                            "type": "bytes32"
                        },
                        {
                            "internalType": "enum LoanAssetLib.LoanTypeEnum",
                            "name": "loanType",
                            "type": "uint8"
                        },
                        {
                            "internalType": "enum LoanAssetLib.InterestRateTypeEnum",
                            "name": "interestRateType",
                            "type": "uint8"
                        },
                        {
                            "internalType": "uint256",
                            "name": "startDate",
                            "type": "uint256"
                        },
                        {
                            "internalType": "uint256",
                            "name": "maturityDate",
                            "type": "uint256"
                        }
                    ],
                    "internalType": "struct LoanAssetLib.LoanAnagInfo",
                    "name": "_loanAnagInfo",
                    "type": "tuple"
                },
                {
                    "components": [
                        {
                            "internalType": "address[]",
                            "name": "lenders",
                            "type": "address[]"
                        },
                        {
                            "internalType": "uint256[]",
                            "name": "lendersShares",
                            "type": "uint256[]"
                        },
                        {
                            "internalType": "address[]",
                            "name": "borrowers",
                            "type": "address[]"
                        },
                        {
                            "internalType": "uint256[]",
                            "name": "borrowersShares",
                            "type": "uint256[]"
                        }
                    ],
                    "internalType": "struct LoanAssetLib.LoanParticipantInfo",
                    "name": "_loanParticipantInfo",
                    "type": "tuple"
                },
                {
                    "components": [
                        {
                            "internalType": "uint256",
                            "name": "totalAmount",
                            "type": "uint256"
                        },
                        {
                            "internalType": "uint256[]",
                            "name": "spreadForBorrower",
                            "type": "uint256[]"
                        },
                        {
                            "internalType": "uint256[]",
                            "name": "interestRates",
                            "type": "uint256[]"
                        },
                        {
                            "internalType": "uint256[]",
                            "name": "repaymentsDates",
                            "type": "uint256[]"
                        }
                    ],
                    "internalType": "struct LoanAssetLib.LoanPaymentInfo",
                    "name": "_loanPaymentInfo",
                    "type": "tuple"
                }
            ],
            "stateMutability": "nonpayable",
            "type": "constructor"
        },
        {
            "inputs": [
                {
                    "internalType": "string",
                    "name": "err",
                    "type": "string"
                }
            ],
            "name": "InsufficientFunds",
            "type": "error"
        },
        {
            "inputs": [
                {
                    "internalType": "string",
                    "name": "err",
                    "type": "string"
                },
                {
                    "internalType": "address",
                    "name": "caller",
                    "type": "address"
                }
            ],
            "name": "InvalidACLBorrowerError",
            "type": "error"
        },
        {
            "inputs": [
                {
                    "internalType": "string",
                    "name": "err",
                    "type": "string"
                },
                {
                    "internalType": "address",
                    "name": "lender",
                    "type": "address"
                }
            ],
            "name": "InvalidACLLenderError",
            "type": "error"
        },
        {
            "inputs": [
                {
                    "internalType": "string",
                    "name": "err",
                    "type": "string"
                },
                {
                    "internalType": "address",
                    "name": "caller",
                    "type": "address"
                }
            ],
            "name": "InvalidACLOwnerError",
            "type": "error"
        },
        {
            "inputs": [
                {
                    "internalType": "string",
                    "name": "err",
                    "type": "string"
                },
                {
                    "internalType": "address",
                    "name": "borrower",
                    "type": "address"
                },
                {
                    "internalType": "uint256",
                    "name": "currentBorrowerStatus",
                    "type": "uint256"
                },
                {
                    "internalType": "uint256",
                    "name": "expectedBorrowerStatus",
                    "type": "uint256"
                }
            ],
            "name": "InvalidAmountRepayFromAllBorrowers",
            "type": "error"
        },
        {
            "inputs": [
                {
                    "internalType": "string",
                    "name": "err",
                    "type": "string"
                },
                {
                    "internalType": "uint256",
                    "name": "amountToFund",
                    "type": "uint256"
                }
            ],
            "name": "InvalidAmountToFund",
            "type": "error"
        },
        {
            "inputs": [
                {
                    "internalType": "string",
                    "name": "err",
                    "type": "string"
                }
            ],
            "name": "InvalidEmptyValueError",
            "type": "error"
        },
        {
            "inputs": [
                {
                    "internalType": "string",
                    "name": "err",
                    "type": "string"
                },
                {
                    "internalType": "uint256",
                    "name": "interestRate",
                    "type": "uint256"
                },
                {
                    "internalType": "uint256",
                    "name": "borrowers",
                    "type": "uint256"
                }
            ],
            "name": "InvalidLenghtInterestRateForBorrower",
            "type": "error"
        },
        {
            "inputs": [
                {
                    "internalType": "string",
                    "name": "err",
                    "type": "string"
                },
                {
                    "internalType": "uint256",
                    "name": "interestRate",
                    "type": "uint256"
                },
                {
                    "internalType": "uint256",
                    "name": "borrowers",
                    "type": "uint256"
                }
            ],
            "name": "InvalidLengthInterestRateForBorrowerError",
            "type": "error"
        },
        {
            "inputs": [
                {
                    "internalType": "string",
                    "name": "err",
                    "type": "string"
                },
                {
                    "internalType": "uint256",
                    "name": "shares",
                    "type": "uint256"
                },
                {
                    "internalType": "uint256",
                    "name": "borrowers",
                    "type": "uint256"
                }
            ],
            "name": "InvalidLengthSharesForBorrowerError",
            "type": "error"
        },
        {
            "inputs": [
                {
                    "internalType": "string",
                    "name": "err",
                    "type": "string"
                },
                {
                    "internalType": "uint256",
                    "name": "shares",
                    "type": "uint256"
                },
                {
                    "internalType": "uint256",
                    "name": "lenders",
                    "type": "uint256"
                }
            ],
            "name": "InvalidLengthSharesForLenderError",
            "type": "error"
        },
        {
            "inputs": [
                {
                    "internalType": "string",
                    "name": "err",
                    "type": "string"
                },
                {
                    "internalType": "uint256",
                    "name": "shares",
                    "type": "uint256"
                },
                {
                    "internalType": "uint256",
                    "name": "totalShares",
                    "type": "uint256"
                }
            ],
            "name": "InvalidMathRestrictionSharesBorrower",
            "type": "error"
        },
        {
            "inputs": [
                {
                    "internalType": "string",
                    "name": "err",
                    "type": "string"
                },
                {
                    "internalType": "uint256",
                    "name": "shares",
                    "type": "uint256"
                },
                {
                    "internalType": "uint256",
                    "name": "totalShares",
                    "type": "uint256"
                }
            ],
            "name": "InvalidMathRestrictionSharesLender",
            "type": "error"
        },
        {
            "inputs": [
                {
                    "internalType": "string",
                    "name": "err",
                    "type": "string"
                },
                {
                    "internalType": "uint256",
                    "name": "startDate",
                    "type": "uint256"
                },
                {
                    "internalType": "uint256",
                    "name": "maturityDate",
                    "type": "uint256"
                }
            ],
            "name": "InvalidMathRestrictionStartMaturityDateError",
            "type": "error"
        },
        {
            "inputs": [
                {
                    "internalType": "string",
                    "name": "err",
                    "type": "string"
                },
                {
                    "internalType": "address",
                    "name": "borrower",
                    "type": "address"
                },
                {
                    "internalType": "enum LoanAssetLib.RepaymentStatusEnum",
                    "name": "currentBorrowerStatus",
                    "type": "uint8"
                },
                {
                    "internalType": "enum LoanAssetLib.RepaymentStatusEnum",
                    "name": "expectedBorrowerStatus",
                    "type": "uint8"
                }
            ],
            "name": "InvalidStatusRepayFromAllBorrowers",
            "type": "error"
        },
        {
            "inputs": [
                {
                    "internalType": "string",
                    "name": "err",
                    "type": "string"
                },
                {
                    "internalType": "enum LoanAssetLib.BorrowerStatusEnum",
                    "name": "currentBorrowerStatus",
                    "type": "uint8"
                },
                {
                    "internalType": "enum LoanAssetLib.BorrowerStatusEnum",
                    "name": "expectedBorrowerStatus",
                    "type": "uint8"
                }
            ],
            "name": "InvalidValueBorrowerStatus",
            "type": "error"
        },
        {
            "inputs": [
                {
                    "internalType": "string",
                    "name": "err",
                    "type": "string"
                }
            ],
            "name": "InvalidValueError",
            "type": "error"
        },
        {
            "inputs": [
                {
                    "internalType": "string",
                    "name": "err",
                    "type": "string"
                },
                {
                    "internalType": "enum LoanAssetLib.InterestRateTypeEnum",
                    "name": "currentInterestRateType",
                    "type": "uint8"
                },
                {
                    "internalType": "enum LoanAssetLib.InterestRateTypeEnum",
                    "name": "expectedInterestRateType",
                    "type": "uint8"
                }
            ],
            "name": "InvalidValueInterestRateType",
            "type": "error"
        },
        {
            "inputs": [
                {
                    "internalType": "string",
                    "name": "err",
                    "type": "string"
                },
                {
                    "internalType": "enum LoanAssetLib.LenderStatusEnum",
                    "name": "currentLenderStatus",
                    "type": "uint8"
                },
                {
                    "internalType": "enum LoanAssetLib.LenderStatusEnum",
                    "name": "expectedLenderStatus",
                    "type": "uint8"
                }
            ],
            "name": "InvalidValueLenderStatus",
            "type": "error"
        },
        {
            "inputs": [
                {
                    "internalType": "string",
                    "name": "err",
                    "type": "string"
                },
                {
                    "internalType": "enum LoanAssetLib.LoanStatusEnum",
                    "name": "currentLoanStatus",
                    "type": "uint8"
                },
                {
                    "internalType": "enum LoanAssetLib.LoanStatusEnum",
                    "name": "expectedLoanStatus",
                    "type": "uint8"
                }
            ],
            "name": "InvalidValueLoanStatus",
            "type": "error"
        },
        {
            "inputs": [
                {
                    "internalType": "string",
                    "name": "err",
                    "type": "string"
                },
                {
                    "internalType": "enum LoanAssetLib.LoanTypeEnum",
                    "name": "loanType",
                    "type": "uint8"
                }
            ],
            "name": "InvalidValueLoanType",
            "type": "error"
        },
        {
            "inputs": [
                {
                    "internalType": "string",
                    "name": "err",
                    "type": "string"
                },
                {
                    "internalType": "uint256",
                    "name": "expectedRepaymentIndex",
                    "type": "uint256"
                },
                {
                    "internalType": "uint256",
                    "name": "repaymentIndex",
                    "type": "uint256"
                }
            ],
            "name": "InvalidValueRepaymentIndex",
            "type": "error"
        },
        {
            "inputs": [
                {
                    "internalType": "string",
                    "name": "err",
                    "type": "string"
                }
            ],
            "name": "InvalidZeroLenghtError",
            "type": "error"
        },
        {
            "inputs": [
                {
                    "internalType": "string",
                    "name": "err",
                    "type": "string"
                }
            ],
            "name": "InvalidZeroValueError",
            "type": "error"
        },
        {
            "inputs": [
                {
                    "internalType": "string",
                    "name": "err",
                    "type": "string"
                }
            ],
            "name": "PausedError",
            "type": "error"
        },
        {
            "inputs": [
                {
                    "internalType": "string",
                    "name": "err",
                    "type": "string"
                }
            ],
            "name": "ReentrancyGuardError",
            "type": "error"
        },
        {
            "inputs": [
                {
                    "internalType": "string",
                    "name": "err",
                    "type": "string"
                },
                {
                    "internalType": "enum LoanAssetLib.InterestRateTypeEnum",
                    "name": "interestRateType",
                    "type": "uint8"
                }
            ],
            "name": "UnknownValueInterestRateType",
            "type": "error"
        },
        {
            "anonymous": false,
            "inputs": [
                {
                    "indexed": true,
                    "internalType": "address",
                    "name": "sender",
                    "type": "address"
                },
                {
                    "indexed": false,
                    "internalType": "uint256",
                    "name": "amount",
                    "type": "uint256"
                }
            ],
            "name": "FundsDepositedEvent",
            "type": "event"
        },
        {
            "anonymous": false,
            "inputs": [
                {
                    "indexed": true,
                    "internalType": "address",
                    "name": "lender",
                    "type": "address"
                },
                {
                    "indexed": false,
                    "internalType": "uint256",
                    "name": "amount",
                    "type": "uint256"
                },
                {
                    "indexed": false,
                    "internalType": "uint256",
                    "name": "totalAmount",
                    "type": "uint256"
                }
            ],
            "name": "LoanFundedEvent",
            "type": "event"
        },
        {
            "anonymous": false,
            "inputs": [
                {
                    "indexed": false,
                    "internalType": "bytes32",
                    "name": "name",
                    "type": "bytes32"
                },
                {
                    "indexed": true,
                    "internalType": "address",
                    "name": "lender",
                    "type": "address"
                },
                {
                    "indexed": false,
                    "internalType": "uint256",
                    "name": "totalAmount",
                    "type": "uint256"
                }
            ],
            "name": "LoanIssuedEvent",
            "type": "event"
        },
        {
            "anonymous": false,
            "inputs": [],
            "name": "LoanMaturedEvent",
            "type": "event"
        },
        {
            "anonymous": false,
            "inputs": [
                {
                    "indexed": true,
                    "internalType": "address",
                    "name": "borrower",
                    "type": "address"
                },
                {
                    "indexed": false,
                    "internalType": "uint256",
                    "name": "repaymentAmount",
                    "type": "uint256"
                }
            ],
            "name": "LoanRepaidEvent",
            "type": "event"
        },
        {
            "anonymous": false,
            "inputs": [],
            "name": "LoanStartedEvent",
            "type": "event"
        },
        {
            "anonymous": false,
            "inputs": [],
            "name": "Paused",
            "type": "event"
        },
        {
            "anonymous": false,
            "inputs": [
                {
                    "indexed": true,
                    "internalType": "address",
                    "name": "borrower",
                    "type": "address"
                },
                {
                    "indexed": false,
                    "internalType": "uint256",
                    "name": "repaymentAmount",
                    "type": "uint256"
                },
                {
                    "indexed": false,
                    "internalType": "uint256",
                    "name": "repaymentNumber",
                    "type": "uint256"
                }
            ],
            "name": "RepaymentPaidEvent",
            "type": "event"
        },
        {
            "anonymous": false,
            "inputs": [],
            "name": "Unpaused",
            "type": "event"
        },
        {
            "anonymous": false,
            "inputs": [
                {
                    "indexed": false,
                    "internalType": "uint256[]",
                    "name": "interestRates",
                    "type": "uint256[]"
                }
            ],
            "name": "UpdateInterestRateAndRepaymentsEvent",
            "type": "event"
        },
        {
            "inputs": [],
            "name": "CURRENCY",
            "outputs": [
                {
                    "internalType": "bytes32",
                    "name": "",
                    "type": "bytes32"
                }
            ],
            "stateMutability": "view",
            "type": "function"
        },
        {
            "inputs": [],
            "name": "INTEREST_RATE_TYPE",
            "outputs": [
                {
                    "internalType": "enum LoanAssetLib.InterestRateTypeEnum",
                    "name": "",
                    "type": "uint8"
                }
            ],
            "stateMutability": "view",
            "type": "function"
        },
        {
            "inputs": [],
            "name": "ISSUANCE_COUNTRY",
            "outputs": [
                {
                    "internalType": "bytes32",
                    "name": "",
                    "type": "bytes32"
                }
            ],
            "stateMutability": "view",
            "type": "function"
        },
        {
            "inputs": [],
            "name": "ISSUER",
            "outputs": [
                {
                    "internalType": "address",
                    "name": "",
                    "type": "address"
                }
            ],
            "stateMutability": "view",
            "type": "function"
        },
        {
            "inputs": [],
            "name": "LOAN_TYPE",
            "outputs": [
                {
                    "internalType": "enum LoanAssetLib.LoanTypeEnum",
                    "name": "",
                    "type": "uint8"
                }
            ],
            "stateMutability": "view",
            "type": "function"
        },
        {
            "inputs": [],
            "name": "MATURITY_DATE",
            "outputs": [
                {
                    "internalType": "uint256",
                    "name": "",
                    "type": "uint256"
                }
            ],
            "stateMutability": "view",
            "type": "function"
        },
        {
            "inputs": [],
            "name": "NAME",
            "outputs": [
                {
                    "internalType": "bytes32",
                    "name": "",
                    "type": "bytes32"
                }
            ],
            "stateMutability": "view",
            "type": "function"
        },
        {
            "inputs": [
                {
                    "internalType": "uint256",
                    "name": "",
                    "type": "uint256"
                }
            ],
            "name": "REPAYMENTS_DATES",
            "outputs": [
                {
                    "internalType": "uint256",
                    "name": "",
                    "type": "uint256"
                }
            ],
            "stateMutability": "view",
            "type": "function"
        },
        {
            "inputs": [],
            "name": "START_DATE",
            "outputs": [
                {
                    "internalType": "uint256",
                    "name": "",
                    "type": "uint256"
                }
            ],
            "stateMutability": "view",
            "type": "function"
        },
        {
            "inputs": [],
            "name": "TOTAL_AMOUNT",
            "outputs": [
                {
                    "internalType": "uint256",
                    "name": "",
                    "type": "uint256"
                }
            ],
            "stateMutability": "view",
            "type": "function"
        },
        {
            "inputs": [],
            "name": "TOTAL_REPAYMENT_NUMBER",
            "outputs": [
                {
                    "internalType": "uint256",
                    "name": "",
                    "type": "uint256"
                }
            ],
            "stateMutability": "view",
            "type": "function"
        },
        {
            "inputs": [],
            "name": "anticipatePayment",
            "outputs": [],
            "stateMutability": "payable",
            "type": "function"
        },
        {
            "inputs": [
                {
                    "internalType": "uint256",
                    "name": "",
                    "type": "uint256"
                }
            ],
            "name": "borrowers",
            "outputs": [
                {
                    "internalType": "address",
                    "name": "",
                    "type": "address"
                }
            ],
            "stateMutability": "view",
            "type": "function"
        },
        {
            "inputs": [
                {
                    "internalType": "address",
                    "name": "",
                    "type": "address"
                }
            ],
            "name": "borrowersInfo",
            "outputs": [
                {
                    "internalType": "enum LoanAssetLib.BorrowerStatusEnum",
                    "name": "status",
                    "type": "uint8"
                },
                {
                    "internalType": "uint256",
                    "name": "shares",
                    "type": "uint256"
                },
                {
                    "internalType": "uint256",
                    "name": "spread",
                    "type": "uint256"
                }
            ],
            "stateMutability": "view",
            "type": "function"
        },
        {
            "inputs": [
                {
                    "internalType": "address",
                    "name": "",
                    "type": "address"
                }
            ],
            "name": "borrowersOutstandingPrincipals",
            "outputs": [
                {
                    "internalType": "uint256",
                    "name": "outstandingPrincipalAmount",
                    "type": "uint256"
                },
                {
                    "internalType": "uint256",
                    "name": "nextRepaymentIndex",
                    "type": "uint256"
                },
                {
                    "internalType": "uint256",
                    "name": "anticipatedRepaymentAmount",
                    "type": "uint256"
                }
            ],
            "stateMutability": "view",
            "type": "function"
        },
        {
            "inputs": [
                {
                    "internalType": "address",
                    "name": "",
                    "type": "address"
                },
                {
                    "internalType": "uint256",
                    "name": "",
                    "type": "uint256"
                }
            ],
            "name": "borrowersRepayments",
            "outputs": [
                {
                    "internalType": "uint256",
                    "name": "paymentDate",
                    "type": "uint256"
                },
                {
                    "internalType": "uint256",
                    "name": "interestRate",
                    "type": "uint256"
                },
                {
                    "internalType": "enum LoanAssetLib.RepaymentStatusEnum",
                    "name": "status",
                    "type": "uint8"
                }
            ],
            "stateMutability": "view",
            "type": "function"
        },
        {
            "inputs": [],
            "name": "calculateNextRepaymentAmount",
            "outputs": [
                {
                    "internalType": "uint256",
                    "name": "",
                    "type": "uint256"
                }
            ],
            "stateMutability": "view",
            "type": "function"
        },
        {
            "inputs": [],
            "name": "currentLoanStatus",
            "outputs": [
                {
                    "internalType": "enum LoanAssetLib.LoanStatusEnum",
                    "name": "",
                    "type": "uint8"
                }
            ],
            "stateMutability": "view",
            "type": "function"
        },
        {
            "inputs": [],
            "name": "depositFunds",
            "outputs": [],
            "stateMutability": "payable",
            "type": "function"
        },
        {
            "inputs": [
                {
                    "internalType": "address",
                    "name": "borrower",
                    "type": "address"
                }
            ],
            "name": "disableAnticipatePayment",
            "outputs": [],
            "stateMutability": "nonpayable",
            "type": "function"
        },
        {
            "inputs": [
                {
                    "internalType": "address",
                    "name": "_borrower",
                    "type": "address"
                },
                {
                    "internalType": "uint256",
                    "name": "_totalAmountToAnticipate",
                    "type": "uint256"
                }
            ],
            "name": "enableAnticipatePayment",
            "outputs": [],
            "stateMutability": "nonpayable",
            "type": "function"
        },
        {
            "inputs": [
                {
                    "internalType": "uint256",
                    "name": "",
                    "type": "uint256"
                }
            ],
            "name": "lenders",
            "outputs": [
                {
                    "internalType": "address",
                    "name": "",
                    "type": "address"
                }
            ],
            "stateMutability": "view",
            "type": "function"
        },
        {
            "inputs": [
                {
                    "internalType": "address",
                    "name": "",
                    "type": "address"
                }
            ],
            "name": "lendersInfo",
            "outputs": [
                {
                    "internalType": "enum LoanAssetLib.LenderStatusEnum",
                    "name": "status",
                    "type": "uint8"
                },
                {
                    "internalType": "uint256",
                    "name": "shares",
                    "type": "uint256"
                }
            ],
            "stateMutability": "view",
            "type": "function"
        },
        {
            "inputs": [],
            "name": "pause",
            "outputs": [],
            "stateMutability": "nonpayable",
            "type": "function"
        },
        {
            "inputs": [],
            "name": "payPrincipal",
            "outputs": [],
            "stateMutability": "payable",
            "type": "function"
        },
        {
            "inputs": [
                {
                    "internalType": "uint256",
                    "name": "repaymentIndex",
                    "type": "uint256"
                }
            ],
            "name": "payRepayment",
            "outputs": [],
            "stateMutability": "payable",
            "type": "function"
        },
        {
            "inputs": [
                {
                    "internalType": "address",
                    "name": "borrower",
                    "type": "address"
                }
            ],
            "name": "setDefault",
            "outputs": [],
            "stateMutability": "nonpayable",
            "type": "function"
        },
        {
            "inputs": [],
            "name": "setLoanClosed",
            "outputs": [],
            "stateMutability": "nonpayable",
            "type": "function"
        },
        {
            "inputs": [],
            "name": "setLoanMatured",
            "outputs": [],
            "stateMutability": "nonpayable",
            "type": "function"
        },
        {
            "inputs": [],
            "name": "setLoanStart",
            "outputs": [],
            "stateMutability": "nonpayable",
            "type": "function"
        },
        {
            "inputs": [],
            "name": "unpause",
            "outputs": [],
            "stateMutability": "nonpayable",
            "type": "function"
        },
        {
            "inputs": [
                {
                    "internalType": "uint256[]",
                    "name": "_interestRates",
                    "type": "uint256[]"
                }
            ],
            "name": "updateInterestRateAndRepayments",
            "outputs": [],
            "stateMutability": "nonpayable",
            "type": "function"
        },
        {
            "inputs": [],
            "name": "withdrawFunds",
            "outputs": [],
            "stateMutability": "nonpayable",
            "type": "function"
        }
    ],
    "bytecode": "6101c06040523462000f1f576200315680380390816200001f8162000f63565b9182398082810103610120811262000f1f5760e01362000f1f576040519160e083016001600160401b0381118482101762000861576040528151835260208201516020840152604082015160408401526060820151600281101562000f1f5760608401526080820151600281101562000f1f57608084015260a0828101519084015260c0808301519084015260e0820151906001600160401b03821162000f1f576080828401828501031262000f1f57620000d962000f23565b838301519092906001600160401b03811162000f1f576200010290838601908387010162000fa1565b8352838101602001516001600160401b03811162000f1f576200012d90838601908387010162001015565b6020840152838101604001516001600160401b03811162000f1f576200015b90838601908387010162000fa1565b604084015283810160600151906001600160401b03821162000f1f5762000189918386019186010162001015565b6060830152610100830151926001600160401b03841162000f1f576080848201838301031262000f1f57620001bd62000f23565b81850180518252602001519094906001600160401b03811162000f1f57620001ed90848401908385010162001015565b6020860152818101604001516001600160401b03811162000f1f576200021b90848401908385010162001015565b604086015281810160600151906001600160401b03821162000f1f576200024793830192010162001015565b606083015282511562000ec75760208301511562000e5b5760408301511562000dff5760a08301514281111562000da3575060c08301514281111562000d44575060a083015160c08401518082101562000ce157505081511562000c8b576040810151511562000c39576040810151516060820151519081810362000bdd5750508051511562000b8c578051516020820151519081810362000b3a57505060208201515160408201515180820362000ade57505060408201515160408201515180820362000a7a5750506060820151511562000a215733608052825160a052602083015160c052604083015160e05281516101005260a08301516101205260c08301516101405260608301516200035e8162001072565b610160526080830151620003728162001072565b61018052606082018051516101a0525151915f5b838110620009f957508151515f5b818110620008cd575050604082015151935f5b858110620004ed5760ff195f54165f5560a0517f49acfc68157e7387cc4ecb6a56cfeb67c008a572e05217836e6015874960b02f604060018060a01b0360805116926101005182519182526020820152a26040516120839081620010d382396080518181816101ae01528181610424015281816106c101528181610d6f015281816110990152818161118d015281816111ce0152818161123f015281816118120152611a53015260a05181610ca6015260c05181610bc6015260e0518161038e01526101005181818161056101528181610ce0015261185f015261012051816116c00152610140518181816104e90152611287015261016051818181611049015281816114420152611e330152610180518181816107230152610c6301526101a0518181816108150152818161083b01528181611155015281816113c60152611e6c0152f35b60408401516001600160a01b0390620005089083906200107d565b51166200051a8260608701516200107d565b5190811562000875576003546801000000000000000081101562000861576001810180600355811015620007d45760035f527fc2575a0e9e593c00f959f8c92f12db2869c3395a3b0502d05e2516446f71f85b0180546001600160a01b031916821790556020850151620005909084906200107d565b516200059b62000f43565b90600282528360208301526040820152815f52600460205260405f209080516006811015620007105760029160409160ff80198654169116178455602081015160018501550151910155610100519081838102048314821517156200084d576001880188116200084d576002906200061262000f43565b926064948591020483526020830160018a01815260408401915f83525f52600760205260405f2093518455516001840155519101556080830151620006578162001072565b620006628162001072565b6200072457505f5b8581106200067e57506001905b01620003a7565b620006ab620006928260608701516200107d565b51620006a38460408801516200107d565b51906200109d565b9060018060a01b03620006c38460408901516200107d565b51165f52600660205260405f20815f526020526040805f209280518455602081015160018501550151600381101562000710576002600193019060ff80198354169116179055016200066a565b634e487b7160e01b5f52602160045260245ffd5b60016080840151620007368162001072565b620007418162001072565b03620007e857506060830151805115620007d45760206200076e910151620006a38360408701516200107d565b9060018060a01b03620007868260408801516200107d565b51165f52600660205260405f205f80526020526040805f2092805184556020810151600185015501519160038310156200071057600260019360ff8019838501541691161791015562000677565b634e487b7160e01b5f52603260045260245ffd5b6084906080840151620007fb8162001072565b7f556e6b6e6f776e20696e746572657374207261746520747970652e00000000006040519263023953af60e51b845260406004850152601b6044850152830152620008468162001072565b6024820152fd5b634e487b7160e01b5f52601160045260245ffd5b634e487b7160e01b5f52604160045260245ffd5b60405163099b6f8d60e11b815260206004820152602960248201527f426f72726f776572207368617265206d757374206265206772656174657220746044820152683430b7103d32b9379760b91b6064820152608490fd5b83516001600160a01b0390620008e59083906200107d565b511690620008f88160208701516200107d565b518015620009a3576001928354680100000000000000008110156200086157848101808655811015620007d4575f858152602090200180546001600160a01b031916821790556040805192908301916001600160401b0383118484101762000861578592604052828452602084019182525f52600260205260405f209251620009818162001092565b6200098c8162001092565b60ff80198554169116178355519101550162000394565b60405163099b6f8d60e11b815260206004820152602760248201527f4c656e646572207368617265206d75737420626520677265617465722074686160448201526637103d32b9379760c91b6064820152608490fd5b8062000a0c60019260608501516200107d565b51815f52600560205260405f20550162000386565b6040516306cfa14d60e01b815260206004820152602a60248201527f52657061796d656e74206461746573206d7573742062652067726561746572206044820152693a3430b7103d32b9379760b11b6064820152608490fd5b60c4925060405191639dbdf7d760e01b835260606004840152602960648401527f4d69736d6174636820696e20626f72726f7765727320616e6420696e7465726560848401526839ba103930ba32b99760b91b60a484015260248301526044820152fd5b60c492506040519163cb8c6ef960e01b835260606004840152602160648401527f4d69736d6174636820696e20626f72726f7765727320616e64207370726561646084840152601760f91b60a484015260248301526044820152fd5b60a4925060405191636763dda560e01b835260606004840152601f60648401527f4d69736d6174636820696e206c656e6465727320616e64207368617265732e00608484015260248301526044820152fd5b6040516306cfa14d60e01b815260206004820152602260248201527f4c656e64657273206d7573742062652067726561746572207468616e207a6572604482015261379760f11b6064820152608490fd5b60c49250604051916327eb433760e01b835260606004840152602160648401527f4d69736d6174636820696e20626f72726f7765727320616e64207368617265736084840152601760f91b60a484015260248301526044820152fd5b6040516306cfa14d60e01b8152602060048201526024808201527f426f72726f77657273206d7573742062652067726561746572207468616e207a60448201526332b9379760e11b6064820152608490fd5b60405163099b6f8d60e11b815260206004820152602760248201527f546f74616c20616d6f756e74206d75737420626520677265617465722074686160448201526637103d32b9379760c91b6064820152608490fd5b60c4925060405191635058917d60e01b835260606004840152602860648401527f53746172742064617465206d757374206265206265666f7265206d61747572696084840152673a3c903230ba329760c11b60a484015260248301526044820152fd5b60c49060405190635058917d60e01b825260606004830152602460648301527f4d617475726974792064617465206d75737420626520696e20746865206675746084830152633ab9329760e11b60a48301526024820152426044820152fd5b60c49060405190635058917d60e01b825260606004830152602160648301527f53746172742064617465206d75737420626520696e20746865206675747572656084830152601760f91b60a48301526024820152426044820152fd5b604051634ef7d6ed60e01b815260206004820152602d60248201527f43757272656e6379206d75737420626520646966666572656e742066726f6d2060448201526c32b6b83a3c9039ba3934b7339760991b6064820152608490fd5b604051634ef7d6ed60e01b815260206004820152603560248201527f49737375616e636520636f756e747279206d757374206265206469666665726560448201527f6e742066726f6d20656d70747920737472696e672e00000000000000000000006064820152608490fd5b604051634ef7d6ed60e01b815260206004820152602960248201527f4e616d65206d75737420626520646966666572656e742066726f6d20656d70746044820152683c9039ba3934b7339760b91b6064820152608490fd5b5f80fd5b60405190608082016001600160401b038111838210176200086157604052565b60405190606082016001600160401b038111838210176200086157604052565b6040519190601f01601f191682016001600160401b038111838210176200086157604052565b6001600160401b038111620008615760051b60200190565b9080601f8301121562000f1f5781519062000fc662000fc08362000f89565b62000f63565b9182938184526020808095019260051b82010192831162000f1f578301905b82821062000ff4575050505090565b81516001600160a01b038116810362000f1f57815290830190830162000fe5565b9080601f8301121562000f1f578151906200103462000fc08362000f89565b9182938184526020808095019260051b82010192831162000f1f578301905b82821062001062575050505090565b8151815290830190830162001053565b600211156200071057565b8051821015620007d45760209160051b010190565b600411156200071057565b905f6040620010ab62000f43565b8281528260208201520152620010c062000f43565b9182526020820152600160408201529056fe6080806040526004361015610012575f80fd5b5f3560e01c90816301798e6714611a385750806301ddea91146119195780631789e826146117f857806324600fc3146116e3578063372c6533146116a957806337837f471461136f57806339889be31461134c5780633cfcca9d1461122d5780633f4ba83a146111bc5780634339b42114611178578063525fec191461113e57806360a2bef314611075578063616693d81461103557806367dad90714610e145780637924d93f14610dd25780638456cb5914610d5d578063929eea2114610d03578063a2d7f5e314610cc9578063a3f4df7e14610c8f578063a50ff1bb14610c4f578063ab94290214610be9578063b639494314610baf578063c56e4a8914610b54578063c781197914610b07578063c8395e8a14610adf578063cdd27fac14610ab5578063cf9ae0c31461066c578063e2c41dbc1461050c578063e593bd74146104d2578063e823d5cf14610400578063f069e44d146103b1578063f5361219146103775763fe93eb0414610187575f80fd5b34610373576040366003190112610373576101a0611beb565b602435906001600160a01b037f0000000000000000000000000000000000000000000000000000000000000000811633036103585760ff5f54166101e381611c4d565b6001810361033b5750811690815f52600460205260ff60405f205416600681101561032757600203610306575081156102a2575f52600760205260405f208054156102475760020155335f908152600460205260409020805460ff19166005179055005b60405163099b6f8d60e11b815260206004820152602c60248201527f4e6f206f75747374616e64696e67207072696e636970616c20616d6f756e742060448201526b3632b33a103a37903830bc9760a11b6064820152608490fd5b60405163099b6f8d60e11b815260206004820152603560248201527f546f74616c20616d6f756e7420746f20616e7469636970617465206d7573742060448201527431329033b932b0ba32b9103a3430b7103d32b9379760591b6064820152608490fd5b6040516305ee3fdf60e41b81529081906103239060048301611fa8565b0390fd5b634e487b7160e01b5f52602160045260245ffd5b6040516318b4c7e760e11b81529081906103239060048301611f50565b604051632862fafd60e11b8152806103233360048301611c98565b5f80fd5b34610373575f3660031901126103735760206040517f00000000000000000000000000000000000000000000000000000000000000008152f35b34610373576020366003190112610373576001600160a01b036103d2611beb565b165f526007602052606060405f20805490600260018201549101549060405192835260208301526040820152f35b3461037357602036600319011261037357610419611beb565b6001600160a01b03907f0000000000000000000000000000000000000000000000000000000000000000821633036103585716805f52600460205260ff60405f205416600681101561032757600203610486575f52600460205260405f20600460ff198254161790555f80f35b608490604051906305ee3fdf60e41b825260406004830152601860448301527f426f72726f776572206973206e6f7420656e61626c65642e000000000000000060648301526024820152fd5b34610373575f3660031901126103735760206040517f00000000000000000000000000000000000000000000000000000000000000008152f35b5f36600319011261037357335f526002602052600160ff60405f20541661053281611c4d565b0361064c5760ff5f541661054581611c4d565b8061062f57335f5260026020526064610586600160405f2001547f000000000000000000000000000000000000000000000000000000000000000090611d16565b0434036105d257335f52600260205260405f20600260ff198254161790556040513481527f9fd1f086169d30d7daab8b193610aa292d1f19446760212b4d8a32c99c6721cd60203392a2005b60a460405163cf1452b560e01b815260406004820152602960448201527f4465706f73697420616d6f756e74206d757374206265206772656174657220746064820152683430b7103d32b9379760b91b6084820152346024820152fd5b6040516318b4c7e760e11b81529081906103239060048301611cbd565b60405162461bcd60e51b8152602060048201528061032360248201611c57565b346103735760203660031901126103735767ffffffffffffffff806004351161037357366023600435011215610373576004356004013511610373573660246004356004013560051b600435010111610373577f00000000000000000000000000000000000000000000000000000000000000006001600160a01b031633036103585760ff5f54166106fd81611c4d565b60018103610a5e576004356004013515610a0257600354806004356004013503610999577f000000000000000000000000000000000000000000000000000000000000000061074b81611c01565b6001810361090a57505f5b8181106107ca5760405160208082526004803501359082018190526001600160fb1b0310610373577f6360badf65e02a0d459c3b753b21e899621f3854fb6089d0044d24d2cfa6839e906004356004013560051b60246004350160408301376040816004356004013560051b8101030190a1005b6107d381611c0b565b60018060a01b0391549060031b1c1690815f52600760205261083960405f206107fa611d29565b815481526040600260018401549384602085015201549101527f0000000000000000000000000000000000000000000000000000000000000000611d56565b7f00000000000000000000000000000000000000000000000000000000000000008110156108fe57805f52600560205260405f2054600435600401358310156108ea57600291610887611d29565b918252602082019060248560051b60043501013582526040830195600187525f52600660205260405f20905f5260205260405f20915182555160018201550191519160038310156103275760019260ff8019835416911617905501905b90610756565b634e487b7160e01b5f52603260045260245ffd5b506001915001906108e4565b6040516333d4c68760e21b815260606004820152604560648201527f496e74657265737420726174652074797065206d75737420626520666c6f617460848201527f696e6720696e206f7264657220746f2075706461746520696e7465726573742060a4820152643930ba329760d91b60c482015260e49161098b81611c01565b602482015260016044820152fd5b60c4906040519063cb8c6ef960e01b825260606004830152602860648301527f4d69736d6174636820696e20696e746572657374207261746520616e6420626f608483015267393937bbb2b9399760c11b60a48301526004356004013560248301526044820152fd5b6040516306cfa14d60e01b815260206004820152602d60248201527f496e746572657374206c656e677468204952206d75737420626520677265617460448201526c32b9103a3430b7103d32b9379760991b6064820152608490fd5b6040516318b4c7e760e11b815260606004820152602160648201527f4c6f616e206973206e6f7420696e207072656c696d696e6172792073746174656084820152602160f81b60a482015260c49161098b81611c4d565b34610373576020366003190112610373576004355f526005602052602060405f2054604051908152f35b34610373575f36600319011261037357602060ff5f541660405190610b0381611c4d565b8152f35b34610373576020366003190112610373576001600160a01b03610b28611beb565b165f5260026020526040805f20600160ff825416910154825191610b4b81611c4d565b82526020820152f35b34610373576020366003190112610373576001600160a01b03610b75611beb565b165f52600460205260405f2060ff815416906002600182015491015460405191600684101561032757606093835260208301526040820152f35b34610373575f3660031901126103735760206040517f00000000000000000000000000000000000000000000000000000000000000008152f35b34610373576040366003190112610373576001600160a01b03610c0a611beb565b165f52600660205260405f206024355f52602052606060405f20610c4d81549160ff60026001830154920154169060405193845260208401526040830190611c40565bf35b34610373575f3660031901126103735760207f000000000000000000000000000000000000000000000000000000000000000060405190610b0381611c01565b34610373575f3660031901126103735760206040517f00000000000000000000000000000000000000000000000000000000000000008152f35b34610373575f3660031901126103735760206040517f00000000000000000000000000000000000000000000000000000000000000008152f35b34610373576020366003190112610373576004356001548110156103735760015f527fb10e2d527612073b26eecdfd717e6a320cf44b4afac2b0732d9fcbe2b7fa0cf601546040516001600160a01b039091168152602090f35b34610373575f366003190112610373577f00000000000000000000000000000000000000000000000000000000000000006001600160a01b031633036103585761010061ff001960085416176008557f9e87fac88ff661f02d44f95383c817fece4bce600a3dab7a54406878b965e7525f80a1005b346103735760203660031901126103735760043560035481101561037357610dfb602091611c0b565b905460405160039290921b1c6001600160a01b03168152f35b5f3660031901126103735760085460ff8116610fef57600160ff1980921617600855335f5260206004815260ff60405f205416600681101561032757600203610fd45760ff5f5416610e6581611c4d565b60028103610f825750610e7733611d63565b15610f2c57335f526007815260405f2080548015610f2c573403610ee8576001815f8093550155335f526004815260405f206003838254161790557fe1c095a926435ee6d7886d9bcfb375c1378aba1311e21f624834c84c2bccfb90604051913483523392a2600854166008555f80f35b6064826040519063fb9d993560e01b825280600483015260248201527f496e636f7272656374207072696e636970616c20616d6f756e742073656e742e6044820152fd5b60405163099b6f8d60e11b815260206004820152602760248201527f4e6f206f75747374616e64696e67207072696e636970616c20616d6f756e74206044820152663a37903830bc9760c91b6064820152608490fd5b6040516318b4c7e760e11b81526060600482015260146064820152732637b0b71034b9903737ba1036b0ba3ab932b21760611b608482015260a491610fc681611c4d565b602482015260026044820152fd5b6040516305ee3fdf60e41b8152806103233360048301611c98565b604051632bb29e1d60e21b815260206004820152601f60248201527f5265656e7472616e637947756172643a207265656e7472616e742063616c6c006044820152606490fd5b34610373575f3660031901126103735760207f000000000000000000000000000000000000000000000000000000000000000060405190610b0381611c01565b346103735760203660031901126103735761108e611beb565b6001600160a01b03907f0000000000000000000000000000000000000000000000000000000000000000821633036103585760ff5f54166110ce81611c4d565b6001810361033b5750335f52600460205260ff60405f20541660068110156103275760050361112357165f5260076020525f6002604082200155335f52600460205260405f20600260ff198254161790555f80f35b6040516305ee3fdf60e41b8152806103233360048301611fa8565b34610373575f3660031901126103735760206040517f00000000000000000000000000000000000000000000000000000000000000008152f35b34610373575f366003190112610373576040517f00000000000000000000000000000000000000000000000000000000000000006001600160a01b03168152602090f35b34610373575f366003190112610373577f00000000000000000000000000000000000000000000000000000000000000006001600160a01b031633036103585761ff0019600854166008557fa45f47fdea8a1efdd9029a5691c7f759c32b7c698632b563573e155625d169335f80a1005b34610373575f366003190112610373577f00000000000000000000000000000000000000000000000000000000000000006001600160a01b03163303610358575f5460ff811661127c81611c4d565b6001810361132f57507f00000000000000000000000000000000000000000000000000000000000000008042106112dd5760028260ff1916175f557fb1db5bcbc9a43371cacff81873d6d36def2657648483dcc6e9c54bb17e5a98a45f80a1005b60a49060405190635058917d60e01b825260606004830152601960648301527f4c6f616e20686173206e6f74206d617475726564207965742e0000000000000060848301524260248301526044820152fd5b6040516318b4c7e760e11b81529081906103239060048301612006565b34610373575f36600319011261037357602061136733611d63565b604051908152f35b602080600319360112610373576008549060043560ff8316610fef576001918260ff1980951617600855335f526004815260ff60405f205416600681101561032757600203610fd457335f526007815260405f20927f0000000000000000000000000000000000000000000000000000000000000000808410156116575750335f526006825260405f20835f52825260405f2090600282019160ff8354166003811015610327578281036115eb575054428111611588575061143033611d63565b94851561152d578534036114e95781907f000000000000000000000000000000000000000000000000000000000000000061146a81611c01565b82146114d7575b019081545f1981146114c3570190556002858254161790556040519283528201527f400023aee8932395c7b86208735ec638dd940bb9d900452ad3875686e8e92d7860403392a2600854166008555f80f35b634e487b7160e01b5f52601160045260245ffd5b6114e2878254611d56565b8155611471565b6064846040519063fb9d993560e01b825280600483015260248201527f496e636f72726563742072657061796d656e7420616d6f756e742073656e742e6044820152fd5b60405163099b6f8d60e11b815260048101859052602c60248201527f52657061796d656e74206d75737420626520646566696e6564206265666f726560448201526b103132b4b733903830b4b21760a11b6064820152608490fd5b60c49060405190635058917d60e01b825260606004830152602860648301527f52657061796d656e74206461746520686173206e6f74206265656e20726561636084830152673432b2103cb2ba1760c11b60a48301526024820152426044820152fd5b604051630b4b77dd60e21b815260806004820152602260848201527f52657061796d656e74206973206e6f7420696e2073746174757320756e70616960a482015261321760f11b60c482015233602482015260e4918490611650906044840190611c40565b6064820152fd5b60a4908460405191632407ea4d60e11b835260606004840152601960648401527f496e76616c69642072657061796d656e74206e756d6265722e00000000000000608484015260248301526044820152fd5b34610373575f3660031901126103735760206040517f00000000000000000000000000000000000000000000000000000000000000008152f35b34610373575f3660031901126103735760085460ff8116610fef57600160ff1980921617600855335f526002602052600160ff60405f20541661172581611c4d565b0361064c575f808080606461174a473384526002602052600160408520015490611d16565b04335af13d156117f35767ffffffffffffffff3d8181116117df5760405191601f8201601f19908116603f01168301908111838210176117df5760405281525f60203d92013e5b156117a157600854166008555f80f35b60846040516305ee3fdf60e41b815260406004820152601060448201526f2a3930b739b332b9103330b4b632b21760811b6064820152336024820152fd5b634e487b7160e01b5f52604160045260245ffd5b611791565b34610373575f366003190112610373576001600160a01b037f000000000000000000000000000000000000000000000000000000000000000081163303610358575f549060ff821661184981611c4d565b8061062f57506001809260ff1916175f555f90827f0000000000000000000000000000000000000000000000000000000000000000905b6118ab575b7fcc8e63a11a79470a56cd347a85d37fa00cf3da532e3a309b2ceb10d4f377d6255f80a1005b60038054841015611913575f80808581946118c589611c0b565b9054911b1c16808252600460205260646118e5878b604086200154611d16565b049082821561190a575bf1156118ff578380930192611880565b6040513d5f823e3d90fd5b506108fc6118ef565b50611885565b5f3660031901126103735760085460ff8116610fef5760ff199081166001176008555f5460ff1661194981611c4d565b6001810361132f5750335f52600460205260ff60405f20541660068110156103275760050361112357335f52600760205260405f206002810154908134106119e0576001815f8093550155335f52600460205260405f206003838254161790556040519081527fe1c095a926435ee6d7886d9bcfb375c1378aba1311e21f624834c84c2bccfb9060203392a2600854166008555f80f35b604051633e49f6c360e21b815260206004820152602960248201527f496e73756666696369656e742066756e647320746f20616e7469636970617465604482015268103830bcb6b2b73a1760b91b6064820152608490fd5b34610373575f366003190112610373576001600160a01b03907f000000000000000000000000000000000000000000000000000000000000000082163303611bd357505f5460ff8116611a8a81611c4d565b60028103611b7957506003918254905f5b828110611aae5750505060ff1916175f55005b81611ab882611c0b565b905490871b1c165f526007602081815260405f2054611adb575050600101611a9b565b8387611af960e496611aec87611c0b565b905490841b1c1695611c0b565b9054911b1c165f525260405f20546040519163b75c4d4b60e01b835260806004840152603560848401527f416c6c20626f72726f77657273206d7573742070617920616c6c20726570617960a48401527436b2b73a39903132b337b9329031b637b9b4b7339760591b60c4840152602483015260448201525f6064820152fd5b6040516318b4c7e760e11b815260606004820152602460648201527f4c6f616e206d757374206265206d617475726564206265666f726520636c6f7360848201526334b7339760e11b60a482015260c491610fc681611c4d565b632862fafd60e11b8152806103233360048301611c98565b600435906001600160a01b038216820361037357565b6002111561032757565b6003548110156108ea5760035f527fc2575a0e9e593c00f959f8c92f12db2869c3395a3b0502d05e2516446f71f85b01905f90565b9060038210156103275752565b6004111561032757565b602881527f4f6e6c7920746865206c656e6465722063616e20706572666f726d20746869736020820152671030b1ba34b7b71760c11b604082015260600190565b919091604081526020611cad60408301611c57565b6001600160a01b03909416910152565b60405f9193929360608152602160608201527f4c6f616e206973206e6f7420696e207072656c696d696e6172792073746174656080820152602160f81b60a082015260c0810194611d0d81611c4d565b60208201520152565b818102929181159184041417156114c357565b604051906060820182811067ffffffffffffffff8211176117df57604052565b919082018092116114c357565b919082039182116114c357565b6001600160a01b03165f818152600760209081526040808320929493909290611d8a611d29565b928254845260026001840154938286019485520154858501528187526006815284872083518852815284872091611dbf611d29565b8354815260ff6002600186015495858401968752015416906003821015611f3c57870152875260048152848720611df4611d29565b9160ff8254166006811015611f3c5783526001820154908301526002015490850181905283519151611e309291611e2a91611d49565b90611d16565b927f0000000000000000000000000000000000000000000000000000000000000000611e5b81611c01565b60018103611eda575050611e9090517f0000000000000000000000000000000000000000000000000000000000000000611d56565b9060018201809211611ec657518115611eb257611eaf93945004611d49565b90565b634e487b7160e01b85526012600452602485fd5b634e487b7160e01b85526011600452602485fd5b92509293945050611eea81611c01565b80611ef457505090565b608492508151916329f8e8c960e21b83526004830152601260448301527124b73b30b634b2103637b0b7103a3cb8329760711b6064830152611f3581611c01565b6024820152fd5b634e487b7160e01b8a52602160045260248afd5b604060019193929360608152602860608201527f4c6f616e206d757374206265206c69766520746f20616e7469636970617465206080820152673830bcb6b2b73a1760c11b60a082015260c0810194611d0d81611c4d565b6040808252602e908201527f426f72726f776572206973206e6f7420656e61626c656420746f20616e74696360608201526d34b830ba32903830bcb6b2b73a1760911b60808201526001600160a01b03909116602082015260a00190565b604060019193929360608152601e60608201527f4c6f616e206d757374206265206c69766520746f20636c6f73652069742e0000608082015260a0810194611d0d81611c4d56fea2646970667358221220275f1ced7edc3a3bbd9031daccde129cee01043f59beda7bc6ed84360a5ef68f64736f6c63430008140033",
    "sourcePath": "d:/IntesaSanpaolo/Projects/Avalanche/avalanche-sc-hardhat/contracts/security/Draft/LoanAsset.sol",
    "compiler": {
        "name": "solc",
        "version": "0.8.20+commit.a1b79de6"
    },
    "functionHashes": {
        "CURRENCY()": "f5361219",
        "INTEREST_RATE_TYPE()": "a50ff1bb",
        "ISSUANCE_COUNTRY()": "b6394943",
        "ISSUER()": "4339b421",
        "LOAN_TYPE()": "616693d8",
        "MATURITY_DATE()": "e593bd74",
        "NAME()": "a3f4df7e",
        "REPAYMENTS_DATES(uint256)": "cdd27fac",
        "START_DATE()": "372c6533",
        "TOTAL_AMOUNT()": "a2d7f5e3",
        "TOTAL_REPAYMENT_NUMBER()": "525fec19",
        "anticipatePayment()": "01ddea91",
        "borrowers(uint256)": "7924d93f",
        "borrowersInfo(address)": "c56e4a89",
        "borrowersOutstandingPrincipals(address)": "f069e44d",
        "borrowersRepayments(address,uint256)": "ab942902",
        "calculateNextRepaymentAmount()": "39889be3",
        "currentLoanStatus()": "c8395e8a",
        "depositFunds()": "e2c41dbc",
        "disableAnticipatePayment(address)": "60a2bef3",
        "enableAnticipatePayment(address,uint256)": "fe93eb04",
        "lenders(uint256)": "929eea21",
        "lendersInfo(address)": "c7811979",
        "pause()": "8456cb59",
        "payPrincipal()": "67dad907",
        "payRepayment(uint256)": "37837f47",
        "setDefault(address)": "e823d5cf",
        "setLoanClosed()": "01798e67",
        "setLoanMatured()": "3cfcca9d",
        "setLoanStart()": "1789e826",
        "unpause()": "3f4ba83a",
        "updateInterestRateAndRepayments(uint256[])": "cf9ae0c3",
        "withdrawFunds()": "24600fc3"
    },
    "gasEstimates": {
        "creation": {
            "codeDepositCost": "1664600",
            "executionCost": "infinite",
            "totalCost": "infinite"
        },
        "external": {
            "CURRENCY()": "infinite",
            "INTEREST_RATE_TYPE()": "infinite",
            "ISSUANCE_COUNTRY()": "infinite",
            "ISSUER()": "infinite",
            "LOAN_TYPE()": "infinite",
            "MATURITY_DATE()": "infinite",
            "NAME()": "infinite",
            "REPAYMENTS_DATES(uint256)": "2871",
            "START_DATE()": "infinite",
            "TOTAL_AMOUNT()": "infinite",
            "TOTAL_REPAYMENT_NUMBER()": "infinite",
            "anticipatePayment()": "infinite",
            "borrowers(uint256)": "6903",
            "borrowersInfo(address)": "7178",
            "borrowersOutstandingPrincipals(address)": "7323",
            "borrowersRepayments(address,uint256)": "7242",
            "calculateNextRepaymentAmount()": "infinite",
            "currentLoanStatus()": "2846",
            "depositFunds()": "infinite",
            "disableAnticipatePayment(address)": "infinite",
            "enableAnticipatePayment(address,uint256)": "infinite",
            "lenders(uint256)": "4775",
            "lendersInfo(address)": "5094",
            "pause()": "infinite",
            "payPrincipal()": "infinite",
            "payRepayment(uint256)": "infinite",
            "setDefault(address)": "infinite",
            "setLoanClosed()": "infinite",
            "setLoanMatured()": "infinite",
            "setLoanStart()": "infinite",
            "unpause()": "infinite",
            "updateInterestRateAndRepayments(uint256[])": "infinite",
            "withdrawFunds()": "infinite"
        },
        "internal": {
            "_calculateNextRepaymentAmountByBorrower(address)": "infinite",
            "_createNextRepayment(uint256,uint256)": "infinite"
        }
    }
}